:100000000C942A000C94D3050C9406060C94390623
:100010000C943C000C943C000C943C000C943C0070
:100020000C943C000C94A2080C943C000C943C00F2
:100030000C943C000C943C000C943C000C943C0050
:100040000C943C000C943C000C943C000C943C0040
:100050000C943C0011241FBECFE5D8E0DEBFCDBF1D
:1000600010E0A0E6B0E001C01D92AA36B107E1F7AA
:100070000E943B090C947F090C940000DF93CF93FE
:10008000CDB7DEB7AFE5B0E0EFE5F0E080818068A6
:100090008C93CF91DF910895DF93CF93CDB7DEB7E7
:1000A000AFE5B0E0EFE5F0E080818F778C93CF9102
:1000B000DF910895DF93CF9300D000D0CDB7DEB7A6
:1000C00089836A838981843090F58981282F30E083
:1000D0003C832B838B819C8181309105D1F02B81D6
:1000E0003C81223031052CF48B819C81009761F09A
:1000F0001EC02B813C812230310581F08B819C8197
:100100008330910581F013C0EAE3F0E08A818083B7
:100110000EC0E7E3F0E08A81808309C0E4E3F0E009
:100120008A81808304C0E1E3F0E08A8180830F90BC
:100130000F900F900F90CF91DF910895DF93CF93A1
:1001400000D000D0CDB7DEB789836A83898184303F
:1001500090F58981282F30E03C832B838B819C8113
:1001600081309105D1F02B813C81223031052CF476
:100170008B819C81009761F01EC02B813C812230D5
:10018000310581F08B819C818330910581F013C012
:10019000EBE3F0E08A8180830EC0E8E3F0E08A813F
:1001A000808309C0E5E3F0E08A81808304C0E2E354
:1001B000F0E08A8180830F900F900F900F90CF9185
:1001C000DF910895DF93CF9300D000D0CDB7DEB795
:1001D0008A838A81843090F58A81282F30E03C839D
:1001E0002B838B819C8181309105D1F02B813C81C7
:1001F000223031052CF48B819C81009761F01EC068
:100200002B813C812230310581F08B819C818330B0
:10021000910581F013C0EBE3F0E0808189830EC08B
:10022000E8E3F0E08081898309C0E5E3F0E08081C4
:10023000898304C0E2E3F0E08081898389810F90A3
:100240000F900F900F90CF91DF910895DF93CF9390
:1002500000D000D00F92CDB7DEB789836A834B837D
:100260008981843008F0D1C08981282F30E03D8316
:100270002C838C819D818130910509F443C02C81B0
:100280003D81223031052CF48C819D81009771F0E5
:10029000BCC02C813D812230310509F45FC08C81C6
:1002A0009D818330910509F485C0AFC08B81813079
:1002B000A1F4AAE3B0E0EAE3F0E08081482F8A816C
:1002C000282F30E081E090E0022E02C0880F991FB5
:1002D0000A94E2F7842B8C9398C0AAE3B0E0EAE397
:1002E000F0E08081482F8A81282F30E081E090E083
:1002F000022E02C0880F991F0A94E2F7809584238A
:100300008C9383C08B818130A1F4A7E3B0E0E7E355
:10031000F0E08081482F8A81282F30E081E090E052
:10032000022E02C0880F991F0A94E2F7842B8C9347
:100330006CC0A7E3B0E0E7E3F0E08081482F8A815A
:10034000282F30E081E090E0022E02C0880F991F34
:100350000A94E2F7809584238C9357C08B81813077
:10036000A1F4A4E3B0E0E4E3F0E08081482F8A81C7
:10037000282F30E081E090E0022E02C0880F991F04
:100380000A94E2F7842B8C9340C0A4E3B0E0E4E34A
:10039000F0E08081482F8A81282F30E081E090E0D2
:1003A000022E02C0880F991F0A94E2F780958423D9
:1003B0008C932BC08B818130A1F4A1E3B0E0E1E309
:1003C000F0E08081482F8A81282F30E081E090E0A2
:1003D000022E02C0880F991F0A94E2F7842B8C9397
:1003E00014C0A1E3B0E0E1E3F0E08081482F8A810E
:1003F000282F30E081E090E0022E02C0880F991F84
:100400000A94E2F7809584238C930F900F900F90BD
:100410000F900F90CF91DF910895DF93CF9300D08D
:1004200000D00F92CDB7DEB789836A834B83898171
:10043000843008F0D1C08981282F30E03D832C839F
:100440008C819D818130910509F443C02C813D81CF
:10045000223031052CF48C819D81009771F0BCC055
:100460002C813D812230310509F45FC08C819D8152
:100470008330910509F485C0AFC08B818130A1F430
:10048000ABE3B0E0EBE3F0E08081482F8A81282FD6
:1004900030E081E090E0022E02C0880F991F0A949C
:1004A000E2F7842B8C9398C0ABE3B0E0EBE3F0E091
:1004B0008081482F8A81282F30E081E090E0022E51
:1004C00002C0880F991F0A94E2F7809584238C93C9
:1004D00083C08B818130A1F4A8E3B0E0E8E3F0E0D1
:1004E0008081482F8A81282F30E081E090E0022E21
:1004F00002C0880F991F0A94E2F7842B8C936CC07A
:10050000A8E3B0E0E8E3F0E08081482F8A81282F5B
:1005100030E081E090E0022E02C0880F991F0A941B
:10052000E2F7809584238C9357C08B818130A1F4AE
:10053000A5E3B0E0E5E3F0E08081482F8A81282F31
:1005400030E081E090E0022E02C0880F991F0A94EB
:10055000E2F7842B8C9340C0A5E3B0E0E5E3F0E044
:100560008081482F8A81282F30E081E090E0022EA0
:1005700002C0880F991F0A94E2F7809584238C9318
:100580002BC08B818130A1F4A2E3B0E0E2E3F0E084
:100590008081482F8A81282F30E081E090E0022E70
:1005A00002C0880F991F0A94E2F7842B8C9314C021
:1005B000A2E3B0E0E2E3F0E08081482F8A81282FB7
:1005C00030E081E090E0022E02C0880F991F0A946B
:1005D000E2F7809584238C930F900F900F900F90EB
:1005E0000F90CF91DF910895DF93CF9300D000D08B
:1005F0000F92CDB7DEB78A836B838A81843008F08F
:1006000067C08A81282F30E03D832C834C815D8137
:100610004130510541F18C819D818230910534F446
:100620002C813D812115310561F052C04C815D81E5
:100630004230510551F18C819D8183309105B9F192
:1006400047C0E9E3F0E08081282F30E08B81882FDC
:1006500090E0A90102C0559547958A95E2F7CA0135
:100660008170898335C0E6E3F0E08081282F30E097
:100670008B81882F90E0A90102C0559547958A95F6
:10068000E2F7CA018170898323C0E3E3F0E080814F
:10069000282F30E08B81882F90E0A90102C055956A
:1006A00047958A95E2F7CA018170898311C0E0E31A
:1006B000F0E08081282F30E08B81882F90E0A90125
:1006C00002C0559547958A95E2F7CA0181708983E2
:1006D00089810F900F900F900F900F90CF91DF9125
:1006E0000895DF93CF9300D000D0CDB7DEB78A83D3
:1006F0008A81843090F58A81282F30E03C832B83D7
:100700008B819C8181309105D1F02B813C812230FD
:1007100031052CF48B819C81009761F01EC02B81E8
:100720003C812230310581F08B819C8183309105A1
:1007300081F013C0EAE3F0E0808189830EC0E7E333
:10074000F0E08081898309C0E4E3F0E0808189835F
:1007500004C0E1E3F0E08081898389810F900F90EC
:100760000F900F90CF91DF910895DF93CF9300D03A
:1007700000D00F92CDB7DEB78A836B838A81843035
:1007800008F067C08A81282F30E03D832C834C819C
:100790005D814130510541F18C819D81823091050F
:1007A00034F42C813D812115310561F052C04C811A
:1007B0005D814230510551F18C819D8183309105DD
:1007C000B9F147C0EAE3F0E08081282F30E08B8167
:1007D000882F90E0A90102C0559547958A95E2F7C8
:1007E000CA018170898335C0E7E3F0E08081282F5A
:1007F00030E08B81882F90E0A90102C05595479584
:100800008A95E2F7CA018170898323C0E4E3F0E0AE
:100810008081282F30E08B81882F90E0A90102C0D1
:10082000559547958A95E2F7CA018170898311C071
:10083000E1E3F0E08081282F30E08B81882F90E089
:10084000A90102C0559547958A95E2F7CA018170C2
:10085000898380E00F900F900F900F900F90CF91B1
:10086000DF910895DF93CF9300D000D0CDB7DEB7EE
:1008700089836A838981843008F04AC08981282F5E
:1008800030E03C832B838B819C818130910501F189
:100890002B813C81223031052CF48B819C81009787
:1008A00061F036C02B813C8122303105E1F08B8133
:1008B0009C818330910511F12BC080E06A8140E07A
:1008C0000E94260180E06A8141E00E940D0220C062
:1008D00081E06A8140E00E94260181E06A8141E076
:1008E0000E940D0215C082E06A8140E00E9426014C
:1008F00082E06A8141E00E940D020AC083E06A81C1
:1009000040E00E94260183E06A8141E00E940D02DE
:100910000F900F900F900F90CF91DF910895DF937C
:10092000CF9300D00F92CDB7DEB789838981282F6E
:1009300030E03B832A838A819B818630910559F080
:100940002A813B812730310571F08A819B81853076
:10095000910589F017C0ABE5B0E0EBE5F0E08081F0
:1009600080648C930FC0ABE5B0E0EBE5F0E08081F4
:1009700080688C9307C0ABE5B0E0EBE5F0E08081E8
:1009800080628C930F900F900F90CF91DF9108951C
:10099000DF93CF9300D00F92CDB7DEB789838981E3
:1009A000282F30E03B832A838A819B818630910502
:1009B00059F02A813B812730310571F08A819B8172
:1009C0008530910589F017C0ABE5B0E0EBE5F0E0CC
:1009D00080818F7B8C930FC0ABE5B0E0EBE5F0E05E
:1009E00080818F778C9307C0ABE5B0E0EBE5F0E05A
:1009F00080818F7D8C930F900F900F90CF91DF911E
:100A00000895DF93CF9300D000D0CDB7DEB78983B0
:100A10006A838A81282F30E03C832B838B819C81E1
:100A20008630910561F02B813C8127303105A9F199
:100A30008B819C818530910509F45DC072C08981EC
:100A4000882F90E081709070882341F0A5E5B0E098
:100A5000E5E5F0E0808181608C9307C0A5E5B0E01A
:100A6000E5E5F0E080818E7F8C9389818695882FE3
:100A700090E081709070882341F0A5E5B0E0E5E555
:100A8000F0E0808182608C934CC0A5E5B0E0E5E5A4
:100A9000F0E080818D7F8C9344C08981882F90E025
:100AA00081709070882341F0A5E5B0E0E5E5F0E0C5
:100AB000808184608C9307C0A5E5B0E0E5E5F0E0B7
:100AC00080818B7F8C9389818695882F90E08170BF
:100AD0009070882341F0A5E5B0E0E5E5F0E0808185
:100AE00088608C931EC0A5E5B0E0E5E5F0E080816C
:100AF000877F8C9316C08981882F90E081709070D9
:100B0000882341F0A5E5B0E0E5E5F0E08081806470
:100B10008C9307C0A5E5B0E0E5E5F0E080818F7B30
:100B20008C930F900F900F900F90CF91DF910895BD
:100B3000DF93CF9300D000D00F92CDB7DEB789837B
:100B40007B836A838981282F30E03D832C838C81CD
:100B50009D818630910559F02C813D8127303105EA
:100B600069F08C819D818530910579F014C08A816E
:100B70009B8190936100809360000DC08A819B816E
:100B8000909363008093620006C08A819B8190935A
:100B90006500809364000F900F900F900F900F905E
:100BA000CF91DF9108951F920F920FB60F921124EB
:100BB0002F933F934F935F936F937F938F939F9365
:100BC000AF93BF93EF93FF93DF93CF93CDB7DEB790
:100BD0008091600090916100009729F0E0916000A1
:100BE000F09161000995CF91DF91FF91EF91BF9155
:100BF000AF919F918F917F916F915F914F913F91B5
:100C00002F910F900FBE0F901F9018951F920F926B
:100C10000FB60F9211242F933F934F935F936F93CF
:100C20007F938F939F93AF93BF93EF93FF93DF9344
:100C3000CF93CDB7DEB780916200909163000097AB
:100C400029F0E0916200F09163000995CF91DF9166
:100C5000FF91EF91BF91AF919F918F917F916F9194
:100C60005F914F913F912F910F900FBE0F901F906A
:100C700018951F920F920FB60F9211242F933F9346
:100C80004F935F936F937F938F939F93AF93BF9394
:100C9000EF93FF93DF93CF93CDB7DEB780916400DE
:100CA00090916500009729F0E0916400F091650053
:100CB0000995CF91DF91FF91EF91BF91AF919F91F6
:100CC0008F917F916F915F914F913F912F910F90F5
:100CD0000FBE0F901F901895DF93CF93CDB7DEB75F
:100CE0002A970FB6F894DEBF0FBECDBF89836A8303
:100CF0004B832C838A81282F30E03A872987898586
:100D00009A858230910509F45CC029853A852330A3
:100D1000310554F489859A850097C9F029853A856B
:100D20002130310589F1C0C089859A8584309105CB
:100D300009F481C029853A85243031050CF45EC060
:100D400089859A858530910509F492C0ADC0AFE4DC
:100D5000B0E0EFE4F0E080818E7F8C93AFE4B0E010
:100D6000EFE4F0E080818D7F8C93AEE4B0E0EEE4C0
:100D7000F0E08081877F8C93AEE4B0E0EEE4F0E0B9
:100D800080818F7E8C9390C0AFE4B0E0EFE4F0E020
:100D9000808181608C93AFE4B0E0EFE4F0E080818B
:100DA00082608C93AEE4B0E0EEE4F0E08081877F77
:100DB0008C93AEE4B0E0EEE4F0E080818F7E8C9323
:100DC00073C0AFE4B0E0EFE4F0E080818E7F8C93FD
:100DD000AFE4B0E0EFE4F0E080818D7F8C93AEE48F
:100DE000B0E0EEE4F0E0808188608C93AEE4B0E0A7
:100DF000EEE4F0E0808180618C9356C0AFE4B0E017
:100E0000EFE4F0E080818E7F8C93AFE4B0E0EFE41C
:100E1000F0E080818D7F8C93AEE4B0E0EEE4F0E012
:100E20008081877F8C93AEE4B0E0EEE4F0E08081D7
:100E300080618C9339C0AFE4B0E0EFE4F0E08081F2
:100E40008E7F8C93AFE4B0E0EFE4F0E080818260CD
:100E50008C93AEE4B0E0EEE4F0E08081877F8C9389
:100E6000AEE4B0E0EEE4F0E0808180618C931CC0E1
:100E7000AFE4B0E0EFE4F0E080818E7F8C93AFE4EC
:100E8000B0E0EFE4F0E0808182608C93AEE4B0E00B
:100E9000EEE4F0E0808188608C93AEE4B0E0EEE4B4
:100EA000F0E0808180618C93AEE4B0E0EEE4F0E0AD
:100EB0008081887F8C93AEE4B0E0EEE4F0E0908136
:100EC0008981892B8C938B81282F30E038872F8361
:100ED0008F8198858130910521F12F8138852230CD
:100EE00031052CF48F819885009761F046C02F81E1
:100EF00038852230310521F18F8198858330910525
:100F000071F13BC0AFE4B0E0EFE4F0E080818F7BB3
:100F10008C93AFE4B0E0EFE4F0E080818F778C93C6
:100F20002CC0AFE4B0E0EFE4F0E0808180648C930B
:100F3000AFE4B0E0EFE4F0E080818F778C931DC0E8
:100F4000AFE4B0E0EFE4F0E080818F7B8C93AFE41E
:100F5000B0E0EFE4F0E0808180688C930EC0AFE4F5
:100F6000B0E0EFE4F0E0808180648C93AFE4B0E027
:100F7000EFE4F0E0808180688C938C81282F30E052
:100F80003E832D838D819E818130910521F12D81BC
:100F90003E81223031052CF48D819E81009761F0D5
:100FA00046C02D813E812230310521F18D819E8107
:100FB0008330910571F13BC0AFE4B0E0EFE4F0E0C5
:100FC00080818F7E8C93AFE4B0E0EFE4F0E080812D
:100FD0008F7D8C932CC0AFE4B0E0EFE4F0E0808133
:100FE00080618C93AFE4B0E0EFE4F0E080818F7D2E
:100FF0008C931DC0AFE4B0E0EFE4F0E080818F7E21
:101000008C93AFE4B0E0EFE4F0E0808180628C93F9
:101010000EC0AFE4B0E0EFE4F0E0808180618C933B
:10102000AFE4B0E0EFE4F0E0808180628C932A9638
:101030000FB6F894DEBF0FBECDBFCF91DF910895FC
:10104000DF93CF93CDB7DEB7A9E5B0E0E9E5F0E0F7
:10105000808184608C93CF91DF910895DF93CF934B
:10106000CDB7DEB7A9E5B0E0E9E5F0E080818B7FA0
:101070008C93CF91DF910895DF93CF93CDB7DEB7F7
:10108000A9E5B0E0E9E5F0E0808180618C93CF9143
:10109000DF910895DF93CF93CDB7DEB7A9E5B0E038
:1010A000E9E5F0E0808188608C93CF91DF9108952D
:1010B000DF93CF93CDB7DEB7A9E5B0E0E9E5F0E087
:1010C000808188608C93CF91DF910895DF93CF93D7
:1010D000CDB7DEB7A9E5B0E0E9E5F0E08081877F34
:1010E0008C93CF91DF910895DF93CF93CDB7DEB787
:1010F000A9E5B0E0E9E5F0E0808180628C93CF91D2
:10110000DF910895DF93CF93CDB7DEB7A9E5B0E0C7
:10111000E9E5F0E080818F7D8C93CF91DF91089598
:10112000DF93CF9300D0CDB7DEB79A8389838981CF
:101130009A8190936700809366000F900F90CF91F3
:10114000DF9108951F920F920FB60F9211242F93E3
:101150003F934F935F936F937F938F939F93AF933F
:10116000BF93EF93FF93DF93CF93CDB7DEB780911B
:10117000660090916700009729F0E0916600F09179
:1011800067000995CF91DF91FF91EF91BF91AF91EA
:101190009F918F917F916F915F914F913F912F918F
:1011A0000F900FBE0F901F901895DF93CF93CDB780
:1011B000DEB780916800882351F4EAE4F0E087EE1E
:1011C00093E09183808381E0809368001AC08091CE
:1011D0006800813051F4EAE4F0E08BED95E0918312
:1011E000808382E0809368000CC080916800823028
:1011F00041F4EAE4F0E08FEC97E091838083109271
:101200006800CF91DF910895DF93CF93CDB7DEB71C
:10121000ABE3B0E0EBE3F0E0908181E089278C93D1
:1012200080916900882351F4E8E4F0E087EE93E0D0
:101230009183808381E0809369001AC08091690066
:10124000813051F4E8E4F0E081EE94E09183808312
:1012500082E0809369000CC080916900823041F483
:10126000E8E4F0E085ED96E09183808310926900D8
:10127000CF91DF910895DF93CF93CDB7DEB70E9472
:101280003E0080E060E041E00E94260183E062E0F1
:101290000E94320483E063E00E94320486E00E94F0
:1012A0008F0482E066E00E94010525ED38E086E0CB
:1012B000B9010E94980587E00E948F0482E067E0F0
:1012C0000E94010524E039E087E0B9010E949805F9
:1012D00083E064E041E00E94260183E065E041E0B4
:1012E0000E942601E6E4F0E08FE19EE49183808392
:1012F00082E065E042E022E00E946C06FFCFF894B5
:02130000FFCF1D
:00000001FF
