:100000000C942A000C9447000C9447000C94470071
:100010000C9447000C9447000C94F6150C94291688
:100020000C9447000C945C160C9431130C94FE1243
:100030000C9447000C9447000C9447000C94470024
:100040000C9447000C9447000C9447000C94470014
:100050000C94470011241FBECFE5D8E0DEBFCDBF12
:1000600010E0A0E6B0E0E4E1F0E402C005900D92FB
:10007000A43BB107D9F711E0A4EBB0E001C01D9299
:10008000A932B107E1F70E94651F0C9408200C9477
:100090000000EF92FF920F931F937B018C0120E0F1
:1000A00030E040E05FE40E94490388238CF0C801FF
:1000B000B70120E030E040E05FE40E94C1010E940F
:1000C000A9039B01AC01205030404040504806C07D
:1000D000C801B7010E94A9039B01AC01B901CA0183
:1000E0001F910F91FF90EF900895A0E0B0E0EBE733
:1000F000F0E00C94D11FDC012B01FA019C919230AD
:1001000008F439C1EB018881823008F433C194309E
:1001100069F4843009F02FC111969C91119789815F
:10012000981709F428C1A1E9B0E025C1843009F489
:1001300021C18230A9F4923009F01DC19A01AD01AC
:1001400088E0EA010990AE01E90109929E0181501F
:10015000C1F7E201898111969C918923818308C1AD
:10016000923009F407C112962D903C901397EB0141
:100170008A819B811496AD90BD90CD90DC901797AD
:10018000EC80FD800E811F819101281B390BB90184
:1001900037FF04C066277727621B730B6032710537
:1001A0000CF061C0121613066CF537014801062EDB
:1001B00004C096948794779467940A94D2F721E0C8
:1001C00030E040E050E004C0220F331F441F551FB1
:1001D0006A95D2F721503040404050402E213F21B7
:1001E00040235123211531054105510521F021E01E
:1001F00030E040E050E079018A01E628F72808293C
:1002000019293CC0232BD1F1260E371E350146019A
:10021000062E04C096948794779467940A94D2F734
:1002200021E030E040E050E004C0220F331F441FC3
:10023000551F6A95D2F721503040404050402A2146
:100240003B214C215D21211531054105510521F04E
:1002500021E030E040E050E059016A01A628B728CB
:10026000C828D9280BC0821593052CF01C01AA249C
:10027000BB24650103C0EE24FF24870111969C91E5
:10028000D20111968C91981709F445C0992339F041
:10029000A80197012A193B094C095D0906C0A6016E
:1002A00095012E193F09400B510B57FD08C01182D3
:1002B0003382228224833583468357831DC081E0A5
:1002C00081833382228288279927DC01821B930B4A
:1002D000A40BB50B84839583A683B7830DC0220F2F
:1002E000331F441F551F24833583468357838281E0
:1002F000938101979383828324813581468157813D
:10030000DA01C9010197A109B1098F5F9F4FAF4F72
:10031000BF4328F30BC0918333822282EA0CFB1C7B
:100320000C1D1D1DE482F5820683178383E0808304
:10033000248135814681578157FF1AC0C901AA27F8
:1003400097FDA095BA2F81709070A070B0705695EF
:10035000479537952795822B932BA42BB52B848318
:100360009583A683B7838281938101969383828349
:10037000DF0101C0D201CD01CDB7DEB7E2E10C94BF
:10038000ED1FA0E2B0E0E7ECF1E00C94DD1F698323
:100390007A838B839C832D833E834F835887E9E048
:1003A000EE2EF12CEC0EFD1ECE010196B7010E943F
:1003B000D2048E010F5E1F4FCE010596B8010E9438
:1003C000D2048A8991E089278A8BC701B801AE01DE
:1003D000475E5F4F0E9475000E94FD03A096E6E015
:1003E0000C94F91FA0E2B0E0E8EFF1E00C94DD1FFF
:1003F00069837A838B839C832D833E834F835887C5
:10040000F9E0EF2EF12CEC0EFD1ECE010196B701A6
:100410000E94D2048E010F5E1F4FCE010596B801D7
:100420000E94D204C701B801AE01475E5F4F0E942F
:1004300075000E94FD03A096E6E00C94F91FA0E26F
:10044000B0E0E5E2F2E00C94D11F69837A838B83FC
:100450009C832D833E834F835887CE010196BE0136
:10046000675F7F4F0E94D204CE010596BE016F5E8A
:100470007F4F0E94D2049985923088F0898982301A
:10048000C8F0943019F4823051F404C0843029F457
:10049000923081F481E990E0C6C0923049F420E0C6
:1004A0009A858A89981321E02A87CE010996BBC0D4
:1004B000823049F420E09A858A89981321E02A8BBA
:1004C000CE014196B0C02D843E844F8458886D88FB
:1004D0007E888F88988CEE24FF248701AA24BB2471
:1004E000650140E050E060E070E0E0E0F0E0C10174
:1004F00081709070892BE9F0E60CF71C081D191D1E
:100500009A01AB012A0D3B1D4C1D5D1D80E090E062
:10051000A0E0B0E0E614F7040805190520F481E036
:1005200090E0A0E0B0E0BA01A901480F591F6A1F8E
:100530007B1FAA0CBB1CCC1CDD1C97FE08C081E0F5
:1005400090E0A0E0B0E0A82AB92ACA2ADB2A3196B6
:10055000E032F10549F0660C771C881C991C569412
:10056000479437942794C3CFFA85EA892B893C892D
:100570008B859C85280F391F2E5F3F4F17C0CA01FE
:1005800081709070892B61F016950795F794E79428
:1005900080E090E0A0E0B0E8E82AF92A0A2B1B2BC3
:1005A00076956795579547952F5F3F4F77FDE7CF36
:1005B0000CC0440F551F661F771F17FD4160EE0CDE
:1005C000FF1C001F111F21503040403090E05907A0
:1005D00090E0690790E4790760F32B8F3C8FDB0193
:1005E000CA018F779070A070B07080349105A1051A
:1005F000B10561F447FD0AC0E114F10401051105DC
:1006000029F0405C5F4F6F4F7F4F40781A8EFE1786
:1006100011F081E08A8F4D8F5E8F6F8F78A383E01A
:10062000898FCE0149960E94FD03A096E2E10C94C9
:10063000ED1FA8E1B0E0EFE1F3E00C94DD1F69836A
:100640007A838B839C832D833E834F83588789E0F5
:10065000E82EF12CEC0EFD1ECE010196B7010E9492
:10066000D2048E010F5E1F4FCE010596B8010E9485
:10067000D2048985823040F08989823028F0C70110
:10068000B8010E944A0501C08FEF6896E6E00C941D
:10069000F91FA8E1B0E0EFE4F3E00C94DD1F6983FB
:1006A0007A838B839C832D833E834F83588789E095
:1006B000E82EF12CEC0EFD1ECE010196B7010E9432
:1006C000D2048E010F5E1F4FCE010596B8010E9425
:1006D000D2048985823040F08989823028F0C701B0
:1006E000B8010E944A0501C08FEF6896E6E00C94BD
:1006F000F91FA8E1B0E0EFE7F3E00C94DD1F698398
:100700007A838B839C832D833E834F83588789E034
:10071000E82EF12CEC0EFD1ECE010196B7010E94D1
:10072000D2048E010F5E1F4FCE010596B8010E94C4
:10073000D2048985823040F08989823028F0C7014F
:10074000B8010E944A0501C081E06896E6E00C9479
:10075000F91FACE0B0E0EFEAF3E00C94E11F69832D
:100760007A838B839C83CE010196BE016B5F7F4FA2
:100770000E94D2048D81823061F1823050F1843048
:1007800021F48E81882351F12EC02F81388537FDC9
:1007900020C06E812F3131051CF06623F9F023C093
:1007A0008EE190E0821B930B29853A854B855C8511
:1007B00004C056954795379527958A95D2F76623B5
:1007C000B1F050954095309521953F4F4F4F5F4F79
:1007D0000EC020E030E040E050E009C02FEF3FEFD6
:1007E0004FEF5FE704C020E030E040E050E8B9019F
:1007F000CA012C96E2E00C94FD1FDF92EF92FF926B
:100800000F931F93FC01E480F58006811781D1804E
:100810008081823048F480E090E0A0E1B0E0E82AF6
:10082000F92A0A2B1B2BA5C0843009F49FC0823003
:1008300021F4EE24FF24870105C0E114F104010531
:10084000110519F4E0E0F0E096C0628173819FEF3A
:10085000623879070CF05BC022E83FEF261B370BAC
:100860002A3131052CF020E030E040E050E02AC091
:10087000B801A701022E04C0769567955795479554
:100880000A94D2F781E090E0A0E0B0E004C0880FC5
:10089000991FAA1FBB1F2A95D2F70197A109B10979
:1008A0008E219F21A023B1230097A105B10521F03E
:1008B00081E090E0A0E0B0E09A01AB01282B392B59
:1008C0004A2B5B2BDA01C9018F779070A070B07052
:1008D00080349105A105B10539F427FF09C0205CDA
:1008E0003F4F4F4F5F4F04C0215C3F4F4F4F5F4F13
:1008F000E0E0F0E02030A0E03A07A0E04A07A0E402
:100900005A0710F0E1E0F0E079018A0127C0603871
:10091000710564F5FB01E158FF4FD801C7018F77DE
:100920009070A070B07080349105A105B10539F4C4
:10093000E7FE0DC080E490E0A0E0B0E004C08FE3EB
:1009400090E0A0E0B0E0E80EF91E0A1F1B1F17FFA1
:1009500005C016950795F794E794319687E01695AC
:100960000795F794E7948A95D1F705C0EE24FF2404
:100970008701EFEFF0E06E2F679566276795902F60
:100980009F77D794DD24D7948E2F8695492F462BB9
:10099000582F5D29B701CA011F910F91FF90EF9069
:1009A000DF900895FC01DB01408151812281622F9B
:1009B0006F7770E0221F2227221F9381892F880FD3
:1009C000822B282F30E0991F9927991F11969C930D
:1009D000119721153105A9F54115510561057105DD
:1009E00011F482E037C082E89FEF13969C938E93B8
:1009F00012979A01AB0167E0220F331F441F551F66
:100A00006A95D1F783E08C930DC0220F331F441FEA
:100A1000551F12968D919C911397019713969C9355
:100A20008E931297203080E0380780E0480780E4FA
:100A3000580758F314962D933D934D935C93179755
:100A400008952F3F310579F4411551056105710570
:100A500019F484E08C93089564FF03C081E08C93C3
:100A600012C01C9210C02F57304013963C932E9307
:100A7000129783E08C9387E0440F551F661F771F02
:100A80008A95D1F7706414964D935D936D937C9322
:100A9000179708951F93DC01FB019C91923008F495
:100AA00047C08081823008F443C0943051F41196DD
:100AB0001C91843099F58181682F70E0611B710968
:100AC0003FC0843021F0923031F48230B9F181811D
:100AD000882389F12DC011961C9111978230F1F075
:100AE00081811817D9F412962D913C911397828128
:100AF00093818217930794F028173907BCF0149656
:100B00008D919D910D90BC91A02D248135814681C0
:100B10005781281739074A075B0718F4112341F05A
:100B20000AC082179307A407B50740F4112319F0F0
:100B300061E070E005C06FEF7FEF02C060E070E041
:100B4000CB011F910895DF93CF93CDB7DEB7AFE50B
:100B5000B0E0EFE5F0E0808180688C93CF91DF9189
:100B60000895DF93CF93CDB7DEB7AFE5B0E0EFE503
:100B7000F0E080818F778C93CF91DF910895DF93A0
:100B8000CF9300D000D0CDB7DEB789836A83898147
:100B9000843090F58981282F30E03C832B838B8132
:100BA0009C8181309105D1F02B813C81223031052F
:100BB0002CF48B819C81009761F01EC02B813C81BD
:100BC0002230310581F08B819C818330910581F049
:100BD00013C0EAE3F0E08A8180830EC0E7E3F0E02F
:100BE0008A81808309C0E4E3F0E08A81808304C0C5
:100BF000E1E3F0E08A8180830F900F900F900F90D7
:100C0000CF91DF910895DF93CF9300D000D0CDB77F
:100C1000DEB789836A838981843090F58981282FA2
:100C200030E03C832B838B819C8181309105D1F016
:100C30002B813C81223031052CF48B819C810097E3
:100C400061F01EC02B813C812230310581F08B8107
:100C50009C818330910581F013C0EBE3F0E08A8141
:100C600080830EC0E8E3F0E08A81808309C0E5E379
:100C7000F0E08A81808304C0E2E3F0E08A8180832F
:100C80000F900F900F900F90CF91DF910895DF9309
:100C9000CF9300D000D0CDB7DEB78A838A8184306D
:100CA00090F58A81282F30E03C832B838B819C81B7
:100CB00081309105D1F02B813C81223031052CF41B
:100CC0008B819C81009761F01EC02B813C8122307A
:100CD000310581F08B819C818330910581F013C0B7
:100CE000EBE3F0E0808189830EC0E8E3F0E08081EF
:100CF000898309C0E5E3F0E08081898304C0E2E3F1
:100D0000F0E08081898389810F900F900F900F9080
:100D1000CF91DF910895DF93CF9300D000D00F9251
:100D2000CDB7DEB789836A834B838981843008F02D
:100D3000D1C08981282F30E03D832C838C819D8117
:100D40008130910509F443C02C813D812230310569
:100D50002CF48C819D81009771F0BCC02C813D8169
:100D60002230310509F45FC08C819D81833091056B
:100D700009F485C0AFC08B818130A1F4AAE3B0E053
:100D8000EAE3F0E08081482F8A81282F30E081E07B
:100D900090E0022E02C0880F991F0A94E2F7842B7C
:100DA0008C9398C0AAE3B0E0EAE3F0E08081482F9A
:100DB0008A81282F30E081E090E0022E02C0880F67
:100DC000991F0A94E2F7809584238C9383C08B81CA
:100DD0008130A1F4A7E3B0E0E7E3F0E08081482FA1
:100DE0008A81282F30E081E090E0022E02C0880F37
:100DF000991F0A94E2F7842B8C936CC0A7E3B0E0B0
:100E0000E7E3F0E08081482F8A81282F30E081E0FD
:100E100090E0022E02C0880F991F0A94E2F7809595
:100E200084238C9357C08B818130A1F4A4E3B0E07C
:100E3000E4E3F0E08081482F8A81282F30E081E0D0
:100E400090E0022E02C0880F991F0A94E2F7842BCB
:100E50008C9340C0A4E3B0E0E4E3F0E08081482F4D
:100E60008A81282F30E081E090E0022E02C0880FB6
:100E7000991F0A94E2F7809584238C932BC08B8171
:100E80008130A1F4A1E3B0E0E1E3F0E08081482FFC
:100E90008A81282F30E081E090E0022E02C0880F86
:100EA000991F0A94E2F7842B8C9314C0A1E3B0E05D
:100EB000E1E3F0E08081482F8A81282F30E081E053
:100EC00090E0022E02C0880F991F0A94E2F78095E5
:100ED00084238C930F900F900F900F900F90CF91D1
:100EE000DF910895DF93CF9300D000D00F92CDB75C
:100EF000DEB789836A834B838981843008F0D1C04F
:100F00008981282F30E03D832C838C819D81813025
:100F1000910509F443C02C813D81223031052CF428
:100F20008C819D81009771F0BCC02C813D81223065
:100F3000310509F45FC08C819D818330910509F4EE
:100F400085C0AFC08B818130A1F4ABE3B0E0EBE3AF
:100F5000F0E08081482F8A81282F30E081E090E006
:100F6000022E02C0880F991F0A94E2F7842B8C93FB
:100F700098C0ABE3B0E0EBE3F0E08081482F8A81DA
:100F8000282F30E081E090E0022E02C0880F991FE8
:100F90000A94E2F7809584238C9383C08B818130FF
:100FA000A1F4A8E3B0E0E8E3F0E08081482F8A8173
:100FB000282F30E081E090E0022E02C0880F991FB8
:100FC0000A94E2F7842B8C936CC0A8E3B0E0E8E3CA
:100FD000F0E08081482F8A81282F30E081E090E086
:100FE000022E02C0880F991F0A94E2F7809584238D
:100FF0008C9357C08B818130A1F4A5E3B0E0E5E389
:10100000F0E08081482F8A81282F30E081E090E055
:10101000022E02C0880F991F0A94E2F7842B8C934A
:1010200040C0A5E3B0E0E5E3F0E08081482F8A818D
:10103000282F30E081E090E0022E02C0880F991F37
:101040000A94E2F7809584238C932BC08B818130A6
:10105000A1F4A2E3B0E0E2E3F0E08081482F8A81CE
:10106000282F30E081E090E0022E02C0880F991F07
:101070000A94E2F7842B8C9314C0A2E3B0E0E2E37D
:10108000F0E08081482F8A81282F30E081E090E0D5
:10109000022E02C0880F991F0A94E2F780958423DC
:1010A0008C930F900F900F900F900F90CF91DF9136
:1010B0000895DF93CF9300D000D00F92CDB7DEB765
:1010C0008A836B838A81843008F067C08A81282FE5
:1010D00030E03D832C834C815D814130510541F1ED
:1010E0008C819D818230910534F42C813D812115C4
:1010F000310561F052C04C815D814230510551F1A2
:101100008C819D8183309105B9F147C0E9E3F0E01E
:101110008081282F30E08B81882F90E0A90102C0C8
:10112000559547958A95E2F7CA018170898335C044
:10113000E6E3F0E08081282F30E08B81882F90E07B
:10114000A90102C0559547958A95E2F7CA018170B9
:10115000898323C0E3E3F0E08081282F30E08B8196
:10116000882F90E0A90102C0559547958A95E2F72E
:10117000CA018170898311C0E0E3F0E08081282FEB
:1011800030E08B81882F90E0A90102C055954795EA
:101190008A95E2F7CA018170898389810F900F9047
:1011A0000F900F900F90CF91DF910895DF93CF9321
:1011B00000D000D0CDB7DEB78A838A81843090F525
:1011C0008A81282F30E03C832B838B819C81813066
:1011D0009105D1F02B813C81223031052CF48B819B
:1011E0009C81009761F01EC02B813C81223031052B
:1011F00081F08B819C818330910581F013C0EAE3FB
:10120000F0E0808189830EC0E7E3F0E0808189838C
:1012100009C0E4E3F0E08081898304C0E1E3F0E009
:101220008081898389810F900F900F900F90CF91CB
:10123000DF910895DF93CF9300D000D00F92CDB708
:10124000DEB78A836B838A81843008F067C08A8125
:10125000282F30E03D832C834C815D814130510546
:1012600041F18C819D818230910534F42C813D8146
:101270002115310561F052C04C815D81423051052C
:1012800051F18C819D8183309105B9F147C0EAE32A
:10129000F0E08081282F30E08B81882F90E0A90139
:1012A00002C0559547958A95E2F7CA0181708983F6
:1012B00035C0E7E3F0E08081282F30E08B81882F74
:1012C00090E0A90102C0559547958A95E2F7CA01B9
:1012D0008170898323C0E4E3F0E08081282F30E02F
:1012E0008B81882F90E0A90102C0559547958A957A
:1012F000E2F7CA018170898311C0E1E3F0E08081E7
:10130000282F30E08B81882F90E0A90102C05595ED
:1013100047958A95E2F7CA018170898380E00F9032
:101320000F900F900F900F90CF91DF910895DF9362
:10133000CF9300D000D0CDB7DEB789836A8389818F
:10134000843008F04AC08981282F30E03C832B8309
:101350008B819C818130910501F12B813C81223070
:1013600031052CF48B819C81009761F036C02B8174
:101370003C8122303105E1F08B819C8183309105E5
:1013800011F12BC080E06A8140E00E948B0680E072
:101390006A8141E00E94720720C081E06A8140E0DA
:1013A0000E948B0681E06A8141E00E94720715C0AD
:1013B00082E06A8140E00E948B0682E06A8141E01F
:1013C0000E9472070AC083E06A8140E00E948B0697
:1013D00083E06A8141E00E9472070F900F900F90A6
:1013E0000F90CF91DF910895DF93CF93CDB7DEB704
:1013F00083E060E040E00E948B0683E061E040E033
:101400000E948B0683E062E040E00E948B0683E04E
:1014100063E040E00E948B0683E060E041E00E94D0
:10142000720783E061E041E00E94720783E062E0BE
:1014300041E00E94720783E063E041E00E9472078E
:1014400083E064E041E00E948B0683E065E041E0D8
:101450000E948B0683E066E041E00E948B0683E0F9
:1014600067E041E00E948B0683E064E041E00E9477
:10147000720783E065E041E00E94720783E066E066
:1014800041E00E94720783E067E041E00E9472073A
:10149000CF91DF910895DF93CF93CDB7DEB76297F9
:1014A0000FB6F894DEBF0FBECDBF1A8A84E08F87D7
:1014B000BDC083E06F8540E00E947207188AAAC011
:1014C00083E068890E945908898B8989882309F0FB
:1014D0009EC080E090E0A8E4B2E48B879C87AD8753
:1014E000BE876B857C858D859E8520E030E04AEF48
:1014F00054E40E941F02DC01CB018F839887A987E7
:10150000BA876F81788589859A8520E030E040E848
:101510005FE30E94790388232CF481E090E09E83AE
:101520008D833FC06F81788589859A8520E03FEF64
:101530004FE757E40E94190318164CF56B857C851C
:101540008D859E8520E030E040E251E40E941F023C
:10155000DC01CB01BC01CD010E944900DC01CB01C3
:101560009E838D830FC088EC90E09C838B838B815E
:101570009C810197F1F79C838B838D819E810197DC
:101580009E838D838D819E81009769F714C06F8142
:10159000788589859A850E944900DC01CB019E836C
:1015A0008D838D819E819A83898389819A81019718
:1015B000F1F79A83898383E068890E945908898BAF
:1015C00089898823A9F48889482F50E08F85882F3E
:1015D00090E09C0124503040CA01880F991F880F69
:1015E000991F820F931FFC01E756FF4F80818A8B62
:1015F00083E068890E945908898B05C083E0688967
:101600000E945908898B89898823C1F307C088897A
:101610008F5F888B8889843008F452CF83E06F8590
:1016200041E00E9472078F858F5F8F878F8588309A
:1016300008F43FCF8A8962960FB6F894DEBF0FBEDA
:10164000CDBFCF91DF910895DF93CF93CDB7DEB7B4
:101650006C970FB6F894DEBF0FBECDBF82E066E098
:1016600041E00E94720780E090E0A0E0B0E4898F42
:101670009A8FAB8FBC8F698D7A8D8B8D9C8D20E07E
:1016800030E04AEF54E40E941F02DC01CB018D8B55
:101690009E8BAF8BB88F6D897E898F89988D20E066
:1016A00030E040E85FE30E94790388232CF481E076
:1016B00090E09C8B8B8B3FC06D897E898F89988D44
:1016C00020E03FEF4FE757E40E94190318164CF54E
:1016D000698D7A8D8B8D9C8D20E030E040E251E465
:1016E0000E941F02DC01CB01BC01CD010E94490018
:1016F000DC01CB019C8B8B8B0FC088EC90E09A8B2C
:10170000898B89899A890197F1F79A8B898B8B89C3
:101710009C8901979C8B8B8B8B899C89009769F79F
:1017200014C06D897E898F89988D0E944900DC01E3
:10173000CB019C8B8B8B8B899C89988B8F878F851A
:1017400098890197F1F7988B8F8782E066E040E0F7
:101750000E94720780E090E0A0E0B0E48B879C8755
:10176000AD87BE876B857C858D859E8520E030E0CA
:101770004AEF54E40E941F02DC01CB018F8398875B
:10178000A987BA876F81788589859A8520E030E0BE
:1017900040E85FE30E94790388232CF481E090E025
:1017A0009E838D833FC06F81788589859A8520E0EF
:1017B0003FEF4FE757E40E94190318164CF56B856D
:1017C0007C858D859E8520E030E040E251E40E94DA
:1017D0001F02DC01CB01BC01CD010E944900DC01EC
:1017E000CB019E838D830FC088EC90E09C838B831C
:1017F0008B819C810197F1F79C838B838D819E81E6
:1018000001979E838D838D819E81009769F714C017
:101810006F81788589859A850E944900DC01CB011A
:101820009E838D838D819E819A83898389819A810C
:101830000197F1F79A8389836C960FB6F894DEBF0F
:101840000FBECDBFCF91DF910895DF93CF930F925D
:10185000CDB7DEB7898382E064E041E00E94720781
:1018600082E065E040E00E947207898182958F7076
:10187000982F917082E060E0492F0E947207898161
:10188000829586958770982F917082E061E0492F4C
:101890000E94720789818295869586958370982F1C
:1018A000917082E062E0492F0E9472078981982F2F
:1018B000991F9927991F82E063E0492F0E947207C0
:1018C0000E94240B8981982F917082E060E0492F5B
:1018D0000E94720789818695982F917082E061E05D
:1018E000492F0E947207898186958695982F91705D
:1018F00082E062E0492F0E94720789818695869571
:101900008695982F917082E063E0492F0E947207BC
:101910000E94240B0F90CF91DF910895DF93CF9316
:101920000F92CDB7DEB7898382E064E040E00E9489
:10193000720782E065E040E00E947207898182952B
:101940008F70982F917082E060E0492F0E9472079B
:101950008981829586958770982F917082E061E0E9
:10196000492F0E947207898182958695869583709A
:10197000982F917082E062E0492F0E94720789815E
:10198000982F991F9927991F82E063E0492F0E94A1
:1019900072070E94240B8981982F917082E060E089
:1019A000492F0E94720789818695982F917082E055
:1019B00061E0492F0E947207898186958695982F4C
:1019C000917082E062E0492F0E94720789818695BA
:1019D00086958695982F917082E063E0492F0E944A
:1019E00072070E94240B0F90CF91DF910895DF932F
:1019F000CF93CDB7DEB72E970FB6F894DEBF0FBEEC
:101A0000CDBF81E00E948E0C80E090E0A0EAB1E4BE
:101A10008B879C87AD87BE876B857C858D859E85F2
:101A200020E030E04AEF54E40E941F02DC01CB01C9
:101A30008F839887A987BA876F81788589859A85EA
:101A400020E030E040E85FE30E94790388232CF433
:101A500081E090E09E838D833FC06F81788589858A
:101A60009A8520E03FEF4FE757E40E9419031816CC
:101A70004CF56B857C858D859E8520E030E040E2CD
:101A800051E40E941F02DC01CB01BC01CD010E9488
:101A90004900DC01CB019E838D830FC088EC90E070
:101AA0009C838B838B819C810197F1F79C838B8333
:101AB0008D819E8101979E838D838D819E8100976C
:101AC00069F714C06F81788589859A850E944900DD
:101AD000DC01CB019E838D838D819E819A838983D6
:101AE00089819A810197F1F79A8389832E960FB69F
:101AF000F894DEBF0FBECDBFCF91DF9108950F9355
:101B00001F93DF93CF93CDB7DEB7C455D0400FB648
:101B1000F894DEBF0FBECDBF82E064E041E00E94DA
:101B20008B0682E065E041E00E948B0682E066E081
:101B300041E00E948B06FE01EF5AFF4F80E090E0EB
:101B4000A8E4B2E480839183A283B3838E01035B14
:101B50001F4FFE01EF5AFF4F608171818281938197
:101B600020E030E04AEF54E40E941F02DC01CB0188
:101B7000F80180839183A283B383FE01E35BFF4F6F
:101B8000608171818281938120E030E040E85FE3F1
:101B90000E947903882344F4FE01E55BFF4F81E056
:101BA00090E09183808364C0FE01E35BFF4F60811E
:101BB00071818281938120E03FEF4FE757E40E94DB
:101BC000190318160CF043C0FE01EF5AFF4F608155
:101BD00071818281938120E030E040E251E40E94F3
:101BE0001F02DC01CB018E01055B1F4FBC01CD0143
:101BF0000E944900DC01CB01F801918380831FC062
:101C0000FE01E75BFF4F88EC90E091838083FE014B
:101C1000E75BFF4F808191810197F1F7FE01E75B60
:101C2000FF4F91838083DE01A55BBF4FFE01E55B23
:101C3000FF4F80819181019711969C938E93FE01B5
:101C4000E55BFF4F808191810097D1F627C08E011F
:101C5000055B1F4FFE01E35BFF4F60817181828155
:101C600093810E944900DC01CB01F80191838083BC
:101C7000DE01A95BBF4FFE01E55BFF4F80819181D3
:101C80008D939C93FE01E95BFF4F808191810197C9
:101C9000F1F7FE01E95BFF4F9183808383E30E94AC
:101CA0008E0CFE01ED5BFF4F80E090E0A0E8BFE30B
:101CB00080839183A283B3838E01015C1F4FFE0159
:101CC000ED5BFF4F608171818281938120E030E084
:101CD0004AEF54E40E941F02DC01CB01F80180832B
:101CE0009183A283B383FE01FF966081718182811B
:101CF000938120E030E040E85FE30E94790388238D
:101D00002CF481E090E09EAF8DAF46C0FE01FF96BF
:101D1000608171818281938120E03FEF4FE757E43A
:101D20000E941903181664F5FE01ED5BFF4F6081F8
:101D300071818281938120E030E040E251E40E9491
:101D40001F02DC01CB01BC01CD010E944900DC0176
:101D5000CB019EAF8DAF0FC088EC90E09CAF8BAFF6
:101D60008BAD9CAD0197F1F79CAF8BAF8DAD9EAD68
:101D700001979EAF8DAF8DAD9EAD009769F716C0F0
:101D8000FE01FF9660817181828193810E944900EA
:101D9000DC01CB019EAF8DAF8DAD9EAD9AAF89AF0B
:101DA00089AD9AAD0197F1F79AAF89AF82E00E94B1
:101DB0008E0C80E090E0A0E8BFE38DAB9EABAFABB4
:101DC000B8AF6DA97EA98FA998AD20E030E04AEFA9
:101DD00054E40E941F02DC01CB0189AB9AABABAB90
:101DE000BCAB69A97AA98BA99CA920E030E040E8A6
:101DF0005FE30E94790388232CF481E090E098ABA4
:101E00008FA73FC069A97AA98BA99CA920E03FEFC1
:101E10004FE757E40E94190318164CF56DA97EA9E7
:101E20008FA998AD20E030E040E251E40E941F020B
:101E3000DC01CB01BC01CD010E944900DC01CB01DA
:101E400098AB8FA70FC088EC90E09EA78DA78DA5BB
:101E50009EA50197F1F79EA78DA78FA598A9019739
:101E600098AB8FA78FA598A9009769F714C069A9A7
:101E70007AA98BA99CA90E944900DC01CB0198ABEF
:101E80008FA78FA598A99CA78BA78BA59CA5019729
:101E9000F1F79CA78BA788E20E948E0C80E090E06F
:101EA000A0E8BFE38FA398A7A9A7BAA76FA178A5B9
:101EB00089A59AA520E030E04AEF54E40E941F0271
:101EC000DC01CB018BA39CA3ADA3BEA36BA17CA122
:101ED0008DA19EA120E030E040E85FE30E947903FD
:101EE00088232CF481E090E09AA389A33FC06BA1E2
:101EF0007CA18DA19EA120E03FEF4FE757E40E9417
:101F0000190318164CF56FA178A589A59AA520E0AC
:101F100030E040E251E40E941F02DC01CB01BC0131
:101F2000CD010E944900DC01CB019AA389A30FC017
:101F300088EC90E098A38F8F8F8D98A10197F1F78F
:101F400098A38F8F89A19AA101979AA389A389A1A8
:101F50009AA1009769F714C06BA17CA18DA19EA1E5
:101F60000E944900DC01CB019AA389A389A19AA10F
:101F70009E8F8D8F8D8D9E8D0197F1F79E8F8D8F0A
:101F80008CE00E948E0C80E090E0A0E8BFE3898F97
:101F90009A8FAB8FBC8F698D7A8D8B8D9C8D20E055
:101FA00030E04AEF54E40E941F02DC01CB018D8B2C
:101FB0009E8BAF8BB88F6D897E898F89988D20E03D
:101FC00030E040E85FE30E94790388232CF481E04D
:101FD00090E09C8B8B8B3FC06D897E898F89988D1B
:101FE00020E03FEF4FE757E40E94190318164CF525
:101FF000698D7A8D8B8D9C8D20E030E040E251E43C
:102000000E941F02DC01CB01BC01CD010E944900EE
:10201000DC01CB019C8B8B8B0FC088EC90E09A8B02
:10202000898B89899A890197F1F79A8B898B8B899A
:102030009C8901979C8B8B8B8B899C89009769F776
:1020400014C06D897E898F89988D0E944900DC01BA
:10205000CB019C8B8B8B8B899C89988B8F878F85F1
:1020600098890197F1F7988B8F8781E00E948E0CF9
:1020700080E090E0A0EFB1E48B879C87AD87BE87BE
:102080006B857C858D859E8520E030E04AEF54E4A9
:102090000E941F02DC01CB018F839887A987BA8732
:1020A0006F81788589859A8520E030E040E85FE39C
:1020B0000E94790388232CF481E090E09E838D8335
:1020C0003FC06F81788589859A8520E03FEF4FE793
:1020D00057E40E94190318164CF56B857C858D8595
:1020E0009E8520E030E040E251E40E941F02DC01C6
:1020F000CB01BC01CD010E944900DC01CB019E83D4
:102100008D830FC088EC90E09C838B838B819C81B6
:102110000197F1F79C838B838D819E8101979E832C
:102120008D838D819E81009769F714C06F817885BA
:1021300089859A850E944900DC01CB019E838D83AD
:102140008D819E819A83898389819A810197F1F794
:102150009A83898386E00E948E0C80E80E948E0C10
:10216000CC5ADF4F0FB6F894DEBF0FBECDBFCF9174
:10217000DF911F910F910895DF93CF9300D0CDB7DA
:10218000DEB789836A838981823018F48A818F302F
:1021900018F080E80E948E0C8981882329F48A81B6
:1021A00080580E948E0C07C08981813021F48A8179
:1021B00080540E948E0C0F900F90CF91DF91089564
:1021C000DF93CF9300D00F92CDB7DEB79B838A8386
:1021D00019820EC08981282F30E08A819B81FC0101
:1021E000E20FF31F80810E94250C89818F5F898314
:1021F0008981282F30E08A819B81FC01E20FF31F47
:102200008081882339F70F900F900F90CF91DF9145
:1022100008950F931F93DF93CF93CDB7DEB76097E9
:102220000FB6F894DEBF0FBECDBF6D877E878F8758
:10223000988B1A828D859E85AF85B8890097A105F8
:10224000B10591F580E30E94250C4DC08A81082FCD
:1022500010E08D859E85AF85B8892AE030E040E0AA
:1022600050E0BC01CD010E94AF1FDC01CB01282F43
:10227000205DCE010396FC01E00FF11F20838D85C8
:102280009E85AF85B8892AE030E040E050E0BC018F
:10229000CD010E94AF1FDA01C9018D879E87AF87EC
:1022A000B88B8A818F5F8A838D859E85AF85B8893B
:1022B0000097A105B10551F68A81898311C08981F2
:1022C000882F90E09C0121503040CE010396FC0104
:1022D000E20FF31F80810E94250C89818150898340
:1022E0008981882361F760960FB6F894DEBF0FBE30
:1022F000CDBFCF91DF911F910F910895DF93CF93C1
:10230000CDB7DEB781E06FEF0E94BF05CF91DF91BF
:102310000895DF93CF93CDB7DEB760970FB6F894EB
:10232000DEBF0FBECDBF8B87CE0101969D878C8708
:10233000E9EAF0E0FF87EE87FAE0F88BEE85FF85AB
:1023400000808E859F8501969F878E87EC85FD8511
:1023500000828C859D8501969D878C8798899150F8
:10236000988BE889EE2351F7A8E3B0E08B85282FFE
:1023700030E0CE010196FC01E20FF31F80818C93C7
:1023800060960FB6F894DEBF0FBECDBFCF91DF9140
:102390000895DF93CF93CDB7DEB727970FB6F894A4
:1023A000DEBF0FBECDBF89836A834B838981282F0F
:1023B00030E03F832E838E819F818130910521F112
:1023C0002E813F81223031052CF48E819F81009730
:1023D00061F046C02E813F812230310521F18E818E
:1023E0009F818330910571F13BC0A3E5B0E0E3E547
:1023F000F0E080818F7B8C93A3E5B0E0E3E5F0E033
:102400008081877F8C932CC0A3E5B0E0E3E5F0E00A
:10241000808180648C93A3E5B0E0E3E5F0E0808107
:10242000877F8C931DC0A3E5B0E0E3E5F0E08081F9
:102430008F7B8C93A3E5B0E0E3E5F0E080818860DA
:102440008C930EC0A3E5B0E0E3E5F0E0808180640A
:102450008C93A3E5B0E0E3E5F0E0808188608C93A5
:10246000A3E5B0E0E3E5F0E08081887F8C93A3E50D
:10247000B0E0E3E5F0E090818A81892B8C938B8139
:10248000282F30E03D832C838C819D818130910504
:1024900021F12C813D81223031052CF48C819D81EC
:1024A000009761F046C02C813D812230310521F139
:1024B0008C819D818330910571F13BC0A3E5B0E033
:1024C000E3E5F0E080818F7E8C93A3E5B0E0E3E567
:1024D000F0E080818F7D8C932CC0A3E5B0E0E3E534
:1024E000F0E0808180618C93A3E5B0E0E3E5F0E06B
:1024F00080818F7D8C931DC0A3E5B0E0E3E5F0E023
:1025000080818F7E8C93A3E5B0E0E3E5F0E08081ED
:1025100080628C930EC0A3E5B0E0E3E5F0E080813B
:1025200080618C93A3E5B0E0E3E5F0E08081806218
:102530008C9327960FB6F894DEBF0FBECDBFCF9118
:10254000DF910895DF93CF93CDB7DEB7A9E5B0E073
:10255000E9E5F0E0808181608C93CF91DF9108956F
:10256000DF93CF93CDB7DEB7A9E5B0E0E9E5F0E0C2
:1025700080818E7F8C93CF91DF910895DF93CF93ED
:10258000CDB7DEB7A9E5B0E0E9E5F0E08081826093
:102590008C93CF91DF910895DF93CF93CDB7DEB7C2
:1025A000A9E5B0E0E9E5F0E080818D7F8C93CF91E3
:1025B000DF910895DF93CF9300D0CDB7DEB79A8334
:1025C000898389819A819093B5008093B4000F909C
:1025D0000F90CF91DF910895DF93CF9300D0CDB7C7
:1025E000DEB79A83898389819A819093B70080931B
:1025F000B6000F900F90CF91DF9108951F920F9228
:102600000FB60F9211242F933F934F935F936F93C5
:102610007F938F939F93AF93BF93EF93FF93DF933A
:10262000CF93CDB7DEB78091B4009091B5000097FD
:1026300029F0E091B400F091B5000995CF91DF91B8
:10264000FF91EF91BF91AF919F918F917F916F918A
:102650005F914F913F912F910F900FBE0F901F9060
:1026600018951F920F920FB60F9211242F933F933C
:102670004F935F936F937F938F939F93AF93BF938A
:10268000EF93FF93DF93CF93CDB7DEB78091B60082
:102690009091B700009729F0E091B600F091B70053
:1026A0000995CF91DF91FF91EF91BF91AF919F91EC
:1026B0008F917F916F915F914F913F912F910F90EB
:1026C0000FBE0F901F901895DF93CF93CDB7DEB755
:1026D0002A970FB6F894DEBF0FBECDBF89836A83F9
:1026E0004B832C838A81282F30E03A87298789857C
:1026F0009A858230910509F45CC029853A8523309A
:10270000310554F489859A850097C9F029853A8561
:102710002130310589F1C0C089859A8584309105C1
:1027200009F481C029853A85243031050CF45EC056
:1027300089859A858530910509F492C0ADC0AFE4D2
:10274000B0E0EFE4F0E080818E7F8C93AFE4B0E006
:10275000EFE4F0E080818D7F8C93AEE4B0E0EEE4B6
:10276000F0E08081877F8C93AEE4B0E0EEE4F0E0AF
:1027700080818F7E8C9390C0AFE4B0E0EFE4F0E016
:10278000808181608C93AFE4B0E0EFE4F0E0808181
:1027900082608C93AEE4B0E0EEE4F0E08081877F6D
:1027A0008C93AEE4B0E0EEE4F0E080818F7E8C9319
:1027B00073C0AFE4B0E0EFE4F0E080818E7F8C93F3
:1027C000AFE4B0E0EFE4F0E080818D7F8C93AEE485
:1027D000B0E0EEE4F0E0808188608C93AEE4B0E09D
:1027E000EEE4F0E0808180618C9356C0AFE4B0E00D
:1027F000EFE4F0E080818E7F8C93AFE4B0E0EFE413
:10280000F0E080818D7F8C93AEE4B0E0EEE4F0E008
:102810008081877F8C93AEE4B0E0EEE4F0E08081CD
:1028200080618C9339C0AFE4B0E0EFE4F0E08081E8
:102830008E7F8C93AFE4B0E0EFE4F0E080818260C3
:102840008C93AEE4B0E0EEE4F0E08081877F8C937F
:10285000AEE4B0E0EEE4F0E0808180618C931CC0D7
:10286000AFE4B0E0EFE4F0E080818E7F8C93AFE4E2
:10287000B0E0EFE4F0E0808182608C93AEE4B0E001
:10288000EEE4F0E0808188608C93AEE4B0E0EEE4AA
:10289000F0E0808180618C93AEE4B0E0EEE4F0E0A3
:1028A0008081887F8C93AEE4B0E0EEE4F0E090812C
:1028B0008981892B8C938B81282F30E038872F8357
:1028C0008F8198858130910521F12F8138852230C3
:1028D00031052CF48F819885009761F046C02F81D7
:1028E00038852230310521F18F819885833091051B
:1028F00071F13BC0AFE4B0E0EFE4F0E080818F7BAA
:102900008C93AFE4B0E0EFE4F0E080818F778C93BC
:102910002CC0AFE4B0E0EFE4F0E0808180648C9301
:10292000AFE4B0E0EFE4F0E080818F778C931DC0DE
:10293000AFE4B0E0EFE4F0E080818F7B8C93AFE414
:10294000B0E0EFE4F0E0808180688C930EC0AFE4EB
:10295000B0E0EFE4F0E0808180648C93AFE4B0E01D
:10296000EFE4F0E0808180688C938C81282F30E048
:102970003E832D838D819E818130910521F12D81B2
:102980003E81223031052CF48D819E81009761F0CB
:1029900046C02D813E812230310521F18D819E81FD
:1029A0008330910571F13BC0AFE4B0E0EFE4F0E0BB
:1029B00080818F7E8C93AFE4B0E0EFE4F0E0808123
:1029C0008F7D8C932CC0AFE4B0E0EFE4F0E0808129
:1029D00080618C93AFE4B0E0EFE4F0E080818F7D24
:1029E0008C931DC0AFE4B0E0EFE4F0E080818F7E17
:1029F0008C93AFE4B0E0EFE4F0E0808180628C93F0
:102A00000EC0AFE4B0E0EFE4F0E0808180618C9331
:102A1000AFE4B0E0EFE4F0E0808180628C932A962E
:102A20000FB6F894DEBF0FBECDBFCF91DF910895F2
:102A3000DF93CF93CDB7DEB782E065E042E020E0E0
:102A40000E946413CF91DF910895DF93CF9300D05C
:102A50000F92CDB7DEB789838981282F30E03B8381
:102A60002A838A819B818230910569F02A813B818A
:102A70002330310579F4AEE4B0E0EEE4F0E080819B
:102A800080648C9307C0AEE4B0E0EEE4F0E08081B7
:102A90008F7B8C930F900F900F90CF91DF910895C3
:102AA000DF93CF93CDB7DEB7A9E5B0E0E9E5F0E07D
:102AB000808184608C93CF91DF910895DF93CF93D1
:102AC000CDB7DEB7A9E5B0E0E9E5F0E080818B7F26
:102AD0008C93CF91DF910895DF93CF93CDB7DEB77D
:102AE000A9E5B0E0E9E5F0E0808180618C93CF91C9
:102AF000DF910895DF93CF93CDB7DEB7A9E5B0E0BE
:102B0000E9E5F0E0808188608C93CF91DF910895B2
:102B1000DF93CF93CDB7DEB7A9E5B0E0E9E5F0E00C
:102B2000808188608C93CF91DF910895DF93CF935C
:102B3000CDB7DEB7A9E5B0E0E9E5F0E08081877FB9
:102B40008C93CF91DF910895DF93CF93CDB7DEB70C
:102B5000A9E5B0E0E9E5F0E0808180628C93CF9157
:102B6000DF910895DF93CF93CDB7DEB7A9E5B0E04D
:102B7000E9E5F0E080818F7D8C93CF91DF9108951E
:102B8000DF93CF9300D0CDB7DEB79A838983898155
:102B90009A819093B9008093B8000F900F90CF91D5
:102BA000DF910895DF93CF9300D0CDB7DEB79A833E
:102BB000898389819A819093BB008093BA000F909A
:102BC0000F90CF91DF910895DF93CF9300D0CDB7D1
:102BD000DEB79A83898389819A819093BD0080931F
:102BE000BC000F900F90CF91DF9108951F920F922C
:102BF0000FB60F9211242F933F934F935F936F93D0
:102C00007F938F939F93AF93BF93EF93FF93DF9344
:102C1000CF93CDB7DEB78091BC009091BD000097F7
:102C200029F0E091BC00F091BD000995CF91DF91B2
:102C3000FF91EF91BF91AF919F918F917F916F9194
:102C40005F914F913F912F910F900FBE0F901F906A
:102C500018951F920F920FB60F9211242F933F9346
:102C60004F935F936F937F938F939F93AF93BF9394
:102C7000EF93FF93DF93CF93CDB7DEB78091BA0088
:102C80009091BB00009729F0E091BA00F091BB0051
:102C90000995CF91DF91FF91EF91BF91AF919F91F6
:102CA0008F917F916F915F914F913F912F910F90F5
:102CB0000FBE0F901F9018951F920F920FB60F9294
:102CC00011242F933F934F935F936F937F938F9331
:102CD0009F93AF93BF93EF93FF93DF93CF93CDB7C2
:102CE000DEB78091B8009091B900009729F0E0918B
:102CF000B800F091B9000995CF91DF91FF91EF9164
:102D0000BF91AF919F918F917F916F915F914F9103
:102D10003F912F910F900FBE0F901F901895DF934A
:102D2000CF9300D000D00F92CDB7DEB79C838B83BA
:102D30006D8388EE93E02B813C81B9010E949B1F3B
:102D4000CB019A83898389819A81009781F0898157
:102D50009A81009741F0E6E4F0E089819A81019739
:102D60009183808304C0E6E4F0E0118210828D81BB
:102D70008536B0F4EAE4F0E08D8194E6692F0E9494
:102D80008F1F282F30E089819A81AC01249FC001D8
:102D9000259F900D349F900D11240197918380837E
:102DA0000F900F900F900F900F90CF91DF9108959B
:102DB000DF93CF93CDB7DEB78091260190912701A5
:102DC0000196909327018093260180912401909190
:102DD000250101969093250180932401809124017F
:102DE0009091250123E0883E920731F40E942F172D
:102DF00010922501109224018091260190912701C3
:102E000027E28031920751F4809128018F5F8093EF
:102E1000280110922701109226011EC080912801DE
:102E20008C3340F0809122018F5F809322011092B9
:102E3000280112C0809122018C3340F0809123013F
:102E40008F5F809323011092220106C0809123019D
:102E5000883110F010922301CF91DF9108950F93E4
:102E60001F93DF93CF93CDB7DEB7C455D0400FB6D5
:102E7000F894DEBF0FBECDBF0E944B0A8093BE0008
:102E80008091BE00882309F4CAC38091BE008133BB
:102E900009F0C2C381E060E00E94BC1061E070E014
:102EA00080E090E00E940911FE01EF5AFF4F80E0A0
:102EB00090E0AAEFB3E480839183A283B3838E0171
:102EC000035B1F4FFE01EF5AFF4F608171818281CA
:102ED000938120E030E04AEF54E40E941F02DC01BD
:102EE000CB01F80180839183A283B383FE01E35B6E
:102EF000FF4F608171818281938120E030E040E862
:102F00005FE30E947903882344F4FE01E55BFF4FF1
:102F100081E090E09183808364C0FE01E35BFF4F1A
:102F2000608171818281938120E03FEF4FE757E418
:102F30000E94190318160CF043C0FE01EF5AFF4F10
:102F4000608171818281938120E030E040E251E430
:102F50000E941F02DC01CB018E01055B1F4FBC01EB
:102F6000CD010E944900DC01CB01F80191838083EF
:102F70001FC0FE01E75BFF4F88EC90E091838083E8
:102F8000FE01E75BFF4F808191810197F1F7FE0120
:102F9000E75BFF4F91838083DE01A55BBF4FFE019E
:102FA000E55BFF4F80819181019711969C938E93F1
:102FB000FE01E55BFF4F808191810097D1F627C02C
:102FC0008E01055B1F4FFE01E35BFF4F6081718146
:102FD000828193810E944900DC01CB01F801918339
:102FE0008083DE01A95BBF4FFE01E55BFF4F80815F
:102FF00091818D939C93FE01E95BFF4F80819181CC
:103000000197F1F7FE01E95BFF4F918380830E94F6
:10301000F70C80E060E00E94BC1080E690E00E9427
:10302000E0100E944B0A8093BF008091BF0088236C
:10303000C1F381E060E00E94BC108FEB90E00E9441
:10304000E010FE01ED5BFF4F80E090E0AAEFB3E4FB
:1030500080839183A283B3838E01015C1F4FFE01A5
:10306000ED5BFF4F608171818281938120E030E0D0
:103070004AEF54E40E941F02DC01CB01F801808377
:103080009183A283B383FE01FF9660817181828167
:10309000938120E030E040E85FE30E9479038823D9
:1030A0002CF481E090E09EAF8DAF46C0FE01FF960C
:1030B000608171818281938120E03FEF4FE757E487
:1030C0000E941903181664F5FE01ED5BFF4F608145
:1030D00071818281938120E030E040E251E40E94DE
:1030E0001F02DC01CB01BC01CD010E944900DC01C3
:1030F000CB019EAF8DAF0FC088EC90E09CAF8BAF43
:103100008BAD9CAD0197F1F79CAF8BAF8DAD9EADB4
:1031100001979EAF8DAF8DAD9EAD009769F716C03C
:10312000FE01FF9660817181828193810E94490036
:10313000DC01CB019EAF8DAF8DAD9EAD9AAF89AF57
:1031400089AD9AAD0197F1F79AAF89AF0E944B0A0A
:103150008093C0008091C0008823C1F381E061E0CA
:103160000E94BC1080EC90E00E94E01080E090E0B3
:10317000A8ECB2E48DAB9EABAFABB8AF6DA97EA9A6
:103180008FA998AD20E030E04AEF54E40E941F027E
:10319000DC01CB0189AB9AABABABBCAB69A97AA91B
:1031A0008BA99CA920E030E040E85FE30E9479030E
:1031B00088232CF481E090E098AB8FA73FC069A9E9
:1031C0007AA98BA99CA920E03FEF4FE757E40E9422
:1031D000190318164CF56DA97EA98FA998AD20E0AA
:1031E00030E040E251E40E941F02DC01CB01BC014F
:1031F000CD010E944900DC01CB0198AB8FA70FC025
:1032000088EC90E09EA78DA78DA59EA50197F1F76C
:103210009EA78DA78FA598A9019798AB8FA78FA57B
:1032200098A9009769F714C069A97AA98BA99CA9E4
:103230000E944900DC01CB0198AB8FA78FA598A90C
:103240009CA78BA78BA59CA50197F1F79CA78BA7A3
:103250000E94F70C80E060E00E94BC1088E690E0DD
:103260000E94E0100E944B0A8093C1008091C1002F
:103270008823C1F381E060E00E94BC1081EC90E003
:103280000E94E01080E090E0AAEFB3E48FA398A73B
:10329000A9A7BAA76FA178A589A59AA520E030E0D3
:1032A0004AEF54E40E941F02DC01CB018BA39CA3D4
:1032B000ADA3BEA36BA17CA18DA19EA120E030E0B7
:1032C00040E85FE30E94790388232CF481E090E0DA
:1032D0009AA389A33FC06BA17CA18DA19EA120E0F0
:1032E0003FEF4FE757E40E94190318164CF56FA102
:1032F00078A589A59AA520E030E040E251E40E943B
:103300001F02DC01CB01BC01CD010E944900DC01A0
:10331000CB019AA389A30FC088EC90E098A38F8F6C
:103320008F8D98A10197F1F798A38F8F89A19AA10A
:1033300001979AA389A389A19AA1009769F714C05C
:103340006BA17CA18DA19EA10E944900DC01CB0153
:103350009AA389A389A19AA19E8F8D8F8D8D9E8D11
:103360000197F1F79E8F8D8F0E944B0A8093C200C8
:103370008091C2008823C1F381E061E00E94BC100B
:1033800082EC90E00E94E01080E090E0AAEFB3E4CD
:10339000898F9A8FAB8FBC8F698D7A8D8B8D9C8D29
:1033A00020E030E04AEF54E40E941F02DC01CB0130
:1033B0008D8B9E8BAF8BB88F6D897E898F89988D11
:1033C00020E030E040E85FE30E94790388232CF49A
:1033D00081E090E09C8B8B8B3FC06D897E898F89CB
:1033E000988D20E03FEF4FE757E40E94190318162D
:1033F0004CF5698D7A8D8B8D9C8D20E030E040E21C
:1034000051E40E941F02DC01CB01BC01CD010E94EE
:103410004900DC01CB019C8B8B8B0FC088EC90E0CA
:103420009A8B898B89899A890197F1F79A8B898B75
:103430008B899C8901979C8B8B8B8B899C890097AE
:1034400069F714C06D897E898F89988D0E94490023
:10345000DC01CB019C8B8B8B8B899C89988B8F8714
:103460008F8598890197F1F7988B8F870E94F70CC9
:1034700080E060E00E94BC1080E790E00E94E010D5
:103480008091BF00882F90E09C01220F331FC9015B
:10349000880F991F880F991F820F931F982F809173
:1034A000C000890F80518093230181E060E00E9479
:1034B000BC1080912301882F90E0A0E0B0E0BC0117
:1034C000CD010E94091181E062E00E94BC108AE3F4
:1034D0000E94250C8091C100882F90E09C01220F52
:1034E000331FC901880F991F880F991F820F931FDF
:1034F000982F8091C200890F80518093220181E032
:1035000063E00E94BC1080912201882F90E0A0E02F
:10351000B0E0BC01CD010E94091180E090E0A8EC70
:10352000B2E48B879C87AD87BE876B857C858D8554
:103530009E8520E030E04AEF54E40E941F02DC0147
:10354000CB018F839887A987BA876F817885898512
:103550009A8520E030E040E85FE30E947903882309
:103560002CF481E090E09E838D833FC06F8178854D
:1035700089859A8520E03FEF4FE757E40E941903C1
:1035800018164CF56B857C858D859E8520E030E096
:1035900040E251E40E941F02DC01CB01BC01CD01DD
:1035A0000E944900DC01CB019E838D830FC088EC13
:1035B00090E09C838B838B819C810197F1F79C83A6
:1035C0008B838D819E8101979E838D838D819E81CA
:1035D000009769F714C06F81788589859A850E9464
:1035E0004900DC01CB019E838D838D819E819A836E
:1035F000898389819A810197F1F79A83898310924F
:1036000028010E94F70C80E060E00E94BC108AE76D
:1036100090E00E94E01005C00E941D1B02C00E94A5
:103620001D1BCC5ADF4F0FB6F894DEBF0FBECDBFC7
:10363000CF91DF911F910F9108950F931F93DF9307
:10364000CF93CDB7DEB7C455D0400FB6F894DEBFE8
:103650000FBECDBFABE3B0E0EBE3F0E080818E7F47
:103660008C93ABE3B0E0EBE3F0E0808182608C937D
:10367000ABE3B0E0EBE3F0E0808184608C93ABE3FC
:10368000B0E0EBE3F0E0808188608C93ABE3B0E0E6
:10369000EBE3F0E0808180618C93ABE3B0E0EBE39F
:1036A000F0E0808180628C93809128019AE0692FFC
:1036B0000E948F1F892F0E948911FE01EF5AFF4F30
:1036C00080E090E0A0EAB0E480839183A283B3839A
:1036D0008E01035B1F4FFE01EF5AFF4F6081718126
:1036E0008281938120E030E04AEF54E40E941F027F
:1036F000DC01CB01F80180839183A283B383FE01B7
:10370000E35BFF4F608171818281938120E030E033
:1037100040E85FE30E947903882344F4FE01E55BFF
:10372000FF4F81E090E09183808364C0FE01E35B02
:10373000FF4F608171818281938120E03FEF4FE7ED
:1037400057E40E94190318160CF043C0FE01EF5A0B
:10375000FF4F608171818281938120E030E040E2FF
:1037600051E40E941F02DC01CB018E01055B1F4F5B
:10377000BC01CD010E944900DC01CB01F80191831D
:1037800080831FC0FE01E75BFF4F88EC90E09183D0
:103790008083FE01E75BFF4F808191810197F1F704
:1037A000FE01E75BFF4F91838083DE01A55BBF4F86
:1037B000FE01E55BFF4F80819181019711969C93FB
:1037C0008E93FE01E55BFF4F808191810097D1F6DA
:1037D00027C08E01055B1F4FFE01E35BFF4F608139
:1037E0007181828193810E944900DC01CB01F80143
:1037F00091838083DE01A95BBF4FFE01E55BFF4F34
:10380000808191818D939C93FE01E95BFF4F8081C4
:1038100091810197F1F7FE01E95BFF4F918380836E
:10382000ABE3B0E0EBE3F0E0808181608C93ABE34D
:10383000B0E0EBE3F0E080818D7F8C93ABE3B0E010
:10384000EBE3F0E0808184608C93ABE3B0E0EBE3EA
:10385000F0E0808188608C93ABE3B0E0EBE3F0E0D4
:10386000808180618C93ABE3B0E0EBE3F0E080819A
:1038700080628C93809128019AE0692F0E948F1FAB
:103880000E948911FE01ED5BFF4F80E090E0A0EA0D
:10389000B0E480839183A283B3838E01015C1F4FC8
:1038A000FE01ED5BFF4F608171818281938120E099
:1038B00030E04AEF54E40E941F02DC01CB01F80122
:1038C00080839183A283B383FE01FF96608171811F
:1038D0008281938120E030E040E85FE30E94790339
:1038E00088232CF481E090E09EAF8DAF46C0FE01AE
:1038F000FF96608171818281938120E03FEF4FE7E5
:1039000057E40E941903181664F5FE01ED5BFF4FA2
:10391000608171818281938120E030E040E251E456
:103920000E941F02DC01CB01BC01CD010E944900B5
:10393000DC01CB019EAF8DAF0FC088EC90E09CAF57
:103940008BAF8BAD9CAD0197F1F79CAF8BAF8DAD7D
:103950009EAD01979EAF8DAF8DAD9EAD009769F77F
:1039600016C0FE01FF9660817181828193810E9461
:103970004900DC01CB019EAF8DAF8DAD9EAD9AAFFE
:1039800089AF89AD9AAD0197F1F79AAF89AFABE3F3
:10399000B0E0EBE3F0E0808181608C93ABE3B0E0DA
:1039A000EBE3F0E0808182608C93ABE3B0E0EBE38B
:1039B000F0E080818B7F8C93ABE3B0E0EBE3F0E051
:1039C000808188608C93ABE3B0E0EBE3F0E0808132
:1039D00080618C93ABE3B0E0EBE3F0E08081806248
:1039E0008C93809122019AE0692F0E948F1F892F6A
:1039F0000E94891180E090E0A0EAB0E48DAB9EAB1C
:103A0000AFABB8AF6DA97EA98FA998AD20E030E02B
:103A10004AEF54E40E941F02DC01CB0189AB9AAB50
:103A2000ABABBCAB69A97AA98BA99CA920E030E01B
:103A300040E85FE30E94790388232CF481E090E062
:103A400098AB8FA73FC069A97AA98BA99CA920E050
:103A50003FEF4FE757E40E94190318164CF56DA984
:103A60007EA98FA998AD20E030E040E251E40E94A9
:103A70001F02DC01CB01BC01CD010E944900DC0129
:103A8000CB0198AB8FA70FC088EC90E09EA78DA7C5
:103A90008DA59EA50197F1F79EA78DA78FA598A943
:103AA000019798AB8FA78FA598A9009769F714C0C5
:103AB00069A97AA98BA99CA90E944900DC01CB01C4
:103AC00098AB8FA78FA598A99CA78BA78BA59CA522
:103AD0000197F1F79CA78BA7ABE3B0E0EBE3F0E035
:103AE000808181608C93ABE3B0E0EBE3F0E0808118
:103AF00082608C93ABE3B0E0EBE3F0E08081846024
:103B00008C93ABE3B0E0EBE3F0E08081877F8C93B4
:103B1000ABE3B0E0EBE3F0E0808180618C93ABE35A
:103B2000B0E0EBE3F0E0808180628C938091220131
:103B30009AE0692F0E948F1F0E94891180E090E017
:103B4000A0EAB0E48FA398A7A9A7BAA76FA178A508
:103B500089A59AA520E030E04AEF54E40E941F02B4
:103B6000DC01CB018BA39CA3ADA3BEA36BA17CA165
:103B70008DA19EA120E030E040E85FE30E94790340
:103B800088232CF481E090E09AA389A33FC06BA125
:103B90007CA18DA19EA120E03FEF4FE757E40E945A
:103BA000190318164CF56FA178A589A59AA520E0F0
:103BB00030E040E251E40E941F02DC01CB01BC0175
:103BC000CD010E944900DC01CB019AA389A30FC05B
:103BD00088EC90E098A38F8F8F8D98A10197F1F7D3
:103BE00098A38F8F89A19AA101979AA389A389A1EC
:103BF0009AA1009769F714C06BA17CA18DA19EA129
:103C00000E944900DC01CB019AA389A389A19AA152
:103C10009E8F8D8F8D8D9E8D0197F1F79E8F8D8F4D
:103C2000ABE3B0E0EBE3F0E0808181608C93ABE349
:103C3000B0E0EBE3F0E0808182608C93ABE3B0E036
:103C4000EBE3F0E0808184608C93ABE3B0E0EBE3E6
:103C5000F0E0808188608C93ABE3B0E0EBE3F0E0D0
:103C600080818F7E8C93ABE3B0E0EBE3F0E080816A
:103C700080628C93809123019AE0692F0E948F1FAC
:103C8000892F0E94891180E090E0A0EAB0E4898F3A
:103C90009A8FAB8FBC8F698D7A8D8B8D9C8D20E038
:103CA00030E04AEF54E40E941F02DC01CB018D8B0F
:103CB0009E8BAF8BB88F6D897E898F89988D20E020
:103CC00030E040E85FE30E94790388232CF481E030
:103CD00090E09C8B8B8B3FC06D897E898F89988DFE
:103CE00020E03FEF4FE757E40E94190318164CF508
:103CF000698D7A8D8B8D9C8D20E030E040E251E41F
:103D00000E941F02DC01CB01BC01CD010E944900D1
:103D1000DC01CB019C8B8B8B0FC088EC90E09A8BE5
:103D2000898B89899A890197F1F79A8B898B8B897D
:103D30009C8901979C8B8B8B8B899C89009769F759
:103D400014C06D897E898F89988D0E944900DC019D
:103D5000CB019C8B8B8B8B899C89988B8F878F85D4
:103D600098890197F1F7988B8F87ABE3B0E0EBE38D
:103D7000F0E0808181608C93ABE3B0E0EBE3F0E0B6
:103D8000808182608C93ABE3B0E0EBE3F0E0808174
:103D900084608C93ABE3B0E0EBE3F0E0808188607B
:103DA0008C93ABE3B0E0EBE3F0E0808180618C9337
:103DB000ABE3B0E0EBE3F0E080818F7D8C9380910A
:103DC00023019AE0692F0E948F1F0E94891180E0D1
:103DD00090E0A0EAB0E48B879C87AD87BE876B85B7
:103DE0007C858D859E8520E030E04AEF54E40E947A
:103DF0001F02DC01CB018F839887A987BA876F8167
:103E0000788589859A8520E030E040E85FE30E946C
:103E1000790388232CF481E090E09E838D833FC05A
:103E20006F81788589859A8520E03FEF4FE757E4D9
:103E30000E94190318164CF56B857C858D859E852F
:103E400020E030E040E251E40E941F02DC01CB019F
:103E5000BC01CD010E944900DC01CB019E838D8312
:103E60000FC088EC90E09C838B838B819C810197B1
:103E7000F1F79C838B838D819E8101979E838D8337
:103E80008D819E81009769F714C06F81788589853F
:103E90009A850E944900DC01CB019E838D838D8130
:103EA0009E819A83898389819A810197F1F79A8308
:103EB0008983CC5ADF4F0FB6F894DEBF0FBECDBF5B
:103EC000CF91DF911F910F910895DF93CF93CDB7DD
:103ED000DEB70E947F0D0E94F4090E94A3050E9494
:103EE0007E1180E060E00E94BC108AE790E00E94B2
:103EF000E01082E062E040E00E94C91180E06FEFD4
:103F00000E94BF05ECE5F0E083E680830E94BE12CC
:103F100088ED96E10E94EC120E941D1BFDCF991BBB
:103F200079E004C0991F961708F0961B881F7A95B0
:103F3000C9F780950895AA1BBB1B51E107C0AA1FB2
:103F4000BB1FA617B70710F0A61BB70B881F991F3A
:103F50005A95A9F780959095BC01CD010895A1E2ED
:103F60001A2EAA1BBB1BFD010DC0AA1FBB1FEE1FF3
:103F7000FF1FA217B307E407F50720F0A21BB30B3E
:103F8000E40BF50B661F771F881F991F1A9469F7BA
:103F900060957095809590959B01AC01BD01CF0116
:103FA00008952F923F924F925F926F927F928F92DD
:103FB0009F92AF92BF92CF92DF92EF92FF920F93B8
:103FC0001F93CF93DF93CDB7DEB7CA1BDB0B0FB6C2
:103FD000F894DEBF0FBECDBF09942A88398848887F
:103FE0005F846E847D848C849B84AA84B984C88415
:103FF000DF80EE80FD800C811B81AA81B981CE0F0C
:10400000D11D0FB6F894DEBF0FBECDBFED010895F0
:04401000F894FFCF52
:104014005365742048727300536574204D696E00B3
:1040240054686520436C6F636B00436C69636B2059
:104034006F6E6520746F2053657420436C6F636BDF
:104044000000000000000000003738392F343536F6
:104054002A3132332D3F303D2B7E306D79335B5F17
:04406400707F7B00EE
:00000001FF
