:100000000C942A000C943C000C943C000C943C0092
:100010000C943C000C943C000C943C000C943C0070
:100020000C943C000C943C000C943C000C94B205E5
:100030000C943C000C943C000C943C000C943C0050
:100040000C943C000C943C000C943C000C943C0040
:100050000C943C0011241FBECFE5D8E0DEBFCDBF1D
:1000600010E0A0E6B0E001C01D92A636B107E1F7AE
:100070000E942F060C944F060C940000DF93CF9340
:10008000CDB7DEB7AFE5B0E0EFE5F0E080818068A6
:100090008C93CF91DF910895DF93CF93CDB7DEB7E7
:1000A000AFE5B0E0EFE5F0E080818F778C93CF9102
:1000B000DF910895DF93CF9300D000D0CDB7DEB7A6
:1000C00089836A838981843090F58981282F30E083
:1000D0003C832B838B819C8181309105D1F02B81D6
:1000E0003C81223031052CF48B819C81009761F09A
:1000F0001EC02B813C812230310581F08B819C8197
:100100008330910581F013C0EAE3F0E08A818083B7
:100110000EC0E7E3F0E08A81808309C0E4E3F0E009
:100120008A81808304C0E1E3F0E08A8180830F90BC
:100130000F900F900F90CF91DF910895DF93CF93A1
:1001400000D000D0CDB7DEB789836A83898184303F
:1001500090F58981282F30E03C832B838B819C8113
:1001600081309105D1F02B813C81223031052CF476
:100170008B819C81009761F01EC02B813C812230D5
:10018000310581F08B819C818330910581F013C012
:10019000EBE3F0E08A8180830EC0E8E3F0E08A813F
:1001A000808309C0E5E3F0E08A81808304C0E2E354
:1001B000F0E08A8180830F900F900F900F90CF9185
:1001C000DF910895DF93CF9300D000D0CDB7DEB795
:1001D0008A838A81843090F58A81282F30E03C839D
:1001E0002B838B819C8181309105D1F02B813C81C7
:1001F000223031052CF48B819C81009761F01EC068
:100200002B813C812230310581F08B819C818330B0
:10021000910581F013C0EBE3F0E0808189830EC08B
:10022000E8E3F0E08081898309C0E5E3F0E08081C4
:10023000898304C0E2E3F0E08081898389810F90A3
:100240000F900F900F90CF91DF910895DF93CF9390
:1002500000D000D00F92CDB7DEB789836A834B837D
:100260008981843008F0D1C08981282F30E03D8316
:100270002C838C819D818130910509F443C02C81B0
:100280003D81223031052CF48C819D81009771F0E5
:10029000BCC02C813D812230310509F45FC08C81C6
:1002A0009D818330910509F485C0AFC08B81813079
:1002B000A1F4AAE3B0E0EAE3F0E08081482F8A816C
:1002C000282F30E081E090E0022E02C0880F991FB5
:1002D0000A94E2F7842B8C9398C0AAE3B0E0EAE397
:1002E000F0E08081482F8A81282F30E081E090E083
:1002F000022E02C0880F991F0A94E2F7809584238A
:100300008C9383C08B818130A1F4A7E3B0E0E7E355
:10031000F0E08081482F8A81282F30E081E090E052
:10032000022E02C0880F991F0A94E2F7842B8C9347
:100330006CC0A7E3B0E0E7E3F0E08081482F8A815A
:10034000282F30E081E090E0022E02C0880F991F34
:100350000A94E2F7809584238C9357C08B81813077
:10036000A1F4A4E3B0E0E4E3F0E08081482F8A81C7
:10037000282F30E081E090E0022E02C0880F991F04
:100380000A94E2F7842B8C9340C0A4E3B0E0E4E34A
:10039000F0E08081482F8A81282F30E081E090E0D2
:1003A000022E02C0880F991F0A94E2F780958423D9
:1003B0008C932BC08B818130A1F4A1E3B0E0E1E309
:1003C000F0E08081482F8A81282F30E081E090E0A2
:1003D000022E02C0880F991F0A94E2F7842B8C9397
:1003E00014C0A1E3B0E0E1E3F0E08081482F8A810E
:1003F000282F30E081E090E0022E02C0880F991F84
:100400000A94E2F7809584238C930F900F900F90BD
:100410000F900F90CF91DF910895DF93CF9300D08D
:1004200000D00F92CDB7DEB789836A834B83898171
:10043000843008F0D1C08981282F30E03D832C839F
:100440008C819D818130910509F443C02C813D81CF
:10045000223031052CF48C819D81009771F0BCC055
:100460002C813D812230310509F45FC08C819D8152
:100470008330910509F485C0AFC08B818130A1F430
:10048000ABE3B0E0EBE3F0E08081482F8A81282FD6
:1004900030E081E090E0022E02C0880F991F0A949C
:1004A000E2F7842B8C9398C0ABE3B0E0EBE3F0E091
:1004B0008081482F8A81282F30E081E090E0022E51
:1004C00002C0880F991F0A94E2F7809584238C93C9
:1004D00083C08B818130A1F4A8E3B0E0E8E3F0E0D1
:1004E0008081482F8A81282F30E081E090E0022E21
:1004F00002C0880F991F0A94E2F7842B8C936CC07A
:10050000A8E3B0E0E8E3F0E08081482F8A81282F5B
:1005100030E081E090E0022E02C0880F991F0A941B
:10052000E2F7809584238C9357C08B818130A1F4AE
:10053000A5E3B0E0E5E3F0E08081482F8A81282F31
:1005400030E081E090E0022E02C0880F991F0A94EB
:10055000E2F7842B8C9340C0A5E3B0E0E5E3F0E044
:100560008081482F8A81282F30E081E090E0022EA0
:1005700002C0880F991F0A94E2F7809584238C9318
:100580002BC08B818130A1F4A2E3B0E0E2E3F0E084
:100590008081482F8A81282F30E081E090E0022E70
:1005A00002C0880F991F0A94E2F7842B8C9314C021
:1005B000A2E3B0E0E2E3F0E08081482F8A81282FB7
:1005C00030E081E090E0022E02C0880F991F0A946B
:1005D000E2F7809584238C930F900F900F900F90EB
:1005E0000F90CF91DF910895DF93CF9300D000D08B
:1005F0000F92CDB7DEB78A836B838A81843008F08F
:1006000067C08A81282F30E03D832C834C815D8137
:100610004130510541F18C819D818230910534F446
:100620002C813D812115310561F052C04C815D81E5
:100630004230510551F18C819D8183309105B9F192
:1006400047C0E9E3F0E08081282F30E08B81882FDC
:1006500090E0A90102C0559547958A95E2F7CA0135
:100660008170898335C0E6E3F0E08081282F30E097
:100670008B81882F90E0A90102C0559547958A95F6
:10068000E2F7CA018170898323C0E3E3F0E080814F
:10069000282F30E08B81882F90E0A90102C055956A
:1006A00047958A95E2F7CA018170898311C0E0E31A
:1006B000F0E08081282F30E08B81882F90E0A90125
:1006C00002C0559547958A95E2F7CA0181708983E2
:1006D00089810F900F900F900F900F90CF91DF9125
:1006E0000895DF93CF9300D000D0CDB7DEB78A83D3
:1006F0008A81843090F58A81282F30E03C832B83D7
:100700008B819C8181309105D1F02B813C812230FD
:1007100031052CF48B819C81009761F01EC02B81E8
:100720003C812230310581F08B819C8183309105A1
:1007300081F013C0EAE3F0E0808189830EC0E7E333
:10074000F0E08081898309C0E4E3F0E0808189835F
:1007500004C0E1E3F0E08081898389810F900F90EC
:100760000F900F90CF91DF910895DF93CF9300D03A
:1007700000D00F92CDB7DEB78A836B838A81843035
:1007800008F067C08A81282F30E03D832C834C819C
:100790005D814130510541F18C819D81823091050F
:1007A00034F42C813D812115310561F052C04C811A
:1007B0005D814230510551F18C819D8183309105DD
:1007C000B9F147C0EAE3F0E08081282F30E08B8167
:1007D000882F90E0A90102C0559547958A95E2F7C8
:1007E000CA018170898335C0E7E3F0E08081282F5A
:1007F00030E08B81882F90E0A90102C05595479584
:100800008A95E2F7CA018170898323C0E4E3F0E0AE
:100810008081282F30E08B81882F90E0A90102C0D1
:10082000559547958A95E2F7CA018170898311C071
:10083000E1E3F0E08081282F30E08B81882F90E089
:10084000A90102C0559547958A95E2F7CA018170C2
:10085000898380E00F900F900F900F900F90CF91B1
:10086000DF910895DF93CF9300D000D0CDB7DEB7EE
:1008700089836A838981843008F04AC08981282F5E
:1008800030E03C832B838B819C818130910501F189
:100890002B813C81223031052CF48B819C81009787
:1008A00061F036C02B813C8122303105E1F08B8133
:1008B0009C818330910511F12BC080E06A8140E07A
:1008C0000E94260180E06A8141E00E940D0220C062
:1008D00081E06A8140E00E94260181E06A8141E076
:1008E0000E940D0215C082E06A8140E00E9426014C
:1008F00082E06A8141E00E940D020AC083E06A81C1
:1009000040E00E94260183E06A8141E00E940D02DE
:100910000F900F900F900F90CF91DF910895DF937C
:10092000CF93CDB7DEB727970FB6F894DEBF0FBED3
:10093000CDBF89836A834B838981282F30E03F8331
:100940002E838E819F818130910521F12E813F81FF
:10095000223031052CF48E819F81009761F046C0D2
:100960002E813F812230310521F18E819F8183309C
:10097000910571F13BC0A3E5B0E0E3E5F0E08081D3
:100980008F7B8C93A3E5B0E0E3E5F0E08081877F87
:100990008C932CC0A3E5B0E0E3E5F0E080818064B7
:1009A0008C93A3E5B0E0E3E5F0E08081877F8C9352
:1009B0001DC0A3E5B0E0E3E5F0E080818F7B8C9380
:1009C000A3E5B0E0E3E5F0E0808188608C930EC0A1
:1009D000A3E5B0E0E3E5F0E0808180648C93A3E5DB
:1009E000B0E0E3E5F0E0808188608C93A3E5B0E0BF
:1009F000E3E5F0E08081887F8C93A3E5B0E0E3E558
:100A0000F0E090818A81892B8C938B81282F30E0B4
:100A10003D832C838C819D818130910521F12C8136
:100A20003D81223031052CF48C819D81009761F04D
:100A300046C02C813D812230310521F18C819D8180
:100A40008330910571F13BC0A3E5B0E0E3E5F0E050
:100A500080818F7E8C93A3E5B0E0E3E5F0E08081B8
:100A60008F7D8C932CC0A3E5B0E0E3E5F0E08081BE
:100A700080618C93A3E5B0E0E3E5F0E080818F7DB9
:100A80008C931DC0A3E5B0E0E3E5F0E080818F7EAC
:100A90008C93A3E5B0E0E3E5F0E0808180628C9385
:100AA0000EC0A3E5B0E0E3E5F0E0808180618C93C7
:100AB000A3E5B0E0E3E5F0E0808180628C932796C7
:100AC0000FB6F894DEBF0FBECDBFCF91DF91089572
:100AD000DF93CF93CDB7DEB7A9E5B0E0E9E5F0E06D
:100AE000808181608C93CF91DF910895DF93CF93C4
:100AF000CDB7DEB7A9E5B0E0E9E5F0E080818E7F13
:100B00008C93CF91DF910895DF93CF93CDB7DEB76C
:100B1000A9E5B0E0E9E5F0E0808182608C93CF91B7
:100B2000DF910895DF93CF93CDB7DEB7A9E5B0E0AD
:100B3000E9E5F0E080818D7F8C93CF91DF9108957E
:100B4000DF93CF9300D0CDB7DEB79A8389838981B5
:100B50009A8190936100809360000F900F90CF91E5
:100B6000DF9108951F920F920FB60F9211242F93C9
:100B70003F934F935F936F937F938F939F93AF9325
:100B8000BF93EF93FF93DF93CF93CDB7DEB7809101
:100B9000600090916100009729F0E0916000F09171
:100BA00061000995CF91DF91FF91EF91BF91AF91D6
:100BB0009F918F917F916F915F914F913F912F9175
:100BC0000F900FBE0F901F901895DF93CF93CDB766
:100BD000DEB78091620090916300A0916400B091B3
:100BE00065000196A11DB11D809362009093630082
:100BF000A0936400B0936500E2E5F0E088E38083B1
:100C00008091620090916300A0916400B0916500B2
:100C100084309105A105B10529F480E060E041E050
:100C20000E940D028091620090916300A091640087
:100C3000B091650085309105A105B10569F480E0AA
:100C400060E040E00E940D0210926200109263008A
:100C50001092640010926500CF91DF910895DF93A8
:100C6000CF93CDB7DEB780E060E041E00E9426017F
:100C700081E062E041E00E9426010E943E000E9465
:100C80006805E2E5F0E088E3808380E062E040E030
:100C90000E948F0485EE95E00E94A005FFCFF89496
:020CA000FFCF84
:00000001FF
