:100000000C942A000C9447000C9447000C94470071
:100010000C9447000C9447000C9447000C94470044
:100020000C9447000C9447000C9447000C94470034
:100030000C9447000C94BD110C9447000C948A1149
:100040000C9447000C9447000C9447000C94470014
:100050000C94470011241FBECFE5D8E0DEBFCDBF12
:1000600010E0A0E6B0E0E0EFF4E202C005900D92EF
:10007000A63BB107D9F710E0A6EBB0E001C01D9296
:10008000AF3BB107E1F70E94F0110C9476120C948B
:100090000000EF92FF920F931F937B018C0120E0F1
:1000A00030E040E05FE40E94F50388238CF0C80153
:1000B000B70120E030E040E05FE40E94C1010E940F
:1000C00055049B01AC01205030404040504806C0D0
:1000D000C801B7010E9455049B01AC01B901CA01D6
:1000E0001F910F91FF90EF900895A0E0B0E0EBE733
:1000F000F0E00C943F12DC012B01FA019C9192304C
:1001000008F439C1EB018881823008F433C194309E
:1001100069F4843009F02FC111969C91119789815F
:10012000981709F428C1A5E6B0E025C1843009F488
:1001300021C18230A9F4923009F01DC19A01AD01AC
:1001400088E0EA010990AE01E90109929E0181501F
:10015000C1F7E201898111969C918923818308C1AD
:10016000923009F407C112962D903C901397EB0141
:100170008A819B811496AD90BD90CD90DC901797AD
:10018000EC80FD800E811F819101281B390BB90184
:1001900037FF04C066277727621B730B6032710537
:1001A0000CF061C0121613066CF537014801062EDB
:1001B00004C096948794779467940A94D2F721E0C8
:1001C00030E040E050E004C0220F331F441F551FB1
:1001D0006A95D2F721503040404050402E213F21B7
:1001E00040235123211531054105510521F021E01E
:1001F00030E040E050E079018A01E628F72808293C
:1002000019293CC0232BD1F1260E371E350146019A
:10021000062E04C096948794779467940A94D2F734
:1002200021E030E040E050E004C0220F331F441FC3
:10023000551F6A95D2F721503040404050402A2146
:100240003B214C215D21211531054105510521F04E
:1002500021E030E040E050E059016A01A628B728CB
:10026000C828D9280BC0821593052CF01C01AA249C
:10027000BB24650103C0EE24FF24870111969C91E5
:10028000D20111968C91981709F445C0992339F041
:10029000A80197012A193B094C095D0906C0A6016E
:1002A00095012E193F09400B510B57FD08C01182D3
:1002B0003382228224833583468357831DC081E0A5
:1002C00081833382228288279927DC01821B930B4A
:1002D000A40BB50B84839583A683B7830DC0220F2F
:1002E000331F441F551F24833583468357838281E0
:1002F000938101979383828324813581468157813D
:10030000DA01C9010197A109B1098F5F9F4FAF4F72
:10031000BF4328F30BC0918333822282EA0CFB1C7B
:100320000C1D1D1DE482F5820683178383E0808304
:10033000248135814681578157FF1AC0C901AA27F8
:1003400097FDA095BA2F81709070A070B0705695EF
:10035000479537952795822B932BA42BB52B848318
:100360009583A683B7838281938101969383828349
:10037000DF0101C0D201CD01CDB7DEB7E2E10C94BF
:100380005B12A0E2B0E0E7ECF1E00C944B12698361
:100390007A838B839C832D833E834F835887E9E048
:1003A000EE2EF12CEC0EFD1ECE010196B7010E943F
:1003B0007E058E010F5E1F4FCE010596B8010E948B
:1003C0007E058A8991E089278A8BC701B801AE0131
:1003D000475E5F4F0E9475000E94A904A096E6E068
:1003E0000C946712A0E2B0E0E8EFF1E00C944B123D
:1003F00069837A838B839C832D833E834F835887C5
:10040000F9E0EF2EF12CEC0EFD1ECE010196B701A6
:100410000E947E058E010F5E1F4FCE010596B8012A
:100420000E947E05C701B801AE01475E5F4F0E9482
:1004300075000E94A904A096E6E00C946712A0E261
:10044000B0E0E5E2F2E00C943F1269837A838B839B
:100450009C832D833E834F835887CE010196BE0136
:10046000675F7F4F0E947E05CE010596BE016F5EDD
:100470007F4F0E947E059985923088F0898982306D
:10048000C8F0943019F4823051F404C0843029F457
:10049000923081F485E690E0C6C0923049F420E0C5
:1004A0009A858A89981321E02A87CE010996BBC0D4
:1004B000823049F420E09A858A89981321E02A8BBA
:1004C000CE014196B0C02D843E844F8458886D88FB
:1004D0007E888F88988CEE24FF248701AA24BB2471
:1004E000650140E050E060E070E0E0E0F0E0C10174
:1004F00081709070892BE9F0E60CF71C081D191D1E
:100500009A01AB012A0D3B1D4C1D5D1D80E090E062
:10051000A0E0B0E0E614F7040805190520F481E036
:1005200090E0A0E0B0E0BA01A901480F591F6A1F8E
:100530007B1FAA0CBB1CCC1CDD1C97FE08C081E0F5
:1005400090E0A0E0B0E0A82AB92ACA2ADB2A3196B6
:10055000E032F10549F0660C771C881C991C569412
:10056000479437942794C3CFFA85EA892B893C892D
:100570008B859C85280F391F2E5F3F4F17C0CA01FE
:1005800081709070892B61F016950795F794E79428
:1005900080E090E0A0E0B0E8E82AF92A0A2B1B2BC3
:1005A00076956795579547952F5F3F4F77FDE7CF36
:1005B0000CC0440F551F661F771F17FD4160EE0CDE
:1005C000FF1C001F111F21503040403090E05907A0
:1005D00090E0690790E4790760F32B8F3C8FDB0193
:1005E000CA018F779070A070B07080349105A1051A
:1005F000B10561F447FD0AC0E114F10401051105DC
:1006000029F0405C5F4F6F4F7F4F40781A8EFE1786
:1006100011F081E08A8F4D8F5E8F6F8F78A383E01A
:10062000898FCE0149960E94A904A096E2E10C941C
:100630005B12A8E1B0E0EFE1F3E00C9447126983AC
:100640007A838B839C832D833E834F835887B9E0C5
:10065000EB2EF12CEC0EFD1ECE010196B7010E948F
:100660007E058E010F5E1F4FCE010596B8010E94D8
:100670007E052985223008F47EC03989323010F495
:10068000B8017CC08A859A8989278A87243011F02D
:10069000223031F4231709F06EC065E670E06EC0B9
:1006A000343039F41D861E861F86188A1C861B86E8
:1006B00004C0323021F484E08987B7015FC02B8504
:1006C0003C858B899C89281B390B3C872B87ED84C3
:1006D000FE840F851889AD88BE88CF88D88CEA142F
:1006E000FB040C051D0540F4EE0CFF1C001F111F40
:1006F000215030403C872B8720E030E040E050E044
:1007000080E090E0A0E0B0E460E070E0EA14FB0478
:100710000C051D0540F0282B392B4A2B5B2BEA18C2
:10072000FB080C091D09B695A79597958795EE0CC2
:10073000FF1C001F111F6F5F7F4F6F31710531F775
:10074000DA01C9018F779070A070B0708034910584
:10075000A105B10561F427FD0AC0E114F10401050A
:10076000110529F0205C3F4F4F4F5F4F20782D87B8
:100770003E874F87588BBE01675F7F4FCB010E943A
:10078000A9046896EAE00C946312A8E1B0E0EBECEF
:10079000F3E00C944B1269837A838B839C832D83C3
:1007A0003E834F83588789E0E82EF12CEC0EFD1E26
:1007B000CE010196B7010E947E058E010F5E1F4F8C
:1007C000CE010596B8010E947E058985823040F0F1
:1007D0008989823028F0C701B8010E94F60501C05E
:1007E0008FEF6896E6E00C946712A8E1B0E0EBEFBB
:1007F000F3E00C944B1269837A838B839C832D8363
:100800003E834F83588789E0E82EF12CEC0EFD1EC5
:10081000CE010196B7010E947E058E010F5E1F4F2B
:10082000CE010596B8010E947E058985823040F090
:100830008989823028F0C701B8010E94F60501C0FD
:100840008FEF6896E6E00C946712A8E1B0E0EBE267
:10085000F4E00C944B1269837A838B839C832D8301
:100860003E834F83588789E0E82EF12CEC0EFD1E65
:10087000CE010196B7010E947E058E010F5E1F4FCB
:10088000CE010596B8010E947E058985823040F030
:100890008989823028F0C701B8010E94F60501C09D
:1008A00081E06896E6E00C946712ACE0B0E0EBE51E
:1008B000F4E00C944F1269837A838B839C83CE017E
:1008C0000196BE016B5F7F4F0E947E058D81823055
:1008D00061F1823050F1843021F48E81882351F10E
:1008E0002EC02F81388537FD20C06E812F31310514
:1008F0001CF06623F9F023C08EE190E0821B930B7D
:1009000029853A854B855C8504C056954795379572
:1009100027958A95D2F76623B1F05095409530958A
:1009200021953F4F4F4F5F4F0EC020E030E040E039
:1009300050E009C02FEF3FEF4FEF5FE704C020E02A
:1009400030E040E050E8B901CA012C96E2E00C9496
:100950006B12DF92EF92FF920F931F93FC01E480E2
:10096000F58006811781D1808081823048F480E053
:1009700090E0A0E1B0E0E82AF92A0A2B1B2BA5C0E1
:10098000843009F49FC0823021F4EE24FF248701D3
:1009900005C0E114F1040105110519F4E0E0F0E0EF
:1009A00096C0628173819FEF623879070CF05BC05B
:1009B00022E83FEF261B370B2A3131052CF020E0CF
:1009C00030E040E050E02AC0B801A701022E04C088
:1009D00076956795579547950A94D2F781E090E010
:1009E000A0E0B0E004C0880F991FAA1FBB1F2A9582
:1009F000D2F70197A109B1098E219F21A023B1232C
:100A00000097A105B10521F081E090E0A0E0B0E001
:100A10009A01AB01282B392B4A2B5B2BDA01C90138
:100A20008F779070A070B07080349105A105B105EA
:100A300039F427FF09C0205C3F4F4F4F5F4F04C080
:100A4000215C3F4F4F4F5F4FE0E0F0E02030A0E0EF
:100A50003A07A0E04A07A0E45A0710F0E1E0F0E00E
:100A600079018A0127C06038710564F5FB01E158FE
:100A7000FF4FD801C7018F779070A070B07080349D
:100A80009105A105B10539F4E7FE0DC080E490E0C1
:100A9000A0E0B0E004C08FE390E0A0E0B0E0E80E9A
:100AA000F91E0A1F1B1F17FF05C016950795F7941F
:100AB000E794319687E016950795F794E7948A9521
:100AC000D1F705C0EE24FF248701EFEFF0E06E2F91
:100AD000679566276795902F9F77D794DD24D794E5
:100AE0008E2F8695492F462B582F5D29B701CA01B5
:100AF0001F910F91FF90EF90DF900895FC01DB01B3
:100B0000408151812281622F6F7770E0221F22275E
:100B1000221F9381892F880F822B282F30E0991F65
:100B20009927991F11969C93119721153105A9F5C5
:100B3000411551056105710511F482E037C082E865
:100B40009FEF13969C938E9312979A01AB0167E0E7
:100B5000220F331F441F551F6A95D1F783E08C93F2
:100B60000DC0220F331F441F551F12968D919C916B
:100B70001397019713969C938E931297203080E0E1
:100B8000380780E0480780E4580758F314962D93FF
:100B90003D934D935C93179708952F3F310579F45A
:100BA000411551056105710519F484E08C93089590
:100BB00064FF03C081E08C9312C01C9210C02F57B9
:100BC000304013963C932E93129783E08C9387E0EA
:100BD000440F551F661F771F8A95D1F770641496CE
:100BE0004D935D936D937C93179708951F93DC014C
:100BF000FB019C91923008F447C08081823008F458
:100C000043C0943051F411961C91843099F5818140
:100C1000682F70E0611B71093FC0843021F0923071
:100C200031F48230B9F18181882389F12DC0119688
:100C30001C9111978230F1F081811817D9F4129626
:100C40002D913C911397828193818217930794F0A1
:100C500028173907BCF014968D919D910D90BC9189
:100C6000A02D2481358146815781281739074A07ED
:100C70005B0718F4112341F00AC082179307A407F9
:100C8000B50740F4112319F061E070E005C06FEF83
:100C90007FEF02C060E070E0CB011F910895DF9309
:100CA000CF93CDB7DEB7AFE5B0E0EFE5F0E0808100
:100CB00080688C93CF91DF910895DF93CF93CDB768
:100CC000DEB7AFE5B0E0EFE5F0E080818F778C93A1
:100CD000CF91DF910895DF93CF9300D000D0CDB7AF
:100CE000DEB789836A838981843090F58981282FD2
:100CF00030E03C832B838B819C8181309105D1F046
:100D00002B813C81223031052CF48B819C81009712
:100D100061F01EC02B813C812230310581F08B8136
:100D20009C818330910581F013C0EAE3F0E08A8171
:100D300080830EC0E7E3F0E08A81808309C0E4E3AA
:100D4000F0E08A81808304C0E1E3F0E08A8180835F
:100D50000F900F900F900F90CF91DF910895DF9338
:100D6000CF9300D000D0CDB7DEB789836A83898165
:100D7000843090F58981282F30E03C832B838B8150
:100D80009C8181309105D1F02B813C81223031054D
:100D90002CF48B819C81009761F01EC02B813C81DB
:100DA0002230310581F08B819C818330910581F067
:100DB00013C0EBE3F0E08A8180830EC0E8E3F0E04B
:100DC0008A81808309C0E5E3F0E08A81808304C0E2
:100DD000E2E3F0E08A8180830F900F900F900F90F4
:100DE000CF91DF910895DF93CF9300D000D0CDB79E
:100DF000DEB78A838A81843090F58A81282F30E09B
:100E00003C832B838B819C8181309105D1F02B8198
:100E10003C81223031052CF48B819C81009761F05C
:100E20001EC02B813C812230310581F08B819C8159
:100E30008330910581F013C0EBE3F0E0808189837A
:100E40000EC0E8E3F0E08081898309C0E5E3F0E0CB
:100E50008081898304C0E2E3F0E080818983898115
:100E60000F900F900F900F90CF91DF910895DF9327
:100E7000CF9300D000D00F92CDB7DEB789836A83BD
:100E80004B838981843008F0D1C08981282F30E0DC
:100E90003D832C838C819D818130910509F443C071
:100EA0002C813D81223031052CF48C819D8100976D
:100EB00071F0BCC02C813D812230310509F45FC046
:100EC0008C819D818330910509F485C0AFC08B81F1
:100ED0008130A1F4AAE3B0E0EAE3F0E08081482F9A
:100EE0008A81282F30E081E090E0022E02C0880F36
:100EF000991F0A94E2F7842B8C9398C0AAE3B0E080
:100F0000EAE3F0E08081482F8A81282F30E081E0F9
:100F100090E0022E02C0880F991F0A94E2F7809594
:100F200084238C9383C08B818130A1F4A7E3B0E04C
:100F3000E7E3F0E08081482F8A81282F30E081E0CC
:100F400090E0022E02C0880F991F0A94E2F7842BCA
:100F50008C936CC0A7E3B0E0E7E3F0E08081482F1A
:100F60008A81282F30E081E090E0022E02C0880FB5
:100F7000991F0A94E2F7809584238C9357C08B8144
:100F80008130A1F4A4E3B0E0E4E3F0E08081482FF5
:100F90008A81282F30E081E090E0022E02C0880F85
:100FA000991F0A94E2F7842B8C9340C0A4E3B0E02D
:100FB000E4E3F0E08081482F8A81282F30E081E04F
:100FC00090E0022E02C0880F991F0A94E2F78095E4
:100FD00084238C932BC08B818130A1F4A1E3B0E0FA
:100FE000E1E3F0E08081482F8A81282F30E081E022
:100FF00090E0022E02C0880F991F0A94E2F7842B1A
:101000008C9314C0A1E3B0E0E1E3F0E08081482FCD
:101010008A81282F30E081E090E0022E02C0880F04
:10102000991F0A94E2F7809584238C930F900F9078
:101030000F900F900F90CF91DF910895DF93CF9392
:1010400000D000D00F92CDB7DEB789836A834B837F
:101050008981843008F0D1C08981282F30E03D8318
:101060002C838C819D818130910509F443C02C81B2
:101070003D81223031052CF48C819D81009771F0E7
:10108000BCC02C813D812230310509F45FC08C81C8
:101090009D818330910509F485C0AFC08B8181307B
:1010A000A1F4ABE3B0E0EBE3F0E08081482F8A816C
:1010B000282F30E081E090E0022E02C0880F991FB7
:1010C0000A94E2F7842B8C9398C0ABE3B0E0EBE397
:1010D000F0E08081482F8A81282F30E081E090E085
:1010E000022E02C0880F991F0A94E2F7809584238C
:1010F0008C9383C08B818130A1F4A8E3B0E0E8E356
:10110000F0E08081482F8A81282F30E081E090E054
:10111000022E02C0880F991F0A94E2F7842B8C9349
:101120006CC0A8E3B0E0E8E3F0E08081482F8A815A
:10113000282F30E081E090E0022E02C0880F991F36
:101140000A94E2F7809584238C9357C08B81813079
:10115000A1F4A5E3B0E0E5E3F0E08081482F8A81C7
:10116000282F30E081E090E0022E02C0880F991F06
:101170000A94E2F7842B8C9340C0A5E3B0E0E5E34A
:10118000F0E08081482F8A81282F30E081E090E0D4
:10119000022E02C0880F991F0A94E2F780958423DB
:1011A0008C932BC08B818130A1F4A2E3B0E0E2E309
:1011B000F0E08081482F8A81282F30E081E090E0A4
:1011C000022E02C0880F991F0A94E2F7842B8C9399
:1011D00014C0A2E3B0E0E2E3F0E08081482F8A810E
:1011E000282F30E081E090E0022E02C0880F991F86
:1011F0000A94E2F7809584238C930F900F900F90C0
:101200000F900F90CF91DF910895DF93CF9300D08F
:1012100000D00F92CDB7DEB78A836B838A8184308A
:1012200008F067C08A81282F30E03D832C834C81F1
:101230005D814130510541F18C819D818230910564
:1012400034F42C813D812115310561F052C04C816F
:101250005D814230510551F18C819D818330910532
:10126000B9F147C0E9E3F0E08081282F30E08B81BD
:10127000882F90E0A90102C0559547958A95E2F71D
:10128000CA018170898335C0E6E3F0E08081282FB0
:1012900030E08B81882F90E0A90102C055954795D9
:1012A0008A95E2F7CA018170898323C0E3E3F0E005
:1012B0008081282F30E08B81882F90E0A90102C027
:1012C000559547958A95E2F7CA018170898311C0C7
:1012D000E0E3F0E08081282F30E08B81882F90E0E0
:1012E000A90102C0559547958A95E2F7CA01817018
:1012F000898389810F900F900F900F900F90CF915D
:10130000DF910895DF93CF9300D000D0CDB7DEB743
:101310008A838A81843090F58A81282F30E03C834B
:101320002B838B819C8181309105D1F02B813C8175
:10133000223031052CF48B819C81009761F01EC016
:101340002B813C812230310581F08B819C8183305F
:10135000910581F013C0EAE3F0E0808189830EC03B
:10136000E7E3F0E08081898309C0E4E3F0E0808175
:10137000898304C0E1E3F0E08081898389810F9053
:101380000F900F900F90CF91DF910895DF93CF933F
:1013900000D000D00F92CDB7DEB78A836B838A81ED
:1013A000843008F067C08A81282F30E03D832C8389
:1013B0004C815D814130510541F18C819D818230AC
:1013C000910534F42C813D812115310561F052C025
:1013D0004C815D814230510551F18C819D8183307A
:1013E0009105B9F147C0EAE3F0E08081282F30E0B1
:1013F0008B81882F90E0A90102C0559547958A9569
:10140000E2F7CA018170898335C0E7E3F0E08081AB
:10141000282F30E08B81882F90E0A90102C05595DC
:1014200047958A95E2F7CA018170898323C0E4E376
:10143000F0E08081282F30E08B81882F90E0A90197
:1014400002C0559547958A95E2F7CA018170898354
:1014500011C0E1E3F0E08081282F30E08B81882FFC
:1014600090E0A90102C0559547958A95E2F7CA0117
:101470008170898380E00F900F900F900F900F90F4
:10148000CF91DF910895DF93CF93CDB7DEB76C97FF
:101490000FB6F894DEBF0FBECDBF81E067E041E03C
:1014A0000E941E0880E090E0A0E0B0E4898F9A8F4F
:1014B000AB8FBC8F698D7A8D8B8D9C8D20E030E059
:1014C0004AEF54E40E941F02DC01CB018D8B9E8BFE
:1014D000AF8BB88F6D897E898F89988D20E030E041
:1014E00040E85FE30E94250488232CF481E090E02B
:1014F0009C8B8B8B3FC06D897E898F89988D20E076
:101500003FEF4FE757E40E94C50318164CF5698D6D
:101510007A8D8B8D9C8D20E030E040E251E40E947A
:101520001F02DC01CB01BC01CD010E944900DC019E
:10153000CB019C8B8B8B0FC088EC90E09A8B898BB6
:1015400089899A890197F1F79A8B898B8B899C8974
:1015500001979C8B8B8B8B899C89009769F714C0B2
:101560006D897E898F89988D0E944900DC01CB01AD
:101570009C8B8B8B8B899C89988B8F878F85988987
:101580000197F1F7988B8F8781E067E040E00E9438
:101590001E0880E090E0A0E0B0E48B879C87AD87D8
:1015A000BE876B857C858D859E8520E030E04AEF87
:1015B00054E40E941F02DC01CB018F839887A98726
:1015C000BA876F81788589859A8520E030E040E888
:1015D0005FE30E94250488232CF481E090E09E8341
:1015E0008D833FC06F81788589859A8520E03FEFA4
:1015F0004FE757E40E94C50318164CF56B857C85B0
:101600008D859E8520E030E040E251E40E941F027B
:10161000DC01CB01BC01CD010E944900DC01CB0102
:101620009E838D830FC088EC90E09C838B838B819D
:101630009C810197F1F79C838B838D819E8101971B
:101640009E838D838D819E81009769F714C06F8181
:10165000788589859A850E944900DC01CB019E83AB
:101660008D838D819E819A83898389819A81019757
:10167000F1F79A8389836C960FB6F894DEBF0FBE9C
:10168000CDBFCF91DF910895DF93CF930F92CDB768
:10169000DEB7898381E065E041E00E941E0881E0B9
:1016A00066E040E00E941E0882E069810E94AF0669
:1016B0000E94430A0F90CF91DF910895DF93CF935B
:1016C0000F92CDB7DEB7898381E065E040E00E94EC
:1016D0001E0881E066E040E00E941E0882E0698109
:1016E0000E94AF060E94430A0F90CF91DF910895A8
:1016F000DF93CF93CDB7DEB72E970FB6F894DEBF4A
:101700000FBECDBF81E00E945E0B80E090E0A0EABA
:10171000B1E48B879C87AD87BE876B857C858D8583
:101720009E8520E030E04AEF54E40E941F02DC0175
:10173000CB018F839887A987BA876F817885898540
:101740009A8520E030E040E85FE30E94250488238A
:101750002CF481E090E09E838D833FC06F8178857B
:1017600089859A8520E03FEF4FE757E40E94C50343
:1017700018164CF56B857C858D859E8520E030E0C4
:1017800040E251E40E941F02DC01CB01BC01CD010B
:101790000E944900DC01CB019E838D830FC088EC41
:1017A00090E09C838B838B819C810197F1F79C83D4
:1017B0008B838D819E8101979E838D838D819E81F8
:1017C000009769F714C06F81788589859A850E9492
:1017D0004900DC01CB019E838D838D819E819A839C
:1017E000898389819A810197F1F79A8389832E965B
:1017F0000FB6F894DEBF0FBECDBFCF91DF91089535
:10180000DF93CF93CDB7DEB7EE970FB6F894DEBF78
:101810000FBECDBF80E090E0A8E4B2E48BAF9CAFF8
:10182000ADAFBEAF6BAD7CAD8DAD9EAD20E030E019
:101830004AEF54E40E941F02DC01CB018FAB98AF4A
:10184000A9AFBAAF6FA978AD89AD9AAD20E030E00D
:1018500040E85FE30E94250488232CF481E090E0B7
:101860009EAB8DAB3FC06FA978AD89AD9AAD20E03E
:101870003FEF4FE757E40E94C50318164CF56BADD8
:101880007CAD8DAD9EAD20E030E040E251E40E94A1
:101890001F02DC01CB01BC01CD010E944900DC012B
:1018A000CB019EAB8DAB0FC088EC90E09CAB8BABBB
:1018B0008BA99CA90197F1F79CAB8BAB8DA99EA935
:1018C00001979EAB8DAB8DA99EA9009769F714C0B7
:1018D0006FA978AD89AD9AAD0E944900DC01CB01BA
:1018E0009EAB8DAB8DA99EA99AAB89AB89A99AA90C
:1018F0000197F1F79AAB89AB82E06FEF0E946B061C
:1019000088E30E945E0B80E090E0A8E4B2E48DA73B
:101910009EA7AFA7B8AB6DA57EA58FA598A92BEA0A
:101920003AEA4AE250E40E941F02DC01CB0189A797
:101930009AA7ABA7BCA769A57AA58BA59CA520E013
:1019400030E040E85FE30E94250488231CF481E036
:1019500088A791C069A57AA58BA59CA520E030E059
:101960004FE753E40E94C50318160CF07BC06DA529
:101970007EA58FA598A920E030E04AE754E40E94B4
:101980001903DC01CB018CA39DA3AEA3BFA36CA163
:101990007DA18EA19FA120E030E04AEF54E40E9497
:1019A0001F02DC01CB0188A399A3AAA3BBA368A152
:1019B00079A18AA19BA120E030E040E85FE30E948A
:1019C000250488232CF481E090E09F8F8E8F3FC008
:1019D00068A179A18AA19BA120E03FEF4FE757E4DE
:1019E0000E94C50318164CF56CA17DA18EA19FA184
:1019F00020E030E040E251E40E941F02DC01CB0114
:101A0000BC01CD010E944900DC01CB019F8F8E8F6C
:101A10000FC088EC90E09D8F8C8F8C8D9D8D0197F1
:101A2000F1F79D8F8C8F8E8D9F8D01979F8F8E8F5D
:101A30008E8D9F8D009769F724C068A179A18AA136
:101A40009BA10E944900DC01CB019F8F8E8F8E8D60
:101A50009F8D9B8F8A8F8A8D9B8D0197F1F79B8F2E
:101A60008A8F0FC069A57AA58BA59CA50E94490005
:101A7000DC01CB0188A788A5898F898D8A95F1F72C
:101A8000898F8CE00E945E0B80E090E0A8E4B2E4D5
:101A90008D8B9E8BAF8BB88F6D897E898F89988D4A
:101AA0002BEA3AEA4AE250E40E941F02DC01CB0131
:101AB000898B9A8BAB8BBC8B69897A898B899C8942
:101AC00020E030E040E85FE30E94250488231CF416
:101AD00081E0888B91C069897A898B899C8920E013
:101AE00030E04FE753E40E94C50318160CF07BC0AA
:101AF0006D897E898F89988D20E030E04AE754E433
:101B00000E941903DC01CB018C879D87AE87BF87BC
:101B10006C857D858E859F8520E030E04AEF54E41A
:101B20000E941F02DC01CB0188879987AA87BB87A7
:101B3000688579858A859B8520E030E040E85FE311
:101B40000E94250488232CF481E090E09F838E83FB
:101B50003FC0688579858A859B8520E03FEF4FE708
:101B600057E40E94C50318164CF56C857D858E855B
:101B70009F8520E030E040E251E40E941F02DC013A
:101B8000CB01BC01CD010E944900DC01CB019F8348
:101B90008E830FC088EC90E09D838C838C819D8127
:101BA0000197F1F79D838C838E819F8101979F839D
:101BB0008E838E819F81009769F724C0688579851F
:101BC0008A859B850E944900DC01CB019F838E831F
:101BD0008E819F819B838A838A819B810197F1F704
:101BE0009B838A830FC069897A898B899C890E942B
:101BF0004900DC01CB01888B8889898389818A959A
:101C0000F1F789830E94780B86E00E945E0BEE96C6
:101C10000FB6F894DEBF0FBECDBFCF91DF91089510
:101C2000DF93CF9300D00F92CDB7DEB79B838A832B
:101C300019820EC08981282F30E08A819B81FC01A6
:101C4000E20FF31F80810E94440B89818F5F89839B
:101C50008981282F30E08A819B81FC01E20FF31FEC
:101C60008081882339F70F900F900F90CF91DF91EB
:101C70000895DF93CF9300D0CDB7DEB789836A8311
:101C80008981823018F48A818F3018F080E80E94B0
:101C90005E0B8981882329F48A8180580E945E0B1B
:101CA00007C08981813021F48A8180540E945E0BB3
:101CB0000F900F90CF91DF9108950F931F93DF93B3
:101CC000CF93CDB7DEB760970FB6F894DEBF0FBEE7
:101CD000CDBF6D877E878F87988B1A828D859E8575
:101CE000AF85B8890097A105B10591F580E30E9401
:101CF000440B4DC08A81082F10E08D859E85AF85ED
:101D0000B8892AE030E040E050E0BC01CD010E94FB
:101D10001D12DC01CB01282F205DCE010396FC01B2
:101D2000E00FF11F20838D859E85AF85B8892AE05D
:101D300030E040E050E0BC01CD010E941D12DA010C
:101D4000C9018D879E87AF87B88B8A818F5F8A8311
:101D50008D859E85AF85B8890097A105B10551F69F
:101D60008A81898311C08981882F90E09C0121504C
:101D70003040CE010396FC01E20FF31F80810E94E8
:101D8000440B8981815089838981882361F760961A
:101D90000FB6F894DEBF0FBECDBFCF91DF911F917C
:101DA0000F910895DF93CF9300D00F92CDB7DEB798
:101DB0009B838A8319820EC08981282F30E08A8113
:101DC0009B81FC01E20FF31F80810E94D110898169
:101DD0008F5F89838981282F30E08A819B81FC0174
:101DE000E20FF31F8081882339F70F900F900F9037
:101DF000CF91DF9108950F931F93DF93CF9300D07E
:101E00000F92CDB7DEB79B838A8319828981282FF1
:101E100030E08A819B818C01020F131F0E94EB101E
:101E2000F80180830FC089818F5F89838981282F82
:101E300030E08A819B818C01020F131F0E94EB10FE
:101E4000F80180838981282F30E08A819B81FC0101
:101E5000E20FF31F8081833231F78981282F30E030
:101E60008A819B81FC01E20FF31F10820F900F907B
:101E70000F90CF91DF911F910F910895DF93CF9332
:101E800000D000D00F92CDB7DEB79D838C831B822C
:101E90001A8219820FC08A81282F30E08C819D819F
:101EA000FC01E20FF31F90818981890F89838A8168
:101EB0008F5F8A838A81282F30E08C819D81FC018D
:101EC000E20FF31F8081882331F78A810E94D110AD
:101ED0000EC08B81282F30E08C819D81FC01E20FA8
:101EE000F31F80810E94D1108B818F5F8B838B8148
:101EF000282F30E08C819D81FC01E20FF31F80814F
:101F0000882339F789810E94D1108981882F90E038
:101F1000892F990F990B0E94D1100F900F900F905D
:101F20000F900F90CF91DF9108950F931F93DF9340
:101F3000CF93CDB7DEB72B970FB6F894DEBF0FBEA9
:101F4000CDBF9A87898718861F821E821D821C82B8
:101F50001B821A8219820E94EB108F83188620C080
:101F60008885282F30E089859A858C01020F131F00
:101F70000E94EB10F80180838885282F30E0898546
:101F80009A85FC01E20FF31F8081282F30E08981C0
:101F90009A81820F931F9A83898388858F5F8887B0
:101FA00098858F819817E0F20E94EB108E830E9433
:101FB000EB108D838E81282F30E08D81882F90E06B
:101FC000982F8827822B932B9C838B839F818885D6
:101FD000981719F4F1E0FB8701C01B868B852B96BF
:101FE0000FB6F894DEBF0FBECDBFCF91DF911F912A
:101FF0000F910895DF93CF9300D0CDB7DEB79A83CA
:10200000898389819A819093B8008093B700E98190
:10201000FA8180810E94D11087E190E10E946611CF
:102020000E942E110F900F90CF91DF910895DF93B2
:10203000CF93CDB7DEB72091B7003091B800809133
:102040006D00882F90E0F901E80FF91F8081882347
:10205000A1F02091B7003091B80080916D00882FD9
:1020600090E0F901E80FF91F80810E94FA10809139
:102070006D008F5F80936D0005C081E080936D00DF
:102080000E943C11CF91DF910895DF93CF9300D050
:10209000CDB7DEB79A83898389819A819093BA00FC
:1020A0008093B9000E9412118DE590E10E94781191
:1020B0000F900F90CF91DF9108950F931F93DF93AF
:1020C000CF93CDB7DEB72091B9003091BA0080919F
:1020D000B600882F90E08901080F191F0E9408118F
:1020E000F80180838091B6008F5F8093B600CF9116
:1020F000DF911F910F910895DF93CF9300D00F923E
:10210000CDB7DEB71B821A821982ABE2B0E0EBE2F8
:10211000F0E080818D7F8C938B8180688B838B81B5
:1021200082608B838B8184608B83AAE2B0E0EAE2D9
:10213000F0E080818B7F8C938B81877F8B838B8179
:102140008F7B8B838B818F7E8B838B818F7D8B832A
:10215000E0E4F0E08B81808380917E0090917F00AD
:102160009A838983E0E4F0E089819A81892F992715
:102170008083E9E2F0E089818083AAE2B0E0EAE2CC
:10218000F0E0808188608C93AAE2B0E0EAE2F0E0BF
:10219000808180618C930F900F900F90CF91DF9191
:1021A0000895DF93CF930F92CDB7DEB78983EBE22B
:1021B000F0E08081829586958770882F90E081700D
:1021C00090700097A1F3ECE2F0E0898180830F909A
:1021D000CF91DF910895DF93CF93CDB7DEB7EBE2D8
:1021E000F0E080818823DCF7ECE2F0E08081CF91A1
:1021F000DF910895DF93CF930F92CDB7DEB7898338
:10220000ECE2F0E0898180830F90CF91DF91089517
:10221000DF93CF93CDB7DEB7ECE2F0E08081CF91D2
:10222000DF910895DF93CF93CDB7DEB7AAE2B0E098
:10223000EAE2F0E0808180688C93CF91DF9108958D
:10224000DF93CF93CDB7DEB7AAE2B0E0EAE2F0E0E9
:1022500080818F778C93CF91DF910895DF93CF9317
:10226000CDB7DEB7AAE2B0E0EAE2F0E080818064B8
:102270008C93CF91DF910895DF93CF93CDB7DEB7E5
:10228000AAE2B0E0EAE2F0E080818F7B8C93CF910C
:10229000DF910895DF93CF93CDB7DEB7AAE2B0E028
:1022A000EAE2F0E0808180628C93CF91DF91089523
:1022B000DF93CF93CDB7DEB7AAE2B0E0EAE2F0E079
:1022C00080818F7D8C93CF91DF910895DF93CF93A1
:1022D00000D0CDB7DEB79A83898389819A819093A4
:1022E000BC008093BB000F900F90CF91DF910895B9
:1022F000DF93CF9300D0CDB7DEB79A8389838981EE
:102300009A819093BE008093BD000F900F90CF9163
:10231000DF9108951F920F920FB60F9211242F9301
:102320003F934F935F936F937F938F939F93AF935D
:10233000BF93EF93FF93DF93CF93CDB7DEB7809139
:10234000BB009091BC00009729F0E091BB00F09198
:10235000BC000995CF91DF91FF91EF91BF91AF91B3
:102360009F918F917F916F915F914F913F912F91AD
:102370000F900FBE0F901F9018951F920F920FB6DF
:102380000F9211242F933F934F935F936F937F93FB
:102390008F939F93AF93BF93EF93FF93DF93CF936D
:1023A000CDB7DEB78091BD009091BE00009729F0B7
:1023B000E091BD00F091BE000995CF91DF91FF91B2
:1023C000EF91BF91AF919F918F917F916F915F91AD
:1023D0004F913F912F910F900FBE0F901F90189526
:1023E000DF93CF93CDB7DEB7C456D0400FB6F89485
:1023F000DEBF0FBECDBF84E6FE013196DF01982F10
:102400001D929A95E9F781E065E041E00E94370767
:1024100081E066E041E00E94370781E067E041E04B
:102420000E9437070E94000C0E947C100E944F06F9
:1024300080E690E00E94FA0FFFCFA1E21A2EAA1BBD
:10244000BB1BFD010DC0AA1FBB1FEE1FFF1FA21764
:10245000B307E407F50720F0A21BB30BE40BF50B61
:10246000661F771F881F991F1A9469F760957095EA
:10247000809590959B01AC01BD01CF0108952F92ED
:102480003F924F925F926F927F928F929F92AF9204
:10249000BF92CF92DF92EF92FF920F931F93CF9351
:1024A000DF93CDB7DEB7CA1BDB0B0FB6F894DEBFE8
:1024B0000FBECDBF09942A88398848885F846E840E
:1024C0007D848C849B84AA84B984C884DF80EE8058
:1024D000FD800C811B81AA81B981CE0FD11D0FB661
:1024E000F894DEBF0FBECDBFED010895F894FFCF85
:1024F0004F6D6172000000000000000000016700E5
:102500003300190010000C000800CF0067003300F2
:10251000220019001000A001CF0067004400330022
:102520002200CF0067003300220019001000A00134
:10253000CF0067004400330022004003A001CF0019
:062540008A006700440060
:00000001FF
