:100000000C942A000C94D50E0C94020F0C942F0F14
:100010000C9447000C9447000C9447000C94470044
:100020000C9447000C9447000C9447000C940A224F
:100030000C9447000C9447000C9447000C94470024
:100040000C9447000C9447000C9447000C94470014
:100050000C94470011241FBECFE5D8E0DEBFCDBF12
:1000600011E0A0E6B0E0ECE1F6E402C005900D92EC
:10007000A23FB107D9F712E0A2EFB1E001C01D9293
:10008000A531B107E1F70E94E5170C940C230C94FD
:100090000000EF92FF920F931F937B018C0120E0F1
:1000A00030E040E05FE40E94F50388238CF0C80153
:1000B000B70120E030E040E05FE40E94C1010E940F
:1000C00055049B01AC01205030404040504806C0D0
:1000D000C801B7010E9455049B01AC01B901CA01D6
:1000E0001F910F91FF90EF900895A0E0B0E0EBE733
:1000F000F0E00C94D522DC012B01FA019C919230A6
:1001000008F439C1EB018881823008F433C194309E
:1001100069F4843009F02FC111969C91119789815F
:10012000981709F428C1A8EDB0E025C1843009F47E
:1001300021C18230A9F4923009F01DC19A01AD01AC
:1001400088E0EA010990AE01E90109929E0181501F
:10015000C1F7E201898111969C918923818308C1AD
:10016000923009F407C112962D903C901397EB0141
:100170008A819B811496AD90BD90CD90DC901797AD
:10018000EC80FD800E811F819101281B390BB90184
:1001900037FF04C066277727621B730B6032710537
:1001A0000CF061C0121613066CF537014801062EDB
:1001B00004C096948794779467940A94D2F721E0C8
:1001C00030E040E050E004C0220F331F441F551FB1
:1001D0006A95D2F721503040404050402E213F21B7
:1001E00040235123211531054105510521F021E01E
:1001F00030E040E050E079018A01E628F72808293C
:1002000019293CC0232BD1F1260E371E350146019A
:10021000062E04C096948794779467940A94D2F734
:1002200021E030E040E050E004C0220F331F441FC3
:10023000551F6A95D2F721503040404050402A2146
:100240003B214C215D21211531054105510521F04E
:1002500021E030E040E050E059016A01A628B728CB
:10026000C828D9280BC0821593052CF01C01AA249C
:10027000BB24650103C0EE24FF24870111969C91E5
:10028000D20111968C91981709F445C0992339F041
:10029000A80197012A193B094C095D0906C0A6016E
:1002A00095012E193F09400B510B57FD08C01182D3
:1002B0003382228224833583468357831DC081E0A5
:1002C00081833382228288279927DC01821B930B4A
:1002D000A40BB50B84839583A683B7830DC0220F2F
:1002E000331F441F551F24833583468357838281E0
:1002F000938101979383828324813581468157813D
:10030000DA01C9010197A109B1098F5F9F4FAF4F72
:10031000BF4328F30BC0918333822282EA0CFB1C7B
:100320000C1D1D1DE482F5820683178383E0808304
:10033000248135814681578157FF1AC0C901AA27F8
:1003400097FDA095BA2F81709070A070B0705695EF
:10035000479537952795822B932BA42BB52B848318
:100360009583A683B7838281938101969383828349
:10037000DF0101C0D201CD01CDB7DEB7E2E10C94BF
:10038000F122A0E2B0E0E7ECF1E00C94E122698315
:100390007A838B839C832D833E834F835887E9E048
:1003A000EE2EF12CEC0EFD1ECE010196B7010E943F
:1003B00046068E010F5E1F4FCE010596B8010E94C2
:1003C00046068A8991E089278A8BC701B801AE0168
:1003D000475E5F4F0E9475000E947105A096E6E09F
:1003E0000C94FD22A0E2B0E0E8EFF1E00C94E122F1
:1003F00069837A838B839C832D833E834F835887C5
:10040000F9E0EF2EF12CEC0EFD1ECE010196B701A6
:100410000E9446068E010F5E1F4FCE010596B80161
:100420000E944606C701B801AE01475E5F4F0E94B9
:1004300075000E947105A096E6E00C94FD22A0E2F2
:10044000B0E0E5E2F2E00C94D52269837A838B83F5
:100450009C832D833E834F835887CE010196BE0136
:10046000675F7F4F0E944606CE010596BE016F5E14
:100470007F4F0E9446069985923088F089898230A4
:10048000C8F0943019F4823051F404C0843029F457
:10049000923081F488ED90E0C6C0923049F420E0BB
:1004A0009A858A89981321E02A87CE010996BBC0D4
:1004B000823049F420E09A858A89981321E02A8BBA
:1004C000CE014196B0C02D843E844F8458886D88FB
:1004D0007E888F88988CEE24FF248701AA24BB2471
:1004E000650140E050E060E070E0E0E0F0E0C10174
:1004F00081709070892BE9F0E60CF71C081D191D1E
:100500009A01AB012A0D3B1D4C1D5D1D80E090E062
:10051000A0E0B0E0E614F7040805190520F481E036
:1005200090E0A0E0B0E0BA01A901480F591F6A1F8E
:100530007B1FAA0CBB1CCC1CDD1C97FE08C081E0F5
:1005400090E0A0E0B0E0A82AB92ACA2ADB2A3196B6
:10055000E032F10549F0660C771C881C991C569412
:10056000479437942794C3CFFA85EA892B893C892D
:100570008B859C85280F391F2E5F3F4F17C0CA01FE
:1005800081709070892B61F016950795F794E79428
:1005900080E090E0A0E0B0E8E82AF92A0A2B1B2BC3
:1005A00076956795579547952F5F3F4F77FDE7CF36
:1005B0000CC0440F551F661F771F17FD4160EE0CDE
:1005C000FF1C001F111F21503040403090E05907A0
:1005D00090E0690790E4790760F32B8F3C8FDB0193
:1005E000CA018F779070A070B07080349105A1051A
:1005F000B10561F447FD0AC0E114F10401051105DC
:1006000029F0405C5F4F6F4F7F4F40781A8EFE1786
:1006100011F081E08A8F4D8F5E8F6F8F78A383E01A
:10062000898FCE0149960E947105A096E2E10C9453
:10063000F122A8E1B0E0EFE1F3E00C94DD22698360
:100640007A838B839C832D833E834F835887B9E0C5
:10065000EB2EF12CEC0EFD1ECE010196B7010E948F
:1006600046068E010F5E1F4FCE010596B8010E940F
:1006700046062985223008F47EC03989323010F4CC
:10068000B8017CC08A859A8989278A87243011F02D
:10069000223031F4231709F06EC068ED70E06EC0AF
:1006A000343039F41D861E861F86188A1C861B86E8
:1006B00004C0323021F484E08987B7015FC02B8504
:1006C0003C858B899C89281B390B3C872B87ED84C3
:1006D000FE840F851889AD88BE88CF88D88CEA142F
:1006E000FB040C051D0540F4EE0CFF1C001F111F40
:1006F000215030403C872B8720E030E040E050E044
:1007000080E090E0A0E0B0E460E070E0EA14FB0478
:100710000C051D0540F0282B392B4A2B5B2BEA18C2
:10072000FB080C091D09B695A79597958795EE0CC2
:10073000FF1C001F111F6F5F7F4F6F31710531F775
:10074000DA01C9018F779070A070B0708034910584
:10075000A105B10561F427FD0AC0E114F10401050A
:10076000110529F0205C3F4F4F4F5F4F20782D87B8
:100770003E874F87588BBE01675F7F4FCB010E943A
:1007800071056896EAE00C94F922A8E1B0E0EBEC80
:10079000F3E00C94E12269837A838B839C832D831D
:1007A0003E834F83588789E0E82EF12CEC0EFD1E26
:1007B000CE010196B7010E9446068E010F5E1F4FC3
:1007C000CE010596B8010E9446068985823040F028
:1007D0008989823028F0C701B8010E94BE0601C095
:1007E0008FEF6896E6E00C94FD22A8E1B0E0EBEF15
:1007F000F3E00C94E12269837A838B839C832D83BD
:100800003E834F83588789E0E82EF12CEC0EFD1EC5
:10081000CE010196B7010E9446068E010F5E1F4F62
:10082000CE010596B8010E9446068985823040F0C7
:100830008989823028F0C701B8010E94BE0601C034
:100840008FEF6896E6E00C94FD22A8E1B0E0EBE2C1
:10085000F4E00C94E12269837A838B839C832D835B
:100860003E834F83588789E0E82EF12CEC0EFD1E65
:10087000CE010196B7010E9446068E010F5E1F4F02
:10088000CE010596B8010E9446068985823040F067
:100890008989823028F0C701B8010E94BE0601C0D4
:1008A00081E06896E6E00C94FD22ACE0B0E0EBE578
:1008B000F4E00C94E52269837A838B839C83CE01D8
:1008C0000196BE016B5F7F4F0E9446068D8182308C
:1008D00061F1823050F1843021F48E81882351F10E
:1008E0002EC02F81388537FD20C06E812F31310514
:1008F0001CF06623F9F023C08EE190E0821B930B7D
:1009000029853A854B855C8504C056954795379572
:1009100027958A95D2F76623B1F05095409530958A
:1009200021953F4F4F4F5F4F0EC020E030E040E039
:1009300050E009C02FEF3FEF4FEF5FE704C020E02A
:1009400030E040E050E8B901CA012C96E2E00C9496
:100950000123A8E0B0E0EFEAF4E00C94DD227B0193
:100960008C01611571058105910519F482E0898377
:1009700060C083E089838EE1C82ED12CDC82CB82DB
:10098000ED82FE820F831887C801B7010E942205FD
:10099000FC013197F7FF3BC0222733272E1B3F0B6B
:1009A00057016801022E04C0D694C794B794A79447
:1009B0000A94D2F740E050E060E070E081E090E01F
:1009C000A0E0B0E004C0880F991FAA1FBB1F2A95A2
:1009D000D2F70197A109B1098E219F21A023B1234C
:1009E0000097A105B10521F041E050E060E070E022
:1009F0004A295B296C297D294D835E836F83788723
:100A00008EE190E08E1B9F0B9C838B8312C03097EE
:100A100081F00E2E04C0EE0CFF1C001F111F0A9463
:100A2000D2F7ED82FE820F831887CE1ADF0ADC82AE
:100A3000CB821A82CE0101960E9471052896EAE0C7
:100A40000C94F922EF92FF920F931F937B018C017C
:100A500080E0E81680E0F80681E0080780E01807EB
:100A600088F48FEFE816F1040105110531F028F044
:100A700088E090E0A0E0B0E017C080E090E0A0E067
:100A8000B0E012C080E0E81680E0F80680E00807D9
:100A900081E0180728F088E190E0A0E0B0E004C011
:100AA00080E190E0A0E0B0E020E230E040E050E003
:100AB000281B390B4A0B5B0B04C016950795F7945E
:100AC000E7948A95D2F7F701E052FF4F8081281B07
:100AD000310941095109C9011F910F91FF90EF9010
:100AE0000895DF92EF92FF920F931F93FC01E48031
:100AF000F58006811781D1808081823048F480E0C2
:100B000090E0A0E1B0E0E82AF92A0A2B1B2BA5C04F
:100B1000843009F49FC0823021F4EE24FF24870141
:100B200005C0E114F1040105110519F4E0E0F0E05D
:100B300096C0628173819FEF623879070CF05BC0C9
:100B400022E83FEF261B370B2A3131052CF020E03D
:100B500030E040E050E02AC0B801A701022E04C0F6
:100B600076956795579547950A94D2F781E090E07E
:100B7000A0E0B0E004C0880F991FAA1FBB1F2A95F0
:100B8000D2F70197A109B1098E219F21A023B1239A
:100B90000097A105B10521F081E090E0A0E0B0E070
:100BA0009A01AB01282B392B4A2B5B2BDA01C901A7
:100BB0008F779070A070B07080349105A105B10559
:100BC00039F427FF09C0205C3F4F4F4F5F4F04C0EF
:100BD000215C3F4F4F4F5F4FE0E0F0E02030A0E05E
:100BE0003A07A0E04A07A0E45A0710F0E1E0F0E07D
:100BF00079018A0127C06038710564F5FB01E1586D
:100C0000FF4FD801C7018F779070A070B07080340B
:100C10009105A105B10539F4E7FE0DC080E490E02F
:100C2000A0E0B0E004C08FE390E0A0E0B0E0E80E08
:100C3000F91E0A1F1B1F17FF05C016950795F7948D
:100C4000E794319687E016950795F794E7948A958F
:100C5000D1F705C0EE24FF248701EFEFF0E06E2FFF
:100C6000679566276795902F9F77D794DD24D79453
:100C70008E2F8695492F462B582F5D29B701CA0123
:100C80001F910F91FF90EF90DF900895FC01DB0121
:100C9000408151812281622F6F7770E0221F2227CD
:100CA000221F9381892F880F822B282F30E0991FD4
:100CB0009927991F11969C93119721153105A9F534
:100CC000411551056105710511F482E037C082E8D4
:100CD0009FEF13969C938E9312979A01AB0167E056
:100CE000220F331F441F551F6A95D1F783E08C9361
:100CF0000DC0220F331F441F551F12968D919C91DA
:100D00001397019713969C938E931297203080E04F
:100D1000380780E0480780E4580758F314962D936D
:100D20003D934D935C93179708952F3F310579F4C8
:100D3000411551056105710519F484E08C930895FE
:100D400064FF03C081E08C9312C01C9210C02F5727
:100D5000304013963C932E93129783E08C9387E058
:100D6000440F551F661F771F8A95D1F7706414963C
:100D70004D935D936D937C93179708951F93DC01BA
:100D8000FB019C91923008F447C08081823008F4C6
:100D900043C0943051F411961C91843099F58181AF
:100DA000682F70E0611B71093FC0843021F09230E0
:100DB00031F48230B9F18181882389F12DC01196F7
:100DC0001C9111978230F1F081811817D9F4129695
:100DD0002D913C911397828193818217930794F010
:100DE00028173907BCF014968D919D910D90BC91F8
:100DF000A02D2481358146815781281739074A075C
:100E00005B0718F4112341F00AC082179307A40767
:100E1000B50740F4112319F061E070E005C06FEFF1
:100E20007FEF02C060E070E0CB011F910895DF9377
:100E3000CF93CDB7DEB7A7E2B0E0E7E2F0E0808184
:100E400080648C93A7E2B0E0E7E2F0E080818F77E6
:100E50008C93A7E2B0E0E7E2F0E080818F7D8C9395
:100E6000A6E2B0E0E6E2F0E0808181608C93A6E249
:100E7000B0E0E6E2F0E0808182608C93A6E2B0E030
:100E8000E6E2F0E0808184608C93A6E2B0E0E6E2E6
:100E9000F0E0808180628C93A6E2B0E0E6E2F0E0D0
:100EA000808180688C93A6E2B0E0E6E2F0E0808189
:100EB00080648C93CF91DF910895DF93CF9300D01E
:100EC00000D00F92CDB7DEB78D8319821A821B82B4
:100ED0001C82A7E2B0E0E7E2F0E08081807E8C93A4
:100EE000A7E2B0E0E7E2F0E090818D81892B8C935E
:100EF00016C089819A81AB81BC810196A11DB11D6B
:100F000089839A83AB83BC83E6E2F0E0808182959B
:100F10008F70882F90E081709070882361F48981B0
:100F20009A81AB81BC81803824E892072EE1A20728
:100F300020E0B207F0F2E4E2F0E0808191810F90CE
:100F40000F900F900F900F90CF91DF910895DF9346
:100F5000CF93CDB7DEB784E261E00E94D809CF918C
:100F6000DF910895DF93CF93CDB7DEB784E261E0E0
:100F70000E94EE0ACF91DF910895DF93CF93CDB712
:100F8000DEB784E260E00E94EE0ACF91DF9108951F
:100F9000DF93CF93CDB7DEB784E20E948B0CCF9165
:100FA000DF910895DF93CF93CDB7DEB72E970FB6BD
:100FB000F894DEBF0FBECDBF84E261E00E94EE0A6E
:100FC00080E090E0A0EAB2E48B879C87AD87BE8783
:100FD0006B857C858D859E8520E030E04AE755E471
:100FE0000E941F02DC01CB018F839887A987BA87F3
:100FF0006F81788589859A8520E030E040E85FE35D
:101000000E94250488232CF481E090E09E838D8348
:101010003FC06F81788589859A8520E03FEF4FE753
:1010200057E40E94C50318164CF56B857C858D85A9
:101030009E8520E030E040E251E40E941F02DC0186
:10104000CB01BC01CD010E944900DC01CB019E8394
:101050008D830FC080E991E09C838B838B819C8181
:101060000197F1F79C838B838D819E8101979E83ED
:101070008D838D819E81009769F714C06F8178857B
:1010800089859A850E944900DC01CB019E838D836E
:101090008D819E819A83898389819A810197F1F755
:1010A0009A83898384E260E00E94EE0A2E960FB64E
:1010B000F894DEBF0FBECDBFCF91DF910895DF93CF
:1010C000CF93CDB7DEB7AA970FB6F894DEBF0FBEA9
:1010D000CDBF84E261E00E94EE0A80E090E0A0EAE9
:1010E000B2E48FA398A7A9A7BAA76FA178A589A5ED
:1010F0009AA520E030E04AE755E40E941F02DC0197
:10110000CB018BA39CA3ADA3BEA36BA17CA18DA19E
:101110009EA120E030E040E85FE30E9425048823A0
:101120002CF481E090E09AA389A33FC06BA17CA13D
:101130008DA19EA120E03FEF4FE757E40E94C50339
:1011400018164CF56FA178A589A59AA520E030E086
:1011500040E251E40E941F02DC01CB01BC01CD0141
:101160000E944900DC01CB019AA389A30FC080E94A
:1011700091E098A38F8F8F8D98A10197F1F798A395
:101180008F8F89A19AA101979AA389A389A19AA176
:10119000009769F714C06BA17CA18DA19EA10E944C
:1011A0004900DC01CB019AA389A389A19AA19E8F52
:1011B0008D8F8D8D9E8D0197F1F79E8F8D8F84E29F
:1011C00060E00E94EE0A80E090E0A0E7B2E4898F40
:1011D0009A8FAB8FBC8F698D7A8D8B8D9C8D20E023
:1011E00030E04AE755E40E941F02DC01CB018D8B01
:1011F0009E8BAF8BB88F6D897E898F89988D20E00B
:1012000030E040E85FE30E94250488232CF481E06D
:1012100090E09C8B8B8B3FC06D897E898F89988DE8
:1012200020E03FEF4FE757E40E94C50318164CF546
:10123000698D7A8D8B8D9C8D20E030E040E251E409
:101240000E941F02DC01CB01BC01CD010E944900BC
:10125000DC01CB019C8B8B8B0FC080E991E09A8BDA
:10126000898B89899A890197F1F79A8B898B8B8968
:101270009C8901979C8B8B8B8B899C89009769F744
:1012800014C06D897E898F89988D0E944900DC0188
:10129000CB019C8B8B8B8B899C89988B8F878F85BF
:1012A00098890197F1F7988B8F8784E261E00E941B
:1012B000EE0A80E090E0A0EAB2E48B879C87AD87DD
:1012C000BE876B857C858D859E8520E030E04AE772
:1012D00055E40E941F02DC01CB018F839887A98708
:1012E000BA876F81788589859A8520E030E040E86B
:1012F0005FE30E94250488232CF481E090E09E8324
:101300008D833FC06F81788589859A8520E03FEF86
:101310004FE757E40E94C50318164CF56B857C8592
:101320008D859E8520E030E040E251E40E941F025E
:10133000DC01CB01BC01CD010E944900DC01CB01E5
:101340009E838D830FC080E991E09C838B838B818A
:101350009C810197F1F79C838B838D819E810197FE
:101360009E838D838D819E81009769F714C06F8164
:10137000788589859A850E944900DC01CB019E838E
:101380008D838D819E819A83898389819A8101973A
:10139000F1F79A83898384E260E00E94EE0AAA96BC
:1013A0000FB6F894DEBF0FBECDBFCF91DF91089589
:1013B000DF93CF93CDB7DEB72A970FB6F894DEBF91
:1013C0000FBECDBF8B836C838B819AE0692F0E9407
:1013D0008C22892F8A838B819AE0692F0E948C222C
:1013E00089838C81282F30E03A87298789859A85DF
:1013F000009739F029853A852130310509F476C006
:10140000E4C08981282F30E038872F838F81988529
:101410008230910561F12F8138852330310534F414
:101420008F8198858130910569F0CFC02F813885F3
:101430002330310589F18F8198858430910509F435
:1014400040C0C3C0AAE3B0E0EAE3F0E08081482FE7
:101450008A81282F30E081E090E0022E02C0880FC0
:10146000991F0A94E2F7809584238C93AEC0A7E37A
:10147000B0E0E7E3F0E08081482F8A81282F30E058
:1014800081E090E0022E02C0880F991F0A94E2F7D3
:10149000809584238C9399C0A4E3B0E0E4E3F0E06A
:1014A0008081482F8A81282F30E081E090E0022E51
:1014B00002C0880F991F0A94E2F7809584238C93C9
:1014C00084C0A1E3B0E0E1E3F0E08081482F8A81AD
:1014D000282F30E081E090E0022E02C0880F991F93
:1014E0000A94E2F7809584238C936FC08981282F1A
:1014F00030E03E832D838D819E818230910551F1B4
:101500002D813E812330310534F48D819E818130DF
:10151000910561F05AC02D813E812330310571F172
:101520008D819E8184309105E9F14FC0AAE3B0E03E
:10153000EAE3F0E08081482F8A81282F30E081E0C3
:1015400090E0022E02C0880F991F0A94E2F7842BC4
:101550008C933BC0A7E3B0E0E7E3F0E08081482F45
:101560008A81282F30E081E090E0022E02C0880FAF
:10157000991F0A94E2F7842B8C9327C0A4E3B0E070
:10158000E4E3F0E08081482F8A81282F30E081E079
:1015900090E0022E02C0880F991F0A94E2F7842B74
:1015A0008C9313C0A1E3B0E0E1E3F0E08081482F29
:1015B0008A81282F30E081E090E0022E02C0880F5F
:1015C000991F0A94E2F7842B8C932A960FB6F8940D
:1015D000DEBF0FBECDBFCF91DF910895DF93CF93D4
:1015E000CDB7DEB72A970FB6F894DEBF0FBECDBFDA
:1015F0008B836C838B819AE0692F0E948C22892FC8
:101600008A838B819AE0692F0E948C2289838C8146
:10161000282F30E03A87298789859A85009739F005
:1016200029853A852130310509F476C0E4C08981E5
:10163000282F30E038872F838F819885823091055D
:1016400061F12F8138852330310534F48F819885FD
:101650008130910569F0CFC02F8138852330310565
:1016600089F18F8198858430910509F440C0C3C009
:10167000ABE3B0E0EBE3F0E08081482F8A81282FD4
:1016800030E081E090E0022E02C0880F991F0A949A
:10169000E2F7809584238C93AEC0A8E3B0E0E8E342
:1016A000F0E08081482F8A81282F30E081E090E0AF
:1016B000022E02C0880F991F0A94E2F780958423B6
:1016C0008C9399C0A5E3B0E0E5E3F0E08081482F7A
:1016D0008A81282F30E081E090E0022E02C0880F3E
:1016E000991F0A94E2F7809584238C9384C0A2E327
:1016F000B0E0E2E3F0E08081482F8A81282F30E0DB
:1017000081E090E0022E02C0880F991F0A94E2F750
:10171000809584238C936FC08981282F30E03E838D
:101720002D838D819E818230910551F12D813E81E5
:101730002330310534F48D819E818130910561F033
:101740005AC02D813E812330310571F18D819E81FA
:1017500084309105E9F14FC0ABE3B0E0EBE3F0E09A
:101760008081482F8A81282F30E081E090E0022E8E
:1017700002C0880F991F0A94E2F7842B8C933BC018
:10178000A8E3B0E0E8E3F0E08081482F8A81282FC9
:1017900030E081E090E0022E02C0880F991F0A9489
:1017A000E2F7842B8C9327C0A5E3B0E0E5E3F0E0FB
:1017B0008081482F8A81282F30E081E090E0022E3E
:1017C00002C0880F991F0A94E2F7842B8C9313C0F0
:1017D000A2E3B0E0E2E3F0E08081482F8A81282F85
:1017E00030E081E090E0022E02C0880F991F0A9439
:1017F000E2F7842B8C932A960FB6F894DEBF0FBEC7
:10180000CDBFCF91DF910895DF93CF9300D000D06B
:1018100000D0CDB7DEB78C838C819AE0692F0E940F
:101820008C22892F8B838C819AE0692F0E948C22D5
:101830008A8319828A81282F30E03E832D834D814F
:101840005E814230510541F18D819E818330910549
:1018500034F42D813E812130310561F052C04D813B
:101860005E814330510551F18D819E818430910517
:10187000B9F147C0E9E3F0E08081282F30E08B81A7
:10188000882F90E0A90102C0559547958A95E2F707
:10189000CA018170898335C0E6E3F0E08081282F9A
:1018A00030E08B81882F90E0A90102C055954795C3
:1018B0008A95E2F7CA018170898323C0E3E3F0E0EF
:1018C0008081282F30E08B81882F90E0A90102C011
:1018D000559547958A95E2F7CA018170898311C0B1
:1018E000E0E3F0E08081282F30E08B81882F90E0CA
:1018F000A90102C0559547958A95E2F7CA01817002
:101900008983898126960FB6F894DEBF0FBECDBFBE
:10191000CF91DF910895DF93CF9300D000D00F9245
:10192000CDB7DEB78B838B819AE0692F0E948C2222
:10193000892F8A838B819AE0692F0E948C22898368
:101940008981282F30E03D832C838C819D818230DA
:10195000910551F12C813D812330310534F48C8186
:101960009D818130910561F05AC02C813D812330E9
:10197000310571F18C819D8184309105E9F14FC071
:10198000ABE3B0E0EBE3F0E08081482F8A81282FC1
:1019900030E081E090E0022E02C0959587950A9490
:1019A000E2F784278C933BC0A8E3B0E0E8E3F0E0E3
:1019B0008081482F8A81282F30E081E090E0022E3C
:1019C00002C0959587950A94E2F784278C9327C0E7
:1019D000A5E3B0E0E5E3F0E08081482F8A81282F7D
:1019E00030E081E090E0022E02C0959587950A9440
:1019F000E2F784278C9313C0A2E3B0E0E2E3F0E0C7
:101A00008081482F8A81282F30E081E090E0022EEB
:101A100002C0959587950A94E2F784278C930F90DE
:101A20000F900F900F900F90CF91DF910895DF935B
:101A3000CF93CDB7DEB72A970FB6F894DEBF0FBEAF
:101A4000CDBF8B836C838B819AE0692F0E948C229F
:101A5000892F8A838B819AE0692F0E948C22898347
:101A60008C81282F30E03A87298789859A850097CD
:101A700039F029853A852130310509F476C0E4C072
:101A80008981282F30E038872F838F819885823095
:101A9000910561F12F8138852330310534F48F8130
:101AA00098858130910569F0CFC02F81388523302A
:101AB000310589F18F8198858430910509F440C002
:101AC000C3C0ABE3B0E0EBE3F0E08081482F8A8154
:101AD000282F30E081E090E0022E02C0880F991F8D
:101AE0000A94E2F7809584238C93AEC0A8E3B0E01B
:101AF000E8E3F0E08081482F8A81282F30E081E000
:101B000090E0022E02C0880F991F0A94E2F7809598
:101B100084238C9399C0A5E3B0E0E5E3F0E08081F5
:101B2000482F8A81282F30E081E090E0022E02C009
:101B3000880F991F0A94E2F7809584238C9384C0C0
:101B4000A2E3B0E0E2E3F0E08081482F8A81282F11
:101B500030E081E090E0022E02C0880F991F0A94C5
:101B6000E2F7809584238C936FC08981282F30E021
:101B70003E832D838D819E818230910551F12D818F
:101B80003E812330310534F48D819E818130910571
:101B900061F05AC02D813E812330310571F18D8174
:101BA0009E8184309105E9F14FC0ABE3B0E0EBE3F7
:101BB000F0E08081482F8A81282F30E081E090E09A
:101BC000022E02C0880F991F0A94E2F7842B8C938F
:101BD0003BC0A8E3B0E0E8E3F0E08081482F8A81D1
:101BE000282F30E081E090E0022E02C0880F991F7C
:101BF0000A94E2F7842B8C9327C0A5E3B0E0E5E3D9
:101C0000F0E08081482F8A81282F30E081E090E049
:101C1000022E02C0880F991F0A94E2F7842B8C933E
:101C200013C0A2E3B0E0E2E3F0E08081482F8A81B4
:101C3000282F30E081E090E0022E02C0880F991F2B
:101C40000A94E2F7842B8C932A960FB6F894DEBFA1
:101C50000FBECDBFCF91DF910895DF93CF9300D01A
:101C60000F92CDB7DEB789838981282F30E03B837F
:101C70002A838A819B8181309105F9F02A813B81F9
:101C80002230310549F18A819B81009799F5A5E5BC
:101C9000B0E0E5E5F0E080818E7F8C93A5E5B0E0D3
:101CA000E5E5F0E0808182608C93ABE5B0E0EBE5A8
:101CB000F0E0808180648C931DC0A5E5B0E0E5E58F
:101CC000F0E080818B7F8C93A5E5B0E0E5E5F0E066
:101CD000808188608C930EC0A4E5B0E0E4E5F0E07C
:101CE000808180648C93ABE5B0E0EBE5F0E080812F
:101CF00080628C930F900F900F90CF91DF91089599
:101D0000DF93CF9300D000D00F92CDB7DEB7898399
:101D10007B836A838981282F30E03D832C838C81EB
:101D20009D818130910581F02C813D8122303105EA
:101D300091F08C819D810097A1F48A819B81909381
:101D40000F0280930E020DC08A819B8190930B023B
:101D500080930A0206C08A819B8190930D02809332
:101D60000C020F900F900F900F900F90CF91DF917A
:101D70000895DF93CF93CDB7DEB7ABE5B0E0EBE5E9
:101D8000F0E0808180688C93CF91DF910895DF939C
:101D9000CF93CDB7DEB7ABE5B0E0EBE5F0E0808107
:101DA0008F778C93CF91DF9108951F920F920FB68A
:101DB0000F9211242F933F934F935F936F937F93D1
:101DC0008F939F93AF93BF93EF93FF93DF93CF9343
:101DD000CDB7DEB7E0910E02F0910F020995CF91D9
:101DE000DF91FF91EF91BF91AF919F918F917F9183
:101DF0006F915F914F913F912F910F900FBE0F9078
:101E00001F9018951F920F920FB60F9211242F93C7
:101E10003F934F935F936F937F938F939F93AF9372
:101E2000BF93EF93FF93DF93CF93CDB7DEB7E091EE
:101E30000A02F0910B020995CF91DF91FF91EF918A
:101E4000BF91AF919F918F917F916F915F914F91D2
:101E50003F912F910F900FBE0F901F9018951F92DA
:101E60000F920FB60F9211242F933F934F935F93CE
:101E70006F937F938F939F93AF93BF93EF93FF9352
:101E8000DF93CF93CDB7DEB7E0910C02F0910D0256
:101E90000995CF91DF91FF91EF91BF91AF919F9104
:101EA0008F917F916F915F914F913F912F910F9003
:101EB0000FBE0F901F901895DF93CF93CDB7DEB76D
:101EC000AFE5B0E0EFE5F0E0808180688C93CF91E2
:101ED000DF910895DF93CF93CDB7DEB7AFE5B0E0E4
:101EE000EFE5F0E080818F778C93CF91DF910895BB
:101EF000DF93CF93CDB7DEB783E261E00E94D809CC
:101F000082E261E00E94D80981E261E00E94D80982
:101F100080E261E00E94D80983E260E00E94EE0A5C
:101F200082E261E00E94EE0A81E261E00E94EE0A34
:101F300080E261E00E94EE0A8FE260E00E94D80930
:101F40008EE260E00E94D8098DE260E00E94D8092C
:101F50008BE260E00E94D809CF91DF910895DF9372
:101F6000CF93CDB7DEB7AF970FB6F894DEBF0FBEF5
:101F7000CDBFCE0142969AA389A3EEEEF1E0FCA379
:101F8000EBA3F3E0FDA3EBA1FCA100808BA19CA13E
:101F900001969CA38BA3E9A1FAA1008289A19AA131
:101FA00001969AA389A39DA191509DA3EDA1EE2333
:101FB00051F7CE0145969FA38EA3EBEEF1E0F9A772
:101FC000E8A7F3E0FAA7E8A5F9A5008088A599A5F8
:101FD000019699A788A7EEA1FFA100828EA19FA1DB
:101FE00001969FA38EA39AA591509AA7EAA5EE23E6
:101FF00051F7CE0148969CA78BA7E2EEF1E0FEA731
:10200000EDA7F9E0FFA7EDA5FEA500808DA59EA593
:1020100001969EA78DA7EBA5FCA500828BA59CA58C
:1020200001969CA78BA79FA591509FA7EFA5EE2394
:1020300051F781E0898B188A1F86188AC8C0888961
:10204000282F30E0CE014296FC01E20FF31F808181
:1020500060E00E94EE0A1F86A7C08F85282F30E01F
:10206000CE014596FC01E20FF31F80810E94040C13
:10207000882309F096C080E090E0A0E7B2E48B8767
:102080009C87AD87BE876B857C858D859E8520E08E
:1020900030E04AE755E40E941F02DC01CB018F8348
:1020A0009887A987BA876F81788589859A8520E086
:1020B00030E040E85FE30E94250488232CF481E0AF
:1020C00090E09E838D833FC06F81788589859A8556
:1020D00020E03FEF4FE757E40E94C50318164CF588
:1020E0006B857C858D859E8520E030E040E251E463
:1020F0000E941F02DC01CB01BC01CD010E944900FE
:10210000DC01CB019E838D830FC080E991E09C832D
:102110008B838B819C810197F1F79C838B838D81CD
:102120009E8101979E838D838D819E81009769F7A3
:1021300014C06F81788589859A850E944900DC01E9
:10214000CB019E838D838D819E819A838983898132
:102150009A810197F1F79A8389838F85282F30E040
:10216000CE014596FC01E20FF31F80810E94040C12
:102170008823B9F48889282F30E08F85482F50E0D4
:10218000C901880F991F820F931F9E012F5F3F4F38
:10219000820F931F840F951FFC0177968081898B96
:1021A00007C08F858F5F8F878F85833008F455CF69
:1021B0008889282F30E0CE014296FC01E20FF31F00
:1021C000808161E00E94EE0A88898F5F888B888910
:1021D000833008F434CF8989AF960FB6F894DEBF08
:1021E0000FBECDBFCF91DF910895DF93CF93CDB7D1
:1021F000DEB784E161E00E94D80985E161E00E94D8
:10220000D80986E161E00E94D80988E161E00E9476
:10221000D8098DE061E00E94D8098CE061E00E945D
:10222000D80983E30E945F1382E30E945F1388E270
:102230000E945F138CE00E945F1382E00E945F1394
:1022400081E00E945F13CF91DF910895DF93CF93D8
:10225000CDB7DEB7E9970FB6F894DEBF0FBECDBF9E
:1022600089AF8DE061E00E94EE0A89AD82958F70A2
:10227000982F917084E1692F0E94EE0A89AD8295B2
:1022800086958770982F917085E1692F0E94EE0ADC
:1022900089AD8295869586958370982F917086E199
:1022A000692F0E94EE0A89AD982F991F9927991FCF
:1022B00088E1692F0E94EE0A8CE061E00E94EE0A3C
:1022C00080E090E0A0E8BFE38DAB9EABAFABB8AFD2
:1022D0006DA97EA98FA998AD20E030E04AE755E4CA
:1022E0000E941F02DC01CB0189AB9AABABABBCAB4C
:1022F00069A97AA98BA99CA920E030E040E85FE3B6
:102300000E94250488232CF481E090E098AB8FA7ED
:102310003FC069A97AA98BA99CA920E03FEF4FE7AC
:1023200057E40E94C50318164CF56DA97EA98FA924
:1023300098AD20E030E040E251E40E941F02DC0151
:10234000CB01BC01CD010E944900DC01CB0198AB5F
:102350008FA70FC080E991E09EA78DA78DA59EA5B0
:102360000197F1F79EA78DA78FA598A9019798AB24
:102370008FA78FA598A9009769F714C069A97AA9B2
:102380008BA99CA90E944900DC01CB0198AB8FA7C7
:102390008FA598A99CA78BA78BA59CA50197F1F762
:1023A0009CA78BA78CE060E00E94EE0A80E090E0A2
:1023B000A0E8BFE38FA398A7A9A7BAA76FA178A5A4
:1023C00089A59AA520E030E04AE755E40E941F0263
:1023D000DC01CB018BA39CA3ADA3BEA36BA17CA10D
:1023E0008DA19EA120E030E040E85FE30E9425043B
:1023F00088232CF481E090E09AA389A33FC06BA1CD
:102400007CA18DA19EA120E03FEF4FE757E40E9401
:10241000C50318164CF56FA178A589A59AA520E0EB
:1024200030E040E251E40E941F02DC01CB01BC011C
:10243000CD010E944900DC01CB019AA389A30FC002
:1024400080E991E098A38F8F8F8D98A10197F1F784
:1024500098A38F8F89A19AA101979AA389A389A193
:102460009AA1009769F714C06BA17CA18DA19EA1D0
:102470000E944900DC01CB019AA389A389A19AA1FA
:102480009E8F8D8F8D8D9E8D0197F1F79E8F8D8FF5
:1024900089AD982F917084E1692F0E94EE0A89AD71
:1024A0008695982F917085E1692F0E94EE0A89AD7B
:1024B00086958695982F917086E1692F0E94EE0A85
:1024C00089AD869586958695982F917088E1692FBC
:1024D0000E94EE0A8CE061E00E94EE0A80E090E04B
:1024E000A0E8BFE3898F9A8FAB8FBC8F698D7A8DFF
:1024F0008B8D9C8D20E030E04AE755E40E941F025E
:10250000DC01CB018D8B9E8BAF8BB88F6D897E8963
:102510008F89988D20E030E040E85FE30E94250439
:1025200088232CF481E090E09C8B8B8B3FC06D89DD
:102530007E898F89988D20E03FEF4FE757E40E9416
:10254000C50318164CF5698D7A8D8B8D9C8D20E016
:1025500030E040E251E40E941F02DC01CB01BC01EB
:10256000CD010E944900DC01CB019C8B8B8B0FC0FD
:1025700080E991E09A8B898B89899A890197F1F793
:102580009A8B898B8B899C8901979C8B8B8B8B89F0
:102590009C89009769F714C06D897E898F89988D11
:1025A0000E944900DC01CB019C8B8B8B8B899C8921
:1025B000988B8F878F8598890197F1F7988B8F87F4
:1025C0008CE060E00E94EE0A80E090E0A0EAB0E4D7
:1025D0008B879C87AD87BE876B857C858D859E8527
:1025E00020E030E04AE755E40E941F02DC01CB0105
:1025F0008F839887A987BA876F81788589859A851F
:1026000020E030E040E85FE30E94250488232CF4BA
:1026100081E090E09E838D833FC06F8178858985BE
:102620009A8520E03FEF4FE757E40E94C503181654
:102630004CF56B857C858D859E8520E030E040E201
:1026400051E40E941F02DC01CB01BC01CD010E94BC
:102650004900DC01CB019E838D830FC080E991E0AE
:102660009C838B838B819C810197F1F79C838B8367
:102670008D819E8101979E838D838D819E810097A0
:1026800069F714C06F81788589859A850E94490011
:10269000DC01CB019E838D838D819E819A8389830A
:1026A00089819A810197F1F79A838983E9960FB618
:1026B000F894DEBF0FBECDBFCF91DF910895DF93B9
:1026C000CF93CDB7DEB7E9970FB6F894DEBF0FBE54
:1026D000CDBF89AF8DE060E00E94EE0A89AD8295A2
:1026E0008F70982F917084E1692F0E94EE0A89AD56
:1026F000829586958770982F917085E1692F0E9449
:10270000EE0A89AD8295869586958370982F917093
:1027100086E1692F0E94EE0A89AD982F991F9927AB
:10272000991F88E1692F0E94EE0A8CE061E00E9407
:10273000EE0A80E090E0A0E8BFE38DAB9EABAFABCC
:10274000B8AF6DA97EA98FA998AD20E030E04AE727
:1027500055E40E941F02DC01CB0189AB9AABABAB05
:10276000BCAB69A97AA98BA99CA920E030E040E81C
:102770005FE30E94250488232CF481E090E098AB6D
:102780008FA73FC069A97AA98BA99CA920E03FEF38
:102790004FE757E40E94C50318164CF56DA97EA9B2
:1027A0008FA998AD20E030E040E251E40E941F0282
:1027B000DC01CB01BC01CD010E944900DC01CB0151
:1027C00098AB8FA70FC080E991E09EA78DA78DA53C
:1027D0009EA50197F1F79EA78DA78FA598A90197B0
:1027E00098AB8FA78FA598A9009769F714C069A91E
:1027F0007AA98BA99CA90E944900DC01CB0198AB66
:102800008FA78FA598A99CA78BA78BA59CA501979F
:10281000F1F79CA78BA78CE060E00E94EE0A80E0B5
:1028200090E0A0E8BFE38FA398A7A9A7BAA76FA1DC
:1028300078A589A59AA520E030E04AE755E40E94F2
:102840001F02DC01CB018BA39CA3ADA3BEA36BA194
:102850007CA18DA19EA120E030E040E85FE30E94D2
:10286000250488232CF481E090E09AA389A33FC03B
:102870006BA17CA18DA19EA120E03FEF4FE757E423
:102880000E94C50318164CF56FA178A589A59AA5D5
:1028900020E030E040E251E40E941F02DC01CB0165
:1028A000BC01CD010E944900DC01CB019AA389A3A0
:1028B0000FC080E991E098A38F8F8F8D98A1019729
:1028C000F1F798A38F8F89A19AA101979AA389A361
:1028D00089A19AA1009769F714C06BA17CA18DA171
:1028E0009EA10E944900DC01CB019AA389A389A182
:1028F0009AA19E8F8D8F8D8D9E8D0197F1F79E8F62
:102900008D8F89AD982F917084E1692F0E94EE0A16
:1029100089AD8695982F917085E1692F0E94EE0A06
:1029200089AD86958695982F917086E1692F0E94D2
:10293000EE0A89AD869586958695982F917088E1E7
:10294000692F0E94EE0A8CE061E00E94EE0A80E0AE
:1029500090E0A0E8BFE3898F9A8FAB8FBC8F698D21
:102960007A8D8B8D9C8D20E030E04AE755E40E9403
:102970001F02DC01CB018D8B9E8BAF8BB88F6D89D5
:102980007E898F89988D20E030E040E85FE30E94E7
:10299000250488232CF481E090E09C8B8B8B3FC036
:1029A0006D897E898F89988D20E03FEF4FE757E44E
:1029B0000E94C50318164CF5698D7A8D8B8D9C8D00
:1029C00020E030E040E251E40E941F02DC01CB0134
:1029D000BC01CD010E944900DC01CB019C8B8B8B9B
:1029E0000FC080E991E09A8B898B89899A89019738
:1029F000F1F79A8B898B8B899C8901979C8B8B8BA8
:102A00008B899C89009769F714C06D897E898F89AD
:102A1000988D0E944900DC01CB019C8B8B8B8B89AC
:102A20009C89988B8F878F8598890197F1F7988B70
:102A30008F878CE060E00E94EE0A80E090E0A0EAE0
:102A4000B0E48B879C87AD87BE876B857C858D8541
:102A50009E8520E030E04AE755E40E941F02DC0139
:102A6000CB018F839887A987BA876F8178858985FD
:102A70009A8520E030E040E85FE30E942504882347
:102A80002CF481E090E09E838D833FC06F81788538
:102A900089859A8520E03FEF4FE757E40E94C50300
:102AA00018164CF56B857C858D859E8520E030E081
:102AB00040E251E40E941F02DC01CB01BC01CD01C8
:102AC0000E944900DC01CB019E838D830FC080E909
:102AD00091E09C838B838B819C810197F1F79C8390
:102AE0008B838D819E8101979E838D838D819E81B5
:102AF000009769F714C06F81788589859A850E944F
:102B00004900DC01CB019E838D838D819E819A8358
:102B1000898389819A810197F1F79A838983E9965C
:102B20000FB6F894DEBF0FBECDBFCF91DF910895F1
:102B3000DF93CF9300D00F92CDB7DEB79B838A830C
:102B400019820EC08981282F30E08A819B81FC0187
:102B5000E20FF31F80810E94261189818F5F898394
:102B60008981282F30E08A819B81FC01E20FF31FCD
:102B70008081882339F70F900F900F90CF91DF91CC
:102B80000895DF93CF93CDB7DEB781E00E945F1346
:102B9000CF91DF9108950F931F93DF93CF93CDB71C
:102BA000DEB72F970FB6F894DEBF0FBECDBF6C8790
:102BB0007D878E879F8719828AE0FE013296DF012A
:102BC000982F1D929A95E9F78C859D85AE85BF85D6
:102BD000BB2394F48C859D85AE85BF85B095A0956B
:102BE000909581959F4FAF4FBF4F8C879D87AE8744
:102BF000BF878DE20E9426118981082F112707FDCA
:102C000010958C859D85AE85BF852AE030E040E03B
:102C100050E0BC01CD010E94BA22DC01CB01282F7B
:102C2000CE010296FC01E00FF11F20838C859D856B
:102C3000AE85BF852AE030E040E050E0BC01CD0128
:102C40000E94BA22DA01C9018C879D87AE87BF87AF
:102C500089818F5F89838C859D85AE85BF8500972F
:102C6000A105B10549F611C0898181508983898107
:102C7000282F332727FD3095CE010296FC01E20F65
:102C8000F31F8081805D0E9426118981181664F3EC
:102C90002F960FB6F894DEBF0FBECDBFCF91DF9158
:102CA0001F910F910895DF93CF9300D000D000D0F3
:102CB000CDB7DEB78D836E8380E8898380EC8A830D
:102CC00084E98B8384ED8C838D81282F30E0CE01C5
:102CD0000196FC01E20FF31F90818E81890F0E9403
:102CE0005F1326960FB6F894DEBF0FBECDBFCF910F
:102CF000DF910895DF93CF9300D00F92CDB7DEB769
:102D000089838981282F30E03B832A838A819B81B4
:102D100081309105D1F02A813B81223031052CF49C
:102D20008A819B81009761F01EC02A813B812230FD
:102D3000310581F08A819B818330910581F013C038
:102D40008BE161E00E94D8090EC08EE061E00E9434
:102D5000D80909C080E161E00E94D80904C08FE071
:102D600061E00E94D8090F900F900F90CF91DF91F2
:102D70000895DF93CF9300D00F92CDB7DEB789834C
:102D80008981282F30E03B832A838A819B8181308F
:102D90009105D1F02A813B81223031052CF48A81C2
:102DA0009B81009761F01EC02A813B812230310552
:102DB00081F08A819B818330910581F013C08BE182
:102DC00061E00E94EE0A0EC08EE061E00E94EE0A11
:102DD00009C080E161E00E94EE0A04C08FE061E07A
:102DE0000E94EE0A0F900F900F90CF91DF910895FF
:102DF000DF93CF9300D00F92CDB7DEB7898389815F
:102E0000282F30E03B832A838A819B818130910582
:102E1000D1F02A813B81223031052CF48A819B81BB
:102E2000009761F01EC02A813B812230310581F07C
:102E30008A819B818330910581F013C08BE160E032
:102E40000E94EE0A0EC08EE060E00E94EE0A09C009
:102E500080E160E00E94EE0A04C08FE060E00E9422
:102E6000EE0A0F900F900F90CF91DF910895DF93AE
:102E7000CF9300D0CDB7DEB78A838A810E94040C3D
:102E800089838981813021F48A810E94F81606C0E5
:102E90008981882319F48A810E94B9160F900F90B6
:102EA000CF91DF910895DF93CF93CDB7DEB72E9703
:102EB0000FB6F894DEBF0FBECDBF80E090E0A0EF6C
:102EC000B1E48B879C87AD87BE876B857C858D85BC
:102ED0009E8520E030E04AE755E40E941F02DC01B5
:102EE000CB018F839887A987BA876F817885898579
:102EF0009A8520E030E040E85FE30E9425048823C3
:102F00002CF481E090E09E838D833FC06F817885B3
:102F100089859A8520E03FEF4FE757E40E94C5037B
:102F200018164CF56B857C858D859E8520E030E0FC
:102F300040E251E40E941F02DC01CB01BC01CD0143
:102F40000E944900DC01CB019E838D830FC080E984
:102F500091E09C838B838B819C810197F1F79C830B
:102F60008B838D819E8101979E838D838D819E8130
:102F7000009769F714C06F81788589859A850E94CA
:102F80004900DC01CB019E838D838D819E819A83D4
:102F9000898389819A810197F1F79A838983809146
:102FA00012028F5F8093120280911202833011F41B
:102FB000109212020E94501A2E960FB6F894DEBF9D
:102FC0000FBECDBFCF91DF910895DF93CF93CDB7E3
:102FD000DEB71092F80181E08093F6010E94FC17A1
:102FE00080E00E94641B8091F8010E94841A0E9474
:102FF0002E180E947E1CFBCFDF93CF93CDB7DEB798
:1030000080E00E947A1683E00E947A1682E00E9495
:103010007A1683E00E94901D8FE261E00E94170DF6
:1030200085E261E00E94D8090E94F5100E94A7077E
:103030000E94170781E00E942D0E23E537E181E011
:10304000B9010E94800E0E945C0F0E9417070E9427
:10305000780F0E940620CF91DF910895DF93CF93E0
:1030600000D0CDB7DEB78091F201282F30E03A834F
:10307000298389819A818130910561F029813A8182
:103080002230310551F089819A81009741F40E94E4
:103090000D1A05C00E94221A02C00E943B1A0F900E
:1030A0000F90CF91DF910895DF93CF9300D00F92CF
:1030B000CDB7DEB7898380E065E00E945316898131
:1030C000282F30E03B832A838A819B81009731F04F
:1030D0002A813B812130310531F009C080E690E042
:1030E0000E94981504C084E690E00E9498150F9005
:1030F0000F900F90CF91DF910895DF93CF93CDB7CD
:10310000DEB70E94011C8091F5018130E9F480E076
:103110000E94CF1D882381F40E94D20783E00E9481
:10312000B9161092F40181E00E94F81680E00E9426
:10313000CF1D8823D9F308C080E00E94CF1D8823CB
:1031400019F083E00E94F816CF91DF910895DF9384
:10315000CF930F92CDB7DEB78091F6018130A1F405
:103160000E94AF0F89838981833331F480E00E940C
:10317000B9160E94B90E08C08981813029F480E017
:103180000E94F8160E94C70E0F90CF91DF9108950C
:10319000DF93CF930F92CDB7DEB78091F3018130EB
:1031A000E1F40E94AF0F898389818233E1F4809139
:1031B000FB018F5F8093FB018091FB01813021F443
:1031C00081E08093F4010FC08091FB01823059F4BB
:1031D0001092F4011092FB0106C08091F301882344
:1031E00011F41092F4010F90CF91DF910895DF93C5
:1031F000CF93CDB7DEB76C970FB6F894DEBF0FBE96
:10320000CDBF0E94D20782E00E94B91680E090E014
:10321000AAE7B4E4898F9A8FAB8FBC8F698D7A8DC2
:103220008B8D9C8D20E030E04AE755E40E941F0220
:10323000DC01CB018D8B9E8BAF8BB88F6D897E8926
:103240008F89988D20E030E040E85FE30E942504FC
:1032500088232CF481E090E09C8B8B8B3FC06D89A0
:103260007E898F89988D20E03FEF4FE757E40E94D9
:10327000C50318164CF5698D7A8D8B8D9C8D20E0D9
:1032800030E040E251E40E941F02DC01CB01BC01AE
:10329000CD010E944900DC01CB019C8B8B8B0FC0C0
:1032A00080E991E09A8B898B89899A890197F1F756
:1032B0009A8B898B8B899C8901979C8B8B8B8B89B3
:1032C0009C89009769F714C06D897E898F89988DD4
:1032D0000E944900DC01CB019C8B8B8B8B899C89E4
:1032E000988B8F878F8598890197F1F7988B8F87B7
:1032F00082E00E94F81680E090E0AAE7B4E48B87B1
:103300009C87AD87BE876B857C858D859E8520E0FB
:1033100030E04AE755E40E941F02DC01CB018F83B5
:103320009887A987BA876F81788589859A8520E0F3
:1033300030E040E85FE30E94250488232CF481E01C
:1033400090E09E838D833FC06F81788589859A85C3
:1033500020E03FEF4FE757E40E94C50318164CF5F5
:103360006B857C858D859E8520E030E040E251E4D0
:103370000E941F02DC01CB01BC01CD010E9449006B
:10338000DC01CB019E838D830FC080E991E09C839B
:103390008B838B819C810197F1F79C838B838D813B
:1033A0009E8101979E838D838D819E81009769F711
:1033B00014C06F81788589859A850E944900DC0157
:1033C000CB019E838D838D819E819A8389838981A0
:1033D0009A810197F1F79A8389836C960FB6F894D6
:1033E000DEBF0FBECDBFCF91DF910895DF93CF93A6
:1033F000CDB7DEB78091F701813061F483E00E94A0
:10340000CF1D882339F40E94F71883E00E94CF1D56
:103410008823D9F3CF91DF910895DF93CF93CDB770
:10342000DEB71092F30181E08093F50181E0809393
:10343000F6010E94121B0E94A7180E94C818CF9183
:10344000DF910895DF93CF93CDB7DEB71092F301EC
:1034500081E08093F50181E08093F6010E94121BC8
:103460000E94011C0E94931B0E94A7180E94C8186A
:10347000CF91DF910895DF93CF93CDB7DEB7109250
:10348000F30181E08093F50181E08093F6010E94D1
:10349000121B0E94A7180E94C818CF91DF910895AF
:1034A000DF93CF9300D0CDB7DEB780911202282FE3
:1034B00030E03A83298389819A818130910581F0B6
:1034C00029813A812230310599F089819A810097CA
:1034D000B1F41092F2018091F2010E94311B0FC0F1
:1034E00081E08093F2018091F2010E94311B07C0BC
:1034F00082E08093F2018091F2010E94311B0F90D3
:103500000F90CF91DF910895DF93CF9300D00F926A
:10351000CDB7DEB789830E94C1158981282F30E09D
:103520003B832A838A819B818130910511F12A8115
:103530003B8122303105A1F18A819B81009709F0FE
:103540006BC080E060E00E94531688E690E00E9425
:10355000981580E00E94371783E06FE00E945316B1
:1035600083E790E00E9498158091F2010E94311B40
:1035700053C080E060E00E94531689E790E00E940B
:1035800098158091F4010E9454180E94C81883E095
:103590006FE00E9453168EE790E00E9498153CC0A1
:1035A00080E061E00E94531684E890E00E94981544
:1035B00080E068E00E9453168AE890E00E94981527
:1035C00080E067E00E94531686E990E00E9498151B
:1035D00081E067E00E94531686E990E00E9498150A
:1035E00082E067E00E94531686E990E00E949815F9
:1035F00083E067E00E94531686E990E00E949815E8
:1036000083E06FE00E94531688E990E00E949815CD
:103610000E94931B0E94011C0F900F900F90CF915E
:10362000DF910895DF93CF930F92CDB7DEB70E945D
:10363000AF0F89838981883381F48091F8018330C9
:1036400050F48091F8010E94841A8091F8018F5FF4
:103650008093F80102C01092F8010F90CF91DF9192
:103660000895DF93CF9300D00F92CDB7DEB7898353
:1036700081E064E00E9453168981282F30E03B836B
:103680002A838A819B818130910551F02A813B8177
:103690002230310579F08A819B81009731F00EC08C
:1036A0008EE990E00E94981509C089EA90E00E9496
:1036B000981504C083EB90E00E9498150F900F902E
:1036C0000F90CF91DF910895DF93CF930F92CDB7F5
:1036D000DEB7898381E06BE00E9453168DEB90E0AA
:1036E0000E94981581E06BE00E945316898188231F
:1036F00041F480E00E94651C89EC90E00E949815DE
:103700000EC08981813059F48091E0019091E101EE
:10371000CC01A0E0B0E0BC01CD010E94CB150F9020
:10372000CF91DF910895DF93CF930F92CDB7DEB79E
:1037300081E06BE00E9453160E94AF0F898389815C
:10374000813301F58091E0019091E101843691058A
:1037500048F48091E0019091E10105969093E10198
:103760008093E0018091E0019091E101CC01A0E023
:10377000B0E0BC01CD010E94CB1580ED90E00E942D
:1037800098153BC08981873301F58091E0019091C4
:10379000E1018530910548F08091E0019091E101CF
:1037A00005979093E1018093E0018091E001909171
:1037B000E101CC01A0E0B0E0BC01CD010E94CB153D
:1037C00080ED90E00E94981518C089818433A9F497
:1037D0008091FC01882349F481E00E94641B81E010
:1037E0008093FC011092FA0108C080E00E94641BE3
:1037F0001092FC0181E08093FA010F90CF91DF914C
:103800000895DF93CF93CDB7DEB780E00E945D07C8
:10381000909311028093100283E064E00E9453169B
:103820008091100290911102CC01A0E0B0E0BC01A7
:10383000CD010E94CB158091100290911102CC0114
:10384000A0E0B0E028EC30E040E050E0BC01CD0169
:103850000E946D22DC01CB012FEF33E040E050E00D
:10386000BC01CD010E949822DA01C9019093110296
:103870008093100281E062E00E9453168091100252
:1038800090911102CC01A0E0B0E0BC01CD010E94FA
:10389000CB15CF91DF910895DF93CF93CDB7DEB7EE
:1038A0008091F901882341F481E08093F90185E258
:1038B00061E00E94EE0A06C01092F90185E260E024
:1038C0000E94EE0ACF91DF910895DF93CF930F927C
:1038D000CDB7DEB789838981882329F485E260E04A
:1038E0000E94EE0A07C08981813021F485E261E0FF
:1038F0000E94EE0A0F90CF91DF910895DF93CF934E
:10390000CDB7DEB76C970FB6F894DEBF0FBECDBF54
:1039100020911002309111028091E0019091E1011B
:103920008217930708F0F0C08091FA01882309F00C
:10393000EBC081E00E94651C80E090E0AAE7B3E460
:10394000898F9A8FAB8FBC8F698D7A8D8B8D9C8D73
:1039500020E030E04AE755E40E941F02DC01CB0181
:103960008D8B9E8BAF8BB88F6D897E898F89988D5B
:1039700020E030E040E85FE30E94250488232CF437
:1039800081E090E09C8B8B8B3FC06D897E898F8915
:10399000988D20E03FEF4FE757E40E94C5031816CB
:1039A0004CF5698D7A8D8B8D9C8D20E030E040E266
:1039B00051E40E941F02DC01CB01BC01CD010E9439
:1039C0004900DC01CB019C8B8B8B0FC080E991E01F
:1039D0009A8B898B89899A890197F1F79A8B898BC0
:1039E0008B899C8901979C8B8B8B8B899C890097F9
:1039F00069F714C06D897E898F89988D0E9449006E
:103A0000DC01CB019C8B8B8B8B899C89988B8F875E
:103A10008F8598890197F1F7988B8F8780E00E94B6
:103A2000651C80E090E0AAE7B3E48B879C87AD87B4
:103A3000BE876B857C858D859E8520E030E04AE7DA
:103A400055E40E941F02DC01CB018F839887A98770
:103A5000BA876F81788589859A8520E030E040E8D3
:103A60005FE30E94250488232CF481E090E09E838C
:103A70008D833FC06F81788589859A8520E03FEFEF
:103A80004FE757E40E94C50318164CF56B857C85FB
:103A90008D859E8520E030E040E251E40E941F02C7
:103AA000DC01CB01BC01CD010E944900DC01CB014E
:103AB0009E838D830FC080E991E09C838B838B81F3
:103AC0009C810197F1F79C838B838D819E81019767
:103AD0009E838D838D819E81009769F718C06F81C9
:103AE000788589859A850E944900DC01CB019E83F7
:103AF0008D838D819E819A83898389819A810197A3
:103B0000F1F79A83898303C080E00E94651C6C965C
:103B10000FB6F894DEBF0FBECDBFCF91DF910895F1
:103B2000DF93CF9300D00F92CDB7DEB78983898121
:103B3000282F30E03B832A838A819B818130910545
:103B4000D1F02A813B81223031052CF48A819B817E
:103B5000009761F01EC02A813B812230310581F03F
:103B60008A819B818330910581F013C08FE260E0F0
:103B70000E94D8090EC08EE260E00E94D80909C0F8
:103B80008DE260E00E94D80904C08BE260E00E94F0
:103B9000D8090F900F900F90CF91DF910895DF9388
:103BA000CF93CDB7DEB7EC970FB6F894DEBF0FBE5C
:103BB000CDBF8AAF81E089AF8AAD282F30E03CAF1E
:103BC0002BAF8BAD9CAD8130910509F497C02BAD27
:103BD0003CAD223031052CF48BAD9CAD009771F0DB
:103BE0000BC22BAD3CAD2230310509F407C18BADC2
:103BF0009CAD8330910509F481C1FEC18FE20E9422
:103C0000040C882309F0F8C180E090E0A8E4B2E455
:103C10008DAB9EABAFABB8AF6DA97EA98FA998ADA8
:103C200020E030E04AE755E40E941F02DC01CB01AE
:103C300089AB9AABABABBCAB69A97AA98BA99CA9A0
:103C400020E030E040E85FE30E94250488232CF464
:103C500081E090E098AB8FA73FC069A97AA98BA9B2
:103C60009CA920E03FEF4FE757E40E94C5031816D8
:103C70004CF56DA97EA98FA998AD20E030E040E217
:103C800051E40E941F02DC01CB01BC01CD010E9466
:103C90004900DC01CB0198AB8FA70FC080E991E010
:103CA0009EA78DA78DA59EA50197F1F79EA78DA72D
:103CB0008FA598A9019798AB8FA78FA598A9009772
:103CC00069F714C069A97AA98BA99CA90E94490027
:103CD000DC01CB0198AB8FA78FA598A99CA78BA7D8
:103CE0008BA59CA50197F1F79CA78BA78FE20E945B
:103CF000040C882309F080C119AE7EC18EE20E94B7
:103D0000040C882309F078C180E090E0A8E4B2E4D4
:103D10008FA398A7A9A7BAA76FA178A589A59AA5E7
:103D200020E030E04AE755E40E941F02DC01CB01AD
:103D30008BA39CA3ADA3BEA36BA17CA18DA19EA1CF
:103D400020E030E040E85FE30E94250488232CF463
:103D500081E090E09AA389A33FC06BA17CA18DA1D3
:103D60009EA120E03FEF4FE757E40E94C5031816DD
:103D70004CF56FA178A589A59AA520E030E040E236
:103D800051E40E941F02DC01CB01BC01CD010E9465
:103D90004900DC01CB019AA389A30FC080E991E01F
:103DA00098A38F8F8F8D98A10197F1F798A38F8F8C
:103DB00089A19AA101979AA389A389A19AA10097A1
:103DC00069F714C06BA17CA18DA19EA10E9449003E
:103DD000DC01CB019AA389A389A19AA19E8F8D8F23
:103DE0008D8D9E8D0197F1F79E8F8D8F8EE20E94B3
:103DF000040C882309F000C119AEFEC08DE20E94B8
:103E0000040C882309F0F8C080E090E0A8E4B2E454
:103E1000898F9A8FAB8FBC8F698D7A8D8B8D9C8D9E
:103E200020E030E04AE755E40E941F02DC01CB01AC
:103E30008D8B9E8BAF8BB88F6D897E898F89988D86
:103E400020E030E040E85FE30E94250488232CF462
:103E500081E090E09C8B8B8B3FC06D897E898F8940
:103E6000988D20E03FEF4FE757E40E94C5031816F6
:103E70004CF5698D7A8D8B8D9C8D20E030E040E291
:103E800051E40E941F02DC01CB01BC01CD010E9464
:103E90004900DC01CB019C8B8B8B0FC080E991E04A
:103EA0009A8B898B89899A890197F1F79A8B898BEB
:103EB0008B899C8901979C8B8B8B8B899C89009724
:103EC00069F714C06D897E898F89988D0E94490099
:103ED000DC01CB019C8B8B8B8B899C89988B8F878A
:103EE0008F8598890197F1F7988B8F878DE20E94D3
:103EF000040C882309F080C019AE7EC08BE20E94BA
:103F0000040C882309F078C080E090E0A8E4B2E4D3
:103F10008B879C87AD87BE876B857C858D859E85CD
:103F200020E030E04AE755E40E941F02DC01CB01AB
:103F30008F839887A987BA876F81788589859A85C5
:103F400020E030E040E85FE30E94250488232CF461
:103F500081E090E09E838D833FC06F817885898565
:103F60009A8520E03FEF4FE757E40E94C5031816FB
:103F70004CF56B857C858D859E8520E030E040E2A8
:103F800051E40E941F02DC01CB01BC01CD010E9463
:103F90004900DC01CB019E838D830FC080E991E055
:103FA0009C838B838B819C810197F1F79C838B830E
:103FB0008D819E8101979E838D838D819E81009747
:103FC00069F714C06F81788589859A850E944900B8
:103FD000DC01CB019E838D838D819E819A838983B1
:103FE00089819A810197F1F79A8389838BE20E94F4
:103FF000040C882309F419AE89ADEC960FB6F89439
:10400000DEBF0FBECDBFCF91DF910895DF93CF9379
:10401000CDB7DEB7A3E5B0E0E3E5F0E080818F7BCC
:104020008C93A3E5B0E0E3E5F0E08081877F8C939B
:10403000A9E5B0E0E9E5F0E0808181608C93CF9163
:10404000DF910895DF93CF93CDB7DEB72C970FB6EE
:10405000F894DEBF0FBECDBF69877A878B879C87B8
:1040600080E490E0A0E0B0E08D839E83AF83B887CA
:1040700089859A85AB85BC8528EE33E040E050E029
:10408000BC01CD010E946D22DC01CB012D813E815E
:104090004F815885BC01CD010E949822DA01C901E7
:1040A00089839A83AB83BC8389819A81AB81BC81EC
:1040B000892F9A2FAB2FBB278093FD019093FE0190
:1040C000A093FF01B0930002898180930502809143
:1040D00005028823C9F0E2E5F0E0809105028195B0
:1040E00080838091FD019091FE01A091FF01B0912C
:1040F00000020196A11DB11D8093FD019093FE0168
:10410000A093FF01B09300022C960FB6F894DEBF87
:104110000FBECDBFCF91DF910895DF93CF9300D035
:104120000F92CDB7DEB789838981282F30E03B839A
:104130002A838A819B81009731F02A813B8121303B
:104140003105B9F02BC0A3E5B0E0E3E5F0E08081F4
:1041500081608C93A3E5B0E0E3E5F0E080818D7FA2
:104160008C93A3E5B0E0E3E5F0E0808184608C937C
:1041700015C0AEE4B0E0EEE4F0E0808181608C93A5
:10418000AEE4B0E0EEE4F0E080818D7F8C93AEE4AD
:10419000B0E0EEE4F0E0808184608C930F900F90AB
:1041A0000F90CF91DF910895DF93CF9300D00F92BE
:1041B000CDB7DEB789838981282F30E03B832A83FE
:1041C0008A819B81009731F02A813B812130310522
:1041D000B9F02BC0A3E5B0E0E3E5F0E080818E7F8D
:1041E0008C93A3E5B0E0E3E5F0E080818D7F8C93D4
:1041F000A3E5B0E0E3E5F0E080818B7F8C9315C010
:10420000AEE4B0E0EEE4F0E080818E7F8C93AEE42B
:10421000B0E0EEE4F0E080818D7F8C93AEE4B0E01E
:10422000EEE4F0E080818B7F8C930F900F900F90E5
:10423000CF91DF910895DF93CF9300D00F92CDB748
:10424000DEB789838981282F30E03B832A838A81E6
:104250009B81009731F02A813B8121303105A1F00B
:1042600047C087E161E00E94D809A3E5B0E0E3E53B
:10427000F0E080818F7E8C93A3E5B0E0E3E5F0E091
:10428000808180628C9334C08DE261E00E94D80905
:10429000AFE4B0E0EFE4F0E080818E7F8C93AFE498
:1042A000B0E0EFE4F0E0808182608C93AEE4B0E0B7
:1042B000EEE4F0E0808188608C93AEE4B0E0EEE460
:1042C000F0E0808180618C93AFE4B0E0EFE4F0E057
:1042D00080818F7B8C93AFE4B0E0EFE4F0E08081ED
:1042E00080688C93E6E4F0E084E091E09183808341
:1042F0000F900F900F90CF91DF9108950F931F9320
:10430000DF93CF93CDB7DEB727970FB6F894DEBF14
:104310000FBECDBF89834A835B836C837D83898194
:10432000282F30E03F832E838E819F810097D9F123
:10433000EE81FF81E130F105B1F50AE410E0E6E439
:10434000F0E080819181CC01A0E0B0E0BC01CD0122
:104350000E94A904DC01CB01BC01CD012A813B8173
:104360004C815D810E941F02DC01CB01BC01CD01AB
:1043700020E030E048EC52E40E941903DC01CB015C
:10438000BC01CD0120E030E040E85FE30E94C101C4
:10439000DC01CB01BC01CD010E944900DC01CB0155
:1043A000F8019183808327960FB6F894DEBF0FBE85
:1043B000CDBFCF91DF911F910F910895DF93CF93E0
:1043C0000F92CDB7DEB7898389810E948D200F902F
:1043D000CF91DF910895DF93CF930F92CDB7DEB7E2
:1043E000898389810E94D4200F90CF91DF91089515
:1043F000DF93CF9300D0CDB7DEB79A8389838981CD
:104400009A8190931402809313020F900F90CF9192
:10441000DF9108951F920F920FB60F9211242F93E0
:104420003F934F935F936F937F938F939F93AF933C
:10443000BF93EF93FF93DF93CF93CDB7DEB7809118
:10444000060290910702A0910802B091090201961C
:10445000A11DB11D8093060290930702A09308024C
:10446000B0930902209106023091070240910802A0
:10447000509109028091FD019091FE01A091FF01F0
:10448000B0910002281739074A075B0799F4E091B9
:104490001302F0911402099510920602109207027D
:1044A0001092080210920902E2E5F0E08091050204
:1044B00081958083CF91DF91FF91EF91BF91AF9173
:1044C0009F918F917F916F915F914F913F912F912C
:1044D0000F900FBE0F901F901895629FD001739F91
:1044E000F001829FE00DF11D649FE00DF11D929F90
:1044F000F00D839FF00D749FF00D659FF00D9927CF
:10450000729FB00DE11DF91F639FB00DE11DF91FF2
:10451000BD01CF0111240895991B79E004C0991FB2
:10452000961708F0961B881F7A95C9F7809508950D
:10453000A1E21A2EAA1BBB1BFD010DC0AA1FBB1FA7
:10454000EE1FFF1FA217B307E407F50720F0A21B19
:10455000B30BE40BF50B661F771F881F991F1A9486
:1045600069F760957095809590959B01AC01BD01B0
:10457000CF01089597FB092E05260ED057FD04D0D4
:10458000D7DF0AD0001C38F450954095309521951E
:104590003F4F4F4F5F4F0895F6F790958095709578
:1045A00061957F4F8F4F9F4F08952F923F924F926B
:1045B0005F926F927F928F929F92AF92BF92CF92B3
:1045C000DF92EF92FF920F931F93CF93DF93CDB7BC
:1045D000DEB7CA1BDB0B0FB6F894DEBF0FBECDBF34
:1045E00009942A88398848885F846E847D848C8405
:1045F0009B84AA84B984C884DF80EE80FD800C810E
:104600001B81AA81B981CE0FD11D0FB6F894DEBFF0
:0C4610000FBECDBFED010895F894FFCF60
:10461C004F4646004F4E20004765617220426F782E
:10462C003A20005B312F335D0043435320005B3253
:10463C002F335D00537065656400537065656420AD
:10464C006C696D6974007C005B332F335D00204E08
:10465C00202052202844292000284E292052202096
:10466C00442000204E2028522920442000202020C5
:10467C002020202020202020004F464620202000F3
:10468C00202020202020200000000000000000003E
:10469C0000010202030303030404040404040404DD
:1046AC0005050505050505050505050505050505AE
:1046BC00060606060606060606060606060606068E
:1046CC00060606060606060606060606060606067E
:1046DC00070707070707070707070707070707075E
:1046EC00070707070707070707070707070707074E
:1046FC00070707070707070707070707070707073E
:10470C00070707070707070707070707070707072D
:10471C00080808080808080808080808080808080D
:10472C0008080808080808080808080808080808FD
:10473C0008080808080808080808080808080808ED
:10474C0008080808080808080808080808080808DD
:10475C0008080808080808080808080808080808CD
:10476C0008080808080808080808080808080808BD
:10477C0008080808080808080808080808080808AD
:10478C00080808080808080808080808080808089D
:10479C0064003132333435363738392F2E2D2221FF
:0247AC002000EB
:00000001FF
